:10000000020744020401040204020302280FC11380
:10001000C1164100440041004F0041004E00001F46
:10002000080D00E4900038F0A3F0220228043235D5
:100030002030392032362D313420303600E0FBE5D7
:10004000315BFD22E0FBE52F5BFD2202282102044B
:100050000FE86480F8E933E83360110460F0ED33B1
:10006000EC337009E8FCE9FDEAFEEBFF220460DEF8
:10007000D3EB9FEA9EE99DE8C2E78CF0C2F795F0CA
:10008000400CE8CCF8E9CDF9EACEFAEBCFFB12034D
:10009000DA85D0F05804700320D5B3E80470075017
:1000A00002B2D502041992D5EC0460F7E4CCC0E0AA
:1000B000C398F8603B94186008400DD0E0FB020341
:1000C000F1E4FBFAC9FC8028E830E406E4C9FBE46B
:1000D000CAFCE830E305E4C9CACBFCE85407601069
:1000E000F8C3E913F9EA13FAEB13FBEC13FCD8F1AC
:1000F00030F52FC3E49CFCEF9BFFEE9AFEED99FDDB
:10010000D0E0FBEF4E4D4C701222DB03020416ECE4
:100110002CFCEF33FFEE33FEED33FDED30E7EB0269
:1001200003F1EF2BFFEE3AFEED39FDD0E0FB50136B
:100130000BBB0003020419ED13FDEE13FEEF13FFDA
:10014000EC13FC0203F1EC4D6011E8497017ED333C
:10015000EC3304600DE4FCFFFEFD22E933E83304D8
:1001600070F802040F1203DA58046009E4CC248109
:100170005006285009020419284003020416C0E062
:10018000EB4A7044B98006D0E0FB020405EF4E70E4
:100190001CBD8008EBFFEAFEE9FD80EBE98DF0A4D1
:1001A000FEE5F002022FE9CDF9EAFEEBFFEF89F060
:1001B000A4FCE5F0CE89F0A42EFFE435F0CD89F063
:1001C000A42DFEE435F08067EF4E7005BD80D7802A
:1001D000C3EF8BF0A4ACF0EE8BF0A42CFCE435F074
:1001E000F8EF8AF0A42CE5F038FCE433CB8DF0A4D2
:1001F0002CFCE5F03BF8EE8AF0A42CFCE5F038F896
:10020000E433CF89F0A42CFCE5F038CF3400CE895C
:10021000F0A42FFFE5F03EFEE433C98DF0A42EFEDE
:10022000E5F039CD8AF0A42FFFE5F03EFEE43DFD78
:1002300033D0E0FB50070BBB000F020419EC2CFC81
:10024000EF33FFEE33FEED33FD0203F1020419EC50
:100250005D046005E85904700302040F1203DA58C4
:100260000460F6EC4860F2EC7004FDFEFF22C8600A
:10027000DB2481C85009C398600250060204169816
:1002800050CAF582E9294B4A7005AB820204057514
:10029000F0007C1A7880C3EF9BEE9AED99400DC375
:1002A000EF9BFFEE9AFEED99FDE842F0DC23ACF007
:1002B000D0E0FFD0E0FED0E0FDAB8220E7101BEBEA
:1002C00060BAEC2CFCEF33FFEE33FEED33FD02039E
:1002D000F1E803F830E705C0F075F000EF2FFFEE0E
:1002E00033FEED33FD40B830E7C280AA74F8CC6429
:1002F00080CCC86480C8F58204604FC3EB9FF5F0E2
:10030000EA9E42F0E99D42F0E89C45F0603C501DB9
:10031000E5825FFFE582D313CB5BCBF42B5582FBE9
:1003200050280ABA002409B9002008801DE5825B24
:10033000FBE582D313CF5FCFF4C3132F5582FF5059
:10034000090EBE00050DBD00010CC3EB9FF5F0EAE0
:100350009E42F0E99D42F0E89C45F06007CC4820C1
:10036000E701B3EC2275F020800E75F01080057562
:10037000F0087D007E007F003392D530D503120651
:100380005AEC334010EF33FFEE33FEED33FDEC3328
:10039000FCD5F0ED22E5F0247EA2D513CC92E7CD7A
:1003A000CEFF22EDD2E7CD33EC3392D52481400647
:1003B000E4FFFEFDFC22FCE4CFCECDCC24E05011C6
:1003C00074FF80EDC3CC13CCCD13CDCE13CECF13A1
:1003D000CF0470F030D5DE02065AE9D2E7C933E81F
:1003E00033F892D5EDD2E7CD33EC33FC5002B2D5E1
:1003F00022EC30E7100FBF000C0EBE00080DBD0050
:10040000040BEB6014A2D5EB13FCED92E7FD227414
:10041000FFFCFDFEFF22E480F8A2D574FF13FC7DF3
:1004200080E480EFC2D530F707B2D563F0FF05F066
:1004300030E70CB2D5F4048463F0FF05F08001844A
:1004400030D502F40422BB010689828A83E022505F
:1004500002E722BBFE02E32289828A83E49322BB65
:10046000010CE58229F582E5833AF583E022500606
:10047000E92582F8E622BBFE06E92582F8E222E5BC
:100480008229F582E5833AF583E49322BB0106894C
:10049000828A83F0225002F722BBFE01F322EF8D05
:1004A000F0A4A8F0CF8CF0A428CE8DF0A42EFE22CC
:1004B000C2D5EC30E709B2D5E4C39DFDE49CFCEE67
:1004C00030E715B2D5E4C39FFFE49EFE1206EFC3EA
:1004D000E49DFDE49CFC80031206EF30D507C3E4E5
:1004E0009FFFE49EFE22BB0110E58229F582E58391
:1004F0003AF583E0F5F0A3E0225009E92582F88679
:10050000F008E622BBFE0AE92582F8E2F5F008E2EF
:1005100022E5832AF583E993F5F0A3E99322BB0151
:100520000A89828A83F0E5F0A3F0225006F709A732
:10053000F01922BBFE06F3E5F009F31922E88FF06B
:10054000A4CC8BF0A42CFCE98EF0A42CFC8AF0ED5A
:10055000A42CFCEA8EF0A4CDA8F08BF0A42DCC380E
:1005600025F0FDE98FF0A42CCD35F0FCEB8EF0A446
:10057000FEA9F0EB8FF0A4CFC5F02ECD39FEE43C00
:10058000FCEAA42DCE35F0FDE43CFC2275F00875A4
:100590008200EF2FFFEE33FECD33CDCC33CCC582BE
:1005A00033C5829BED9AEC99E58298400CF582EE7A
:1005B0009BFEED9AFDEC99FC0FD5F0D6E4CEFBE462
:1005C000CDFAE4CCF9A88222B800C1B90059BA002A
:1005D0002DEC8BF084CFCECDFCE5F0CBF97818EF85
:1005E0002FFFEE33FEED33FDEC33FCEB33FB10D786
:1005F00003994004EB99FB0FD8E5E4F9FA22781847
:10060000EF2FFFEE33FEED33FDEC33FCC933C910A1
:10061000D7059BE99A4007EC9BFCE99AF90FD8E0D3
:10062000E4C9FAE4CCFB2275F010EF2FFFEE33FEA5
:10063000ED33FDCC33CCC833C810D7079BEC9AE818
:1006400099400AED9BFDEC9AFCE899F80FD5F0DA99
:10065000E4CDFBE4CCFAE4C8F922C3E49FFFE49EB6
:10066000FEE49DFDE49CFC22EB9FF5F0EA9E42F047
:10067000E99D42F0EC6480C864809845F022EB9FCD
:10068000F5F0EA9E42F0E99D42F0E89C45F022E850
:10069000600FECC313FCED13FDEE13FEEF13FFD858
:1006A000F122E493FC740193FD740293FE740393AE
:1006B000FF22ECF0A3EDF0A3EEF0A3EFF022A8826E
:1006C0008583F0D083D0821206D51206D51206D5C6
:1006D0001206D5E473E493A3C583C5F0C583C8C5EA
:1006E00082C8F0A3C583C5F0C583C8C582C822BC33
:1006F000000BBE0029EF8DF084FFADF022E4CCF8B2
:1007000075F008EF2FFFEE33FEEC33FCEE9DEC9816
:100710004005FCEE9DFE0FD5F0E9E4CEFD22EDF89C
:10072000F5F0EE8420D21CFEADF075F008EF2FFF3F
:10073000ED33FD4007985006D5F0F222C398FD0F27
:10074000D5F0EA2278FFE4F6D8FD9000007F007E25
:1007500004E4F0A3DFFCDEFA758150020799020A77
:100760002AE493A3F8E493A34003F68001F208DFA0
:10077000F48029E493A3F85407240CC8C333C45469
:100780000F4420C8834004F456800146F6DFE4801D
:100790000B010204081020408090000EE47E0193BB
:1007A00060BCA3FF543F30E509541FFEE493A360EF
:1007B000010ECF54C025E060A840B8E493A3FAE44A
:1007C00093A3F8E493A3C8C582C8CAC583CAF0A39B
:1007D000C8C582C8CAC583CADFE9DEE780BEC2D504
:1007E000E830E70FB2D5E4C39BFBE49AFAE499F949
:1007F000E498F8EC30E717B2D51208141205C8E4F3
:10080000C39BFBE49AFAE499F9E498F88003120593
:10081000C830D50DE4C39FFFE49EFEE49DFDE49C3B
:10082000FC220012002B0010DBD6000FCC1E000EA5
:10083000CF6C000DE44B000D0965000C3D80000BF2
:100840007F7C000ACE50000A290700098EC30008E9
:10085000FEB50008781F0007FA52000784AE0007B3
:10086000169D0006AF9700064F1C0005F4B8000562
:100870009FFE0005508B000506020004C00D000419
:100880007E5D000440A9000406AC0003D0270003ED
:100890009CE100036CA100033F37000314720002C7
:1008A000EC280002C62F0002A2630002809F000213
:1008B00060C3000242B10002264C00020B7B000123
:1008C000F2230001DA2E0001C3870001AE190001F6
:1008D00099D2000186A0000174720001633A000100
:1008E00052EA00014372000134C8000126DF000112
:1008F00019AC00010D2500010141F5F5EB3AE107C6
:10090000D755CE1DC558BD00B50EAD7FA64C9F7006
:1009100098E792AC8CBB871181AA7C82779772E4AE
:100920006E676A1E6606621C5E5F5ACB575F54197B
:1009300050F84DF84B1A485A45B8433340C83E77F3
:100940003C3E3A1D3812361D343B326D30B22F0812
:100950002D6F2BE62A6C290127A42655251323DDAC
:1009600022B22193207F1F751E7500000000000039
:100970000000000000000000000000010001000075
:100980000000010000000000000000000000000066
:10099000020BB802260C80000101020000000302D5
:1009A0005800000B22010101030204000404B000FE
:1009B000000BB80101010301050305070800000C45
:1009C0001C010101040106040609C400000C800199
:1009D00001010501030507100400000D16000100C8
:1009E0000700000608032000000B22000100080297
:1009F0000B0C0900C800000B2200000109020300D3
:100A00000A100400C80D16000101090200000B0BBA
:100A1000B800A00BB80001000B020C080C0BB800CA
:100A2000000BB80001000C02080BC20E1227CB12FB
:100A300027D8F18A1220BC1221791229F4D210127F
:100A4000121A122FFCC21F1217F812270C1222437F
:100A5000122A931212AF123045121D2E3019E820BF
:100A60000E1812259A1234E7122B2D51981231D5F7
:100A700012111D1236FAD20E801A1228A6121C125A
:100A80001235261235DF122CF81236E71222F61232
:100A900037CEC20EC21980AF20030BC202122D87BF
:100AA000120024C20522300602815A122D4A400249
:100AB000815A752902752AEE300208752901752AB6
:100AC000F48006752902752AEED312338C50026128
:100AD000C2D3E50A94341233904002D202E50A24CC
:100AE000D2F528E50934FFF527900037741812165F
:100AF00005FF64076004EFB40A1AD390003FE09446
:100B0000229167948B400DAE27AF287C007D141294
:100B10002E5961B5D3E5289402E52764809480506E
:100B20000261B5120446FF64076004EFB40A0912BB
:100B300031647C037DE880071231647C057D1412EA
:100B400004B08E258F26E52530E705E4F525F5264A
:100B50000526E52670020525915B985005122D8F1C
:100B60008027E52854FC45276014AE25AF26E528EC
:100B70002402FDE43527FC12049E8E258F26AC2727
:100B8000AD28AE25AF26122E59900041E0247AFF01
:100B9000900040E034FEFED3900039E09FEE648088
:100BA000F8900038E06480984005EEF0A3EFF090F4
:100BB0000037743CF0915B987D0050027D017F010D
:100BC0008157C312338C4002815AC3742E950AF5A3
:100BD00028E49509F527D3E5289404E52764809453
:100BE000804002801BE52A2438FFE52934FFFED32C
:100BF00090003FE09FEE9164984005E4F52B800360
:100C0000752B01900037E0600414F0803CE52B6008
:100C100005122D8F8021E52854FE4527600FC390D3
:100C20000039E09528F0900038E09527F0900038E2
:100C3000E030E70312002330020FD390003FE0942E
:100C4000EE916794824002C202900038E030E703E0
:100C5000120023AD2BE4FF122DC122C390003FE010
:100C6000952AE5296480F890003EE0648022FF9197
:100C7000777B007D027F038F29120446FF146015E5
:100C800014602814603D14603A2404705B12382DFF
:100C9000123842802912382DF5827401F52E858292
:100CA0002FE582F4F582753000801312382DF4F5AB
:100CB00082752E0085822FEDF5827401F5308582D4
:100CC000318025ED123842858231EDF5827401F5CF
:100CD0002A85822BEFB40407EDFF7401FE8005ED39
:100CE000F4FF7E008E2C8F2D90000112045F7007A0
:100CF000EDFF7401FE8005EDF4FF7E008E328F3330
:100D000090000212045F7007EDFF7401FE8005ED94
:100D1000F4FF7E00E529147002A1AF147002C13304
:100D2000147002C1B724036002E141E52AAB9A3096
:100D3000E006E52B4BFD8004E52B5BFD8D9AE52C51
:100D400030E00890F009123869800690F0091238F6
:100D50006290F009EDF0E52E30E00512385A800679
:100D600090F00A12004490F00AEDF0E53030E00512
:100D7000123852800690F00B12003D90F00BEDF00F
:100D8000EE30E00512387E800890F00CE0FBEF5B5F
:100D9000FD90F00CEDF0E53230E006123877FD8082
:100DA0000690F00D123870AF0590F00DEDF022E5D1
:100DB0002AABA130E006E52B4BFD8004E52B5BFD63
:100DC0008DA1E52C30E00890F0191238698006906A
:100DD000F01912386290F019EDF0E52E30E00512AE
:100DE000385A800690F01A12004490F01AEDF0E59F
:100DF0003030E005123852800690F01B12003D9012
:100E0000F01BEDF0EE30E00512387E800890F01C0B
:100E1000E0FBEF5BFD90F01CEDF0E53230E00612F8
:100E20003877FD800690F01D123870AF0590F01DE8
:100E3000EDF022E52AABA230E006E52B4BFD800465
:100E4000E52B5BFD8DA2E52C30E00890F0291238EF
:100E500069800690F02912386290F029EDF0E52EB5
:100E600030E00512385A800690F02A12004490F0C3
:100E70002AEDF0E53030E005123852800690F02B74
:100E800012003D90F02BEDF0EE30E00512387E8040
:100E90000890F02CE0FBEF5BFD90F02CEDF0E532DC
:100EA00030E006123877FD800690F02D123870AFD2
:100EB0000590F02DEDF022E52AABA330E006E52BFE
:100EC0004BFD8004E52B5BFD8DA3E52C30E0089005
:100ED000F039123869800690F03912386290F03992
:100EE000EDF0E52E30E00512385A800690F03A1207
:100EF000004490F03AEDF0E53030E00512385280D1
:100F00000690F03B12003D90F03BEDF0EE30E00833
:100F1000A3E0FDEF4DFF800890F03CE0FDEF5DFFAA
:100F200090F03CEFF0E53230E009A3E0FDE5334D11
:100F3000FF800990F03DE0FDE5335DFF90F03DEF6F
:100F4000F022E4F526F527F528FB7A0079267D01C5
:100F5000916E7B007D047F0291777B017D027F0291
:100F6000122051E4121FA412205175DF4075DE607B
:100F7000E4F5E9F5D1F5D375D50F75D4FF90F69268
:100F800074A0F0121FAD43DE8022F1421220F975E9
:100F90002603E4F527752801C2B0C281FBFD7F035B
:100FA000122051E40DFF1220517A0079267F03911F
:100FB000777B007D02E4FF9177E41221F1F54F2267
:100FC000EF14600E14600F1460102403700FED42D4
:100FD000AC22ED42AD22ED42AE22ED42AF22EF1443
:100FE00060111460151460192403701CE5AC5D6079
:100FF00017D322E5AD5D6010D322E5AE5D6009D365
:1010000022E5AF5D6002D322C322EF14600F1460AB
:101010001114601324037013EDF452AC22EDF4525A
:10102000AD22EDF452AE22EDF452AF227D407F02AC
:10103000110A90005974AAF0227D067F021179EFFF
:1010400064014E702FC220E546547FFFE4F546E56B
:10105000487004E54B6007E4F54BF5488019EFC391
:1010600094055013C3E5496480948850020549757E
:10107000478080031228D980B3EF14602214603DAA
:1010800014605824037076EDD394054002806EED11
:10109000248031128002C333D8FC55ACFC8062ED51
:1010A000D394075006EDC3940350028050ED24887A
:1010B00031128002C333D8FC55ADFC8044EDD3948B
:1010C000065006EDC3940150028032ED2490311297
:1010D0008002C333D8FC55AEFC8026EDD394064085
:1010E00002801AED2498FBE434F0FAAF05A80774E7
:1010F00001088002C333D8FC55AFFC8004E4FEFF36
:1011000022EC7003FEFF228B828A83E05403FF7E71
:101110000022FBE434F0FAA80574010822123627F5
:10112000EF600312222FD3E51F9400E51E940040C8
:1011300009E51F151F7002151E221221DB438704CB
:10114000438702000000000000122815EF602612FD
:1011500027D81228D9112C7F017E00318A12224310
:1011600030190AC219B20F300F031228A612285FD5
:1011700050E5022169E525600415258006121E9DB3
:1011800075250BE51F451E60B4228E298F2AE4F5D4
:101190002FE52A45296079052FAE29AF2A121C0BAD
:1011A000E47BA07A0FF9F812053D5111C007AF2F6B
:1011B000AB07E4FAF9F8D0071205C85111E47FFF34
:1011C0007EFFFDFCAB2EAA2DA92CA82BD312067EE8
:1011D00050C5C374FF952EF52E74FF952DF52DE4A3
:1011E000952CF52CE4952BF52BAF2EAE2DAD2CAC1C
:1011F0002B780812068F8F8CE52EFF8F8AC217433B
:101200008810E58820E5033017F85388CFD52FD90B
:10121000228F2E8E2D8D2C8C2B2275260A1234C5F2
:101220007F9A7E997D097C41122565600940077F80
:1012300003122A82801112255D600C400A200707E4
:10124000D207C211122306E4900001F0F1F8121E39
:1012500088121FEC122C2FD526F2301029D10670DF
:101260002530071A7F0451877FC87E00318A7F04AA
:1012700051877526307F0A7E00318AD526F7D2162F
:1012800090000C7412F022EF24FE600E24FE601019
:101290002403701AC2B0D281800AD2B0C281800405
:1012A000D2B0D2817F147E00318AC2B0C2812212B4
:1012B000286C4002C1041228EC8F25900014E0FF36
:1012C000C394034006EFD3940640069000147403C1
:1012D000F0D106F52690004EE060028186E52614E6
:1012E00070028120147002812F24FB7002814C2433
:1012F000FD70028175240A6002818630082CE52584
:10130000B4051B754F09C208D3F1E8F165948B4011
:10131000069000137405F0C211122306818612286C
:101320005F40028186754F078186200D1312288B3E
:10133000500EF1E8F165948B4073F1C4D20D811C1D
:10134000300D08D10F4004C20D811CE52514B408EE
:10135000004002811C90135E1233AFC583730213E9
:101360007602141C02137F02138B0213B20213BC09
:10137000021402021419900014E0FFF11E811CF106
:101380005E948A40047F088020802220001FD39032
:10139000000FE09416F165948D40129000157401D1
:1013A000F0A374E0F0D20B7F0AD192806F754F07E3
:1013B000806A200867754F08D208805612255D6044
:1013C000064004D2078007D3300701C392072007E5
:1013D000067F04518780031222E7200723D3900061
:1013E00019E09408900018E0648094874002F1E1CD
:1013F000D390001DE09408122FE694874002F1E19B
:101400008010D3300C01C3920C7F02300C027F019C
:101410005187C2111223068003123618D1E8806664
:10142000123504406112288B505C12351D805730F4
:101430000D12E490001EF0D10F400C1228FA400764
:10144000C20D8003122903122EEE803A3004067F6B
:1014500003F11E8031E5256402702B900012E0B488
:1014600009047F038005900012E0FFF11E90001236
:101470007403F0801120040A900015E07002A3E0CC
:101480007004D20DF13FD106B5260A90004EE070EF
:1014900004AF25D11E12289820070FD106FF64063D
:1014A0006004EFB407047F03F11E300B08D106641B
:1014B0000A6002C20B900013E06002805790004E59
:1014C000E060101233C2EF7E0060047F64A1D77F1A
:1014D00000A1D71231AE500B900040E4F0A3741E6F
:1014E000F0A1EED10624FE7002A19E24FA7002A1A2
:1014F0008524FE604F146036146002A1DDD206120E
:1015000037D7EF24FE600D24027014E4900040F001
:10151000A3F0A1EE900040E4F0A374C8F0A1EEC2E5
:1015200006300704F1B480047E077F08A1D7123784
:1015300003F1EFD3948AEE6480948240028001D359
:101540009206A1EE200713D10F50067E077F088078
:1015500019D117900003F1BD8010D10FD11750059C
:101560009000018003900003F1BDF1EFD117122725
:1015700099900040E0B5F008A3E0B50703D38001DF
:10158000C39206806912364EEF6004F1B480047E87
:10159000007F00F1EF4EC37001D392068050C20667
:1015A00012388E900018122C1F9000404007EEF069
:1015B000A3EFF08005ECF0A3EDF090001EE0602EAC
:1015C000300910122EDD7802CEA2E713CE13D8F820
:1015D000FF80047E007F1E900040EE800DC206D189
:1015E00017122D4DFF900040E5F0F0A3EFF020071B
:1015F00013D3900041E09408900040E06480948709
:101600004002F1E122F0AB4CAA4DA94E020446E59E
:1016100048C36001D322F0AB4CAA4DA94E228F27BC
:10162000D11790000912045F6002F16CD10654FEDC
:101630006009D1E8E527B40102F13F900017E030DE
:10164000E722547FF020070FD11790000C12045F9F
:10165000B406047F03800BD11790000C12045FFFC7
:101660006002D192900017E030E50F54DFD1169060
:10167000000D12045FFF6002D192D11790000B128F
:10168000045F600D5402FF90000A12045FFD122CEB
:10169000B2228F29D1066529604D122E41F52A7B91
:1016A000007A00792B1235AA8B2C8A2D892EE52BF6
:1016B0006035E52924F5600C14600E2404700D12C9
:1016C00036F0800812278580031237BC852C4C85A4
:1016D0002D4D852E4EE529D39402400BE52A600757
:1016E000122EDDFF122D5322122FEDEF24FE601279
:1016F00014601214601224037023D106701F7F0936
:101700008090021E75023185D1067011D3F1E8F187
:1017100065948B4005F1C4D20D22754F0722D390FA
:10172000000FE094EAF165948B40028008F15E942A
:101730008A40047F03C192D1067004754F0722D1FD
:1017400006601A1460178000D11790000712045F1A
:101750006007120446900014F0E4FFD19222D39067
:10176000000FE094BE90000EE0648022EF640270EF
:10177000422007047F058039D390000FE0947AF16E
:1017800065948D402A200027D106FFD3940140059F
:10179000900012EFF0900014E0FFD39402400CEFA1
:1017A00094075007120446900014F07F07C1927FFF
:1017B00006F11E22AB4CAA4DA94E9000011204E680
:1017C000FFAEF0227F02D192201415201512E550B1
:1017D000700E300704F1B480047E077F081238973A
:1017E000227407F0A304F02290000FE094222290CC
:1017F0000040EEF0A3EFF022E508B40303E4F5089F
:10180000E50814603A147002018F14700201CF24AD
:1018100003600201CCD21111ECE4F52AAF2AEF33B8
:1018200095E0FE741F2FF58274003EF583E493FD6E
:1018300011E3F583EDF0052AE52AB404DF01C7E4DE
:10184000F52A11DCF583E0FFC364809480400FD358
:10185000EF64809496400EEF6480949F5007052AB1
:10186000E52AB404DDC3E52A64809484501C11DCAD
:10187000F583E0F529640D6004E5297004C21111B7
:10188000ECAF297126750802804575080380407504
:101890002E00752F00753029F1DC7173EF4E602F2B
:1018A00085270B85280CAD29AF28AE273101E4F53B
:1018B0002A11DCF583E0B5290711E3F58374FEF006
:1018C000052AE52AB404EA7508018003E4F5083026
:1018D0001F09E508640360030217F822AF2AEF33FB
:1018E00095E0FE74212FF58274003E2253DE7F00C6
:1018F0007F002011027FA090F692EFF00043DE807F
:10190000228E2B8F2C8D2D90F692E030E708E4FF8D
:10191000FEFD7C408002511D5103510CC004C005E6
:10192000C006C007E4FBFA79807845AF35AE34AD28
:1019300033AC3212024FD003D002D001D0001201DA
:10194000468F398E388D378C36E52D605B24F860F4
:101950006E24FB601E24EE60024102510CD16C7FAC
:101960009A7E997D997C4512024F8F1C8E1B8D1A91
:101970008C192275312D7530A6752F33752E3E5179
:10198000268F188E178D168C152007028011E4FB08
:10199000FAF97840AF18AE17AD16AC1512024F8F9A
:1019A000148E138D128C112275318C75302E752F7B
:1019B000BA752E3D51268F108E0F8D0E8C0D225133
:1019C00014511D120051C004C005C006C007E4FF39
:1019D000FE7DEB7C435114120146D003D002D001AE
:1019E000D00012024F5103E4FBFA797A78441201D5
:1019F0004651031203A37B007A00791D51398E09E9
:101A00008F0A228F358E348D338C3222AC2BAD2C45
:101A1000EC02036AAB39AA38A937A83622AF1CAE4C
:101A20001BAD1AAC1922AB31AA30A92FA82EAF39A1
:101A3000AE38AD37AC3602024F8B3A8A3B893C8FC9
:101A4000408E3F8D3E8C3D7F2B7E007D127C007151
:101A500013D312067E4007711C7EFF7FED22E47FC8
:101A6000757E1EFDFC7113C312067E5006711CFEAE
:101A70007F6422AB3AAA3BA93C740112048CE47F38
:101A8000F57EF5FDFC7113D312067E402EE4F54180
:101A9000E54125E025E02422F582E43408F58312AF
:101AA00006A27113C312067E400AE54124EDFFE44D
:101AB00034FFFE220541E541B436D5E4F541E54168
:101AC00025E024FAF582E43408F583E493FE7401FA
:101AD00093FFE48F458E44F543F542E545F545E532
:101AE00044F544E4F543F542AF40AE3FAD3EAC3D76
:101AF000AB45AA44A943A842D312067E5009E5414A
:101B00002423FFE433FE220541E541B43DB0711CBE
:101B1000FEFF22AB40AA3FA93EA83D22AB3AAA3B1A
:101B2000A93CE402048CAB077AA090002CE0704240
:101B3000C3EB64809480403AD3EB64809496400772
:101B4000EB6480949F402B9000251206BE0000009D
:101B500000F1CDEBF0A37401F0EB30E40543DF803E
:101B6000800353DF7F53DEF0EB540F42DEDAFE4397
:101B7000DF02228B2B8A2C892DE5DF30E1028042A7
:101B800090002AE004F07006900029E004F0900034
:101B900025B1CAAFDDEFFEADDCED910AEB2FFFEA18
:101BA0003EFEE93DFDE83CFC9000251206B2C390E4
:101BB000002AE0940A900029E06480948050074352
:101BC000DF02E4FEFF22900025B10BFFE47B0AFA5E
:101BD000F9F81207DE9000251206B2900025A3A3A3
:101BE000E0FFA3E0AB2BAA2CA92DCF8FF012051E8E
:101BF00090002BE0AB2EAA2FA93012048CE49000A9
:101C00002CF0FE7F0122E0FEA3E0FFEE3395E0FD25
:101C1000FC2290000BE0C39428504FD188B125904E
:101C2000000BE004F0B1082528FFEE3527FEED3566
:101C300026FDEC3525FCB1169000039106B11CC3BE
:101C4000120668500A900003E527F0A3E528F090FB
:101C500000059106B11CD3120668500281E1900084
:101C600005E527F0A3E528F08077B108FFC004C0A0
:101C700005C006C007900005E0FEA3E0FBAA06EA47
:101C80003395E0F9F89000039106EF2BFBEE3AFA5A
:101C9000ED39F9EC38F8D007D006D005D004C3EF01
:101CA0009BFFEE9AFEED99FDEC98FCB116B108FF92
:101CB000C006C007A3E024FEFFE434FFAB07FA33FD
:101CC00095E0F9F8D007D0061207DEB116900007AC
:101CD000A3A3E0FFA3E090000ECFF0A3EFF0123437
:101CE000C590000DE0FFB478057401F08009EF6045
:101CF0000690000DE004F0900000E0600214F09007
:101D0000000CE0600214F022900007E0FCA3E0FD6C
:101D1000A3E0FEA3E0229000070206B2AB28AA27A8
:101D2000A926A825228F288E278D268C2522201AC9
:101D300002A1C6301C1D90F129E030E002A1C6903E
:101D4000F164E0301B0554FEF080034401F0C21A38
:101D5000C21C22B1D6B1C71202EC600C400A90003E
:101D60003A1206BE42C80000E4FFFEFDFCB1C712F5
:101D700002EC500A90003A1206BE00000000E4FF98
:101D8000FE7DFA7C45B1C7120146E4FBFA79807802
:101D9000BF120055B125E4FBFA79C8784212024F10
:101DA000B1251203A3AD07AC06ED4CC36001D3927D
:101DB0001BECFFEF90F141F0ED90F140F0D21C9060
:101DC000F129E04401F02290003AE0F8A3E0F9A301
:101DD000E0FAA3E0FB22E4FFFE7DC87C4222AD07CF
:101DE000AC06EC12036AE4FBFA79207841D160E496
:101DF000FBFA797A784412024FD1637B4D7AB57938
:101E0000B1783C12024FD1637B667A667986783F5F
:101E1000D160C004C005C006C007E4FFFE7D7A7C27
:101E200044AB1CAA1BA91AA819120146D16CD007F1
:101E3000D006D005D00412024FD163E4FBFA79C872
:101E40007842D160B1D6AB2AAA29A928A8271202C4
:101E5000EC60044002A1D6AF2AAE29AD28AC2722FF
:101E60001201468F2A8E298D288C2722A804A905C5
:101E7000AA06AB0722900001E0700C12316DB1D6BA
:101E8000123885D197F1E322E4FFFE7D7A7C44ABE2
:101E900014AA13A912A8111201460203A3120F4299
:101EA0001217F8D188F1ECC39454EE6480948B50EF
:101EB00005F1D6120F8FD1BEE4F51EF51F22E4F511
:101EC000DE90F692F0F1ADE4FBF1A41220517526FC
:101ED00003E4F527F5287A007926120C6EC2107DEE
:101EE000017F03D1EAC210E41DFFEF1460361460D5
:101EF0005F147002E17C24036002E1A3EDD394053A
:101F00004002E1A330100EA8057401088002C3331B
:101F1000D8FC428022A8057401088002C333D8FC93
:101F2000F4528022EDD394075079EDC394034073AB
:101F300030100EA8057401088002C333D8FC42900B
:101F400022A8057401088002C333D8FCF452902201
:101F5000EDD39406504DEDC39401404730100EA8C8
:101F6000057401088002C333D8FC42A022A805747E
:101F700001088002C333D8FCF452A022EDD39406AA
:101F8000502130100EA8057401088002C333D8FC1C
:101F900042B022AF05A8077401088002C333D8FC01
:101FA000F452B022FDFF1220510D7F03227F0490D6
:101FB000002174FEF0A3DFFCE4F508900025120672
:101FC000BE00000000F1CDF0A3F0D21F22E490008B
:101FD00029F0A3F0A322E4F5BDF5BC227B007A0032
:101FE000792722900010EEF0A3EFF02290000EEE81
:101FF000F0A3EFF022EBD394035055EF14601514C7
:10200000602314603124037047EDD394055041EDF3
:102010002480802BEDD394075036EDC394034030D9
:10202000ED2488801AEDD394065025EDC394014029
:102030001FED24908009EDD394065014ED2498F5FB
:1020400029E434F0F528EB5403852982852883F0B0
:1020500022EB64026065EB64036060EB6419605B13
:10206000EBD3941C5055EF146015146023146031A9
:1020700024037047EDD394055041ED2400802BEDEF
:10208000D394075036EDC394034030ED2410801AEA
:10209000EDD394065025EDC39401401FED2420801C
:1020A00009EDD394065014ED2430F52AE434F0F50C
:1020B00029EB541F852A82852983F022752501E4A6
:1020C000F526F527FB7D067F0211517A0079257DE3
:1020D00040120C777D407F02120FC07B027D0612FA
:1020E0001FF543B904512F90005974FFF0E4F546F1
:1020F000F547F549F54AF54B22319FC2A331987D4A
:10210000087F02120C7790F120E4F0A304F090F124
:1021100023F090F12A74FFF090F122E4F090F1277F
:1021200004F0A3F090F160E4F090F165F090F164B8
:1021300004F090F131741FF090F130743FF090F1A1
:1021400041E4F090F140F090003A1206BE00000029
:1021500000C21CC21A90F166E4F090F12604F0511E
:10216000217B127D037F020151120F8A31791217F0
:10217000F8C21012121AC21F22319FC29331987DE9
:10218000087F01120C77E4900040F0A3F090003E2D
:10219000F0A3F0C21EC21D227B007A0079262275B0
:1021A000260375270175280122C390000FE094547F
:1021B000121765948B4023300C20752601E4F52717
:1021C000752801511A1216063198B401067D017F57
:1021D0000380047D02E4FF120C7722E4F5C853A8C3
:1021E000DF31FA121EBE31EA80BFC2B0C281E4F50F
:1021F0004F900054F0900053F022E4FB7D037F02E7
:10220000115190F1287401F090F121E4F090F12641
:10221000F090F125F090F123F02275BCFF75BDBF61
:102220002290F1297401F090F129E020E0F92212C6
:102230001606B40107751E00751FF022751E007585
:102240001F28227D407F02120FDE403A900059E0A5
:10225000FF25E0F030A603E004F0900059E0FCF424
:102260006003EC7021512FE4F5B6BCFF03C380017D
:10227000D392207B01BCFF027B027D067F02121FEE
:10228000F57D40120FC0302008E54730E703754761
:10229000807F82200B027F85AC07302025E546B584
:1022A0000420D3E54964809480400BAF49EF339517
:1022B000E0FE51D98009E4F549754B01754801E408
:1022C000F546202013E547B4840EE4F547E5487051
:1022D00004754A0122E4F54822E4F547F54AF54938
:1022E000F548EF04F54B22900002E07008512F9062
:1022F00000027404F02220070CB15D4008D207519F
:10230000E7C211710622E4FFD21271C53008010F35
:10231000300C03430702300703430704900033EFF8
:10232000F0900018E0FFA3E0900031CFF0A3EFF0B1
:102330007B017A0079317D03D1BB900034EFF0202E
:10234000110E90004CE0FF900034E0B5070280735E
:1023500020110FC390004BE094FE90004AE09400DF
:102360004018121FDC7D007C027F1D71D6E4FC7FCB
:102370001D71D6E490004AF0A3F0E4F52790004ADE
:10238000E0FEA3E07802C333CE33CED8F97C00253B
:1023900027FDEC3EFC74312527F9E43400FA7B017B
:1023A0007F1971D60527E527C3940440D090004BD0
:1023B000E004F0700690004AE004F0900034E090F1
:1023C000004CF0C212301207C2AF0075FBAA227592
:1023D000FB5500D2AF228F2CE52CB4190512044610
:1023E000F5FEEDF5FCECFFEFF5FD00852CFF0000A0
:1023F00000000000E5FF20E0FBE52CB41105E5FE40
:1024000012048C228B268A278928E4F52AF52BD200
:102410001271C5E4F529AE2AE52B7802C333CE3319
:10242000CED8F9918140EFAB26AA27A9287D03D108
:10243000BBAB26AA27A92890000312045FB5071397
:10244000052BE52B7002052AC394FEE52A648094CF
:102450008040C0D3E52B9400E52A64809480400836
:10246000E52B152B7002152AE4F529AE2AE52B7809
:1024700002C333CE33CED8F9918140EFAE2AAF2BD1
:10248000227C002529FDEC3EFCAB267E00E52825BC
:1024900029F9EE3527FA7F1171D60529E529C3946C
:1024A00004227B017A00792D910490004AEEF0A37A
:1024B000EFF07B017A00792D7D03D1BB900030E0F5
:1024C0006F704E90002FE0C330E101D3920C90006A
:1024D0002FE0C330E201D3920790002FE0C330E039
:1024E00001D3920890002DE0FFA3E0900018CFF0F8
:1024F000A3EFF0900030E090004CF090004BE0042F
:10250000F0700690004AE004F0D1EC400EB11F805C
:102510000AB148D208D2117106B170C21261C52049
:102520000825B148C2117106C21271C575266475BD
:102530004F067F0A7E0012118AB19AD1EC50021523
:1025400026E52670EDB18B22D1EFC208D20C12170E
:10255000F8B15D60054003D20722C207227F337EB7
:10256000337D8B7C40AB18AA17A916A8150202EC84
:102570007526FFC21271C5754F031526E526600B3F
:102580007F0A7E0012118AB19A80EFC2AF00759661
:10259000AA75965575978080FE22F1A1501790007C
:1025A00053E0C36480948C5005E004F0800CE49008
:1025B0000053F0C1A2E4900053F0E54FB40A00408C
:1025C00002C1A69025CAF82828730225E80225F240
:1025D0000225F702261A0225FC02261A0225FE020F
:1025E000265D02265D02265DC2B0C281E4900054E1
:1025F000F022C2B0D28122D2B0C2812280179000D4
:1026000054E0D1A77F8060027F00900054EFF0D1AA
:10261000A77002C1A2D2B0D28122C281900054E040
:10262000FF547FFEE54F7D00B403027D03C3EDD16F
:10263000B3500C0EEF5480900054F04EF080119087
:102640000054E0D1A77F8060027F00900054EFF03B
:10265000900054E0D1A7C36001D392B022900054FF
:10266000E0547FF0E54F64086005E54FB409047F4E
:102670000680027F0A900054E0FED3EFD1B34004FD
:10268000E4F54F22900054E0FF04F0EF75F00212E1
:102690000424AFF0EF600BE54FB40903D28122D2DE
:1026A000B022C2B0C281225480FF3395E04F229500
:1026B00026E5256480F8EE648098228B2C8A2D898B
:1026C0002E7FFFAB2C052EE52EAA2D7002052D14B2
:1026D000F912044662077E08EF30E70725E0640739
:1026E000FF8004EF25E0FFDEEFDDD822A2A6221254
:1026F0001FDC7F021235AAE5276007F199900018C8
:10270000807C900018E4F0A374C8F022121606B47E
:10271000020C90001AE0F525A3E0F526800B90004E
:10272000051204E6F52685F02590000EE0FEA3E0F4
:10273000FFD394BEEE6480948A400FD3EFD1AF40B4
:10274000028001D39214C2158004C214D215122C37
:102750002FE54FD394065025900043E060030235E7
:1027600052900001E0600302322190000CE07008FA
:10277000121606D3940140028032E4F54F22E5F0B0
:10278000F0A3EFF022E4900047121616F1999000A2
:1027900048F17EE4900046F0229000031204E6FF28
:1027A00022900001E06002C322A20522E5501460DD
:1027B0000E14600F1460102403700F754F01227502
:1027C0004F0422754F0222754F0322C2AF00759647
:1027D000AA75965553977F225388CF5389F0438922
:1027E00001E4F58CF58AF5CE75CB0B75CADB75CD9A
:1027F0005D75CC66F5C975CF8075A8A2C219C218DF
:1028000075C8912275C900B218301802D219325316
:1028100088EFD2173220A6037F0122E5B65440FF8D
:1028200022C0E0C0F0C083C082C0D075D000C0001C
:10283000C001C002C003C004C005C006C00712101A
:102840003975B600D007D006D005D004D003D00229
:10285000D001D000D0D0D082D083D0F0D0E032E50B
:102860004B6002D322E54AC36001D322201602D373
:102870002290000CE07006900002E06002C322117A
:102880005F4002C2161198118BC322E54B640160B0
:1028900002C322E4F54BD322E54A6009E54960050D
:1028A000E4F54AF54922E4FE74462EF8E630E724C2
:1028B000547FFDEE700B7C05300B027C02AF048070
:1028C000027F04EDC39F50010DE65480F674462E3E
:1028D000F8E64DF60EBE02D022D220E54730E703DF
:1028E000754780E54620E70375468022E54B700476
:1028F000E54A70037F0022AF4922E54BB40202D3C0
:1029000022C32212160F92F711FA72F7920F3007B4
:10291000051217B480047E077F0890001CE0FCA31A
:10292000E0FDC3912550028004AC06AD07AE04AFB4
:1029300005121617B14DFDC3EF9DE5F01226B350F9
:102940000C300F0931D24005EEF0A3EFF012160F54
:102950005026200A23900020E0600414F08059C320
:1029600031D2500EA3E004F07006900018E004F09D
:102970008040D20931E3803A11FA502E200A2B9080
:102980000020E0600414F0802F121617900003124C
:1029900017BD31D1400EA3E024FFF0900018E034C1
:1029A000FFF08004C20931E38008200F0B300A08D1
:1029B000C20A9000207405F0300F0790001F7420A9
:1029C000F02290001FE0B4010714F0C21112230698
:1029D00022D3900019E09FEE6480F8900018E06424
:1029E00080982290001E7404F0900018EEF0A3EF7F
:1029F000F0D20A229000147403F0900012F0E490D8
:102A00000043F090001EF01224A27B007A0079258A
:102A10007F021235AA8B4C8A4D894EE52560439082
:102A200000051204E6FF90001A12277E30070512F7
:102A300017BA80047E077F08123897900003121798
:102A4000BDC331D25005EEF0A3EFF012388E31D174
:102A50004005EEF0A3EFF0754CFF754D09754E740F
:102A600080047F075182E4900013F0C20BC206C2BB
:102A700009C20D9000207405F01236F01237BC0226
:102A80002785900043EF121605640160057F01124F
:102A9000169222E51D6072A20492107525377526E4
:102AA00028710E9204A200921075253275262871A5
:102AB0000E9200A2019210752541752629710E9281
:102AC000013001067F065182800A900043E0B4067F
:102AD0000312351D121617D1417003C20322A2033F
:102AE000921075252E752623710E920F300F03D28A
:102AF0000322200F18900038E07002A3E0700E90BF
:102B00000035E030E707C203227F05518222AF255E
:102B1000EF3395E0FED3910A4002D322AF26EF3384
:102B200095E0FEC3910A5002C322A21022B14A408E
:102B300006E4900045F022900045E0C39404500460
:102B4000E004F022900044E0540FF5257F337E33FB
:102B50007D8B7C40AB14AA13A912A8111202EC6061
:102B60000640047F035182E4FFFE7D807CBF123863
:102B70008512005571FF50097D0271E9E4F5268048
:102B80003A7F9A7E997D317C4171FF500771E775DC
:102B900026028027E4FFFE7D887C4171FF600940AA
:102BA0000771E77526018013D3E525648094804082
:102BB00006E52514FF80027F008F25E526C454F02A
:102BC0004525900044F0C3E525648094884017E0D3
:102BD000C4540F24FE60070470087F0480067F0140
:102BE00080027F025182227D01AF2571F08F252264
:102BF000C3EF648094885004EF2DFF227F0822AB3E
:102C000010AA0FA90EA80D0202ECE50A9FEE64803F
:102C1000F8E50964809822FFE43527FE90000EE075
:102C2000FCA3E0FDD39FEE6480F8EC648098221250
:102C300016066407600875270E75284280067527FA
:102C40000D7528DEE55014602014603A146051249C
:102C500003705EC390000FE09528E5276480F812AA
:102C6000176598504C75500122E52824FA911740B9
:102C700003E4F550E5282438FFE52734FFFEC3EDD3
:102C80009125502D8028E528243291174003755056
:102C900001C3ED9486EC6480948B5015755003222B
:102CA000D390000FE094E4121765948C40037550A4
:102CB00002228D287E0211FA5004D20F80051216CE
:102CC0000F920F20150F7E0A301403300F07E49087
:102CD0000055F08002D1E5900055E0D39E4018EFFA
:102CE00060028006300F0630150302173FE49000A3
:102CF00055F0AF2812169222121606B40A02800965
:102D000012160F400A11FA4006E4900017F02290C4
:102D10000017E0FF541FFE7012EF20E60E11FA7D3F
:102D20008050027D20EF4D900017F0900017E05486
:102D3000E0F0C3EE648094865007E020E6030E8046
:102D400002E4FE900017E04EF022A21E2290000145
:102D50000204E68E2F8F30121617D14170028024A4
:102D6000121617B14DFBAAF0D169900038E03EC3AE
:102D7000EB9530FFEA952FFE900038F0A3EFF0EED0
:102D800030E704E4120024E4900035F0A3F022B10F
:102D9000B8D14740028016B1B8D150EF94C0EE646C
:102DA0008094837E0050047F0180027F00EF4E708C
:102DB00006D169D161B18722900035E0FEA3E0FF22
:102DC000228D2CA907E9600CE50A24D1FBE5093422
:102DD000FFFA800AC37428950AFBE49509FAEA30E1
:102DE000E703E4FAFBB1B8D14740028022B1B8D181
:102DF00050E49BFD747D9AFCC3EF9DEC1226B3500A
:102E00000AE52C60067E007F0180047E007F00EFD3
:102E10004E6009EB25E0FBEA33FA8003E4FAFB0B92
:102E2000BB00010AE96006AE02AF038007C3E49B62
:102E3000FFE49AFE900036E02FF0900035E03EF07F
:102E40002290000802045FD39400EE6480948022F4
:102E50007CFF7DFF12049EC32212049E900039E085
:102E60002FF0900038E03EF022900035E0FEA3E025
:102E7000FF7C007D101204B0900039E02F22200367
:102E800006D1DDFFC20522D169FF900038E03EFE89
:102E900030E703E4FEFF900040E0FCA3E0FDC39FA9
:102EA000FFEC9EFEC3EF9486EE648094815014ED97
:102EB000247AFEEC34FE900038F0A3CEF0B1877E89
:102EC000017F86900041E02438FD900040E034FF0F
:102ED000FCC3EF9DEC1226B35002D20522900040B5
:102EE000E0FEA3E022900055E0700204F0223014CE
:102EF00002E187301502E187E4900055F0E550606B
:102F000002E1E2121617B14DFFC390001DE09FE5EC
:102F1000F0F1E398506B900056E0FF700404F080ED
:102F200008EFC394095002E1E29000567401F0905A
:102F300000051217BDD390001BE09FEE6480F8904F
:102F4000001AE06480984007EEF0A3EFF0800E9046
:102F5000001BE02432F090001AE03400F01217B4A5
:102F6000D390001DE09FEEF1E3984006EEF0A3EF52
:102F7000F02290001DE024FAF090001CE03400F0F4
:102F800022E4900056F022E4900056F0D1E530158E
:102F90000C900055E0D39404400302173F90005575
:102FA000E0D3940A403CD390001DE094F4F1E69401
:102FB00081400CA3E02406F090001CE034FFF0D325
:102FC00090001BE0942290001AE06480948B400CE7
:102FD000A3E024E7F090001AE034FFF0900055746D
:102FE00001F0226480F890001CE0648022E54B141C
:102FF000FFD3648094804001227F0022439A3C43A7
:10300000A11043A23043A3045380C35390EF53A0B5
:10301000CF53B0FB90F00AE054C3F0A3E054C3F0E8
:1030200090F01AE054EFF0A3E054EFF090F02AE0B3
:1030300054CFF0A3E054CFF090F03AE054FBF0A36B
:10304000E054FBF022900040E0FAA3E0FBD39400B0
:10305000EA648094804017122E7E8E258F26122ED1
:10306000DDFFC31226AF500A8E258F2680048A25E5
:103070008B26316465267003EE652570022163D3CB
:10308000E5269400E525648094805002214CE526D5
:103090009FFFE5259EFED3EF9458EE648094824016
:1030A00002D21D201D02212790003EE07002A3E005
:1030B0007022C3E5269458E5256480948290003EF2
:1030C0005009E525F0A3E526F080497402F0A374C9
:1030D00058F08040121606FFB40C1090003FE02418
:1030E000E8F090003EE03403F08029EFB40810903F
:1030F000003FE02490F090003EE03401F080159015
:10310000003FE0300B04243280022402F090003EA5
:10311000E03400F0C390003FE09526E525120C64F2
:1031200098400EC21D800390003EE525F0A3E526E1
:10313000F0201E0BD2937F057E0012118AD21E3121
:1031400064121DDE90003A1206B28015C293900000
:103150003A1206BE00000000C21EE490003EF0A33A
:10316000F0D21A2290003EE0FEA3E0FF2290000180
:103170007401121605600DE54F600690000074089A
:10318000F0E4F54F22E51D6024900001E0701E314F
:103190006DD213E50AAE0930E707FF7CFF7DF680AC
:1031A00006AF0A7C007D0A12049E121FE322E5503E
:1031B000B40306121606B40807E490000DF080135D
:1031C00090000DE0FF700404F08008EFD394744089
:1031D00002D322C322900002E030E0057F011212E8
:1031E0008790000CE07008900002E0600214F0226A
:1031F0008F278D28900000E030E708121287E490B6
:103200000000F0900000E0FF7E0030E102AE278E6B
:103210004FEF700CF54F900000740AF0A3E528F012
:1032200022900001E014B40B00400261809032351E
:1032300071AFC583730232560232660232B6023271
:10324000BC0232D80232DE0232F902334C0233645D
:103250000232FF023310900000E060026180740FC0
:10326000F0A37402F022917E8F4F900000E0600284
:103270006180900010E0FEA3E0FFD394E7EE64804D
:10328000948340277C007D0A1204B0D3ED9404ECB3
:1032900064809480400BE0240AF0900010E0340039
:1032A000F071817D0A1204B0121FE371817D6412F6
:1032B00004B07D0380417D047F02804171817D6483
:1032C0001204B0900010ECF0FEA3EDF0FF7C007D46
:1032D0000A1204B07D05801F7D067F04801F301315
:1032E00009900000740AF0A3F02271817D0A120493
:1032F000B0AE04AF057D0761977D087F0121F09096
:103300000000E0707BA3740BF0900000741FF022AB
:10331000900000E0FFC394195026EF54F86021C3D9
:10332000E50A942D71905005754F018016C3E50A8A
:10333000943771905005754F048008754F028003D3
:10334000E4F54F900000E07037A38014900000E097
:10335000702E121606700690000C7412F090000188
:103360007409F022C213E4900010F0A3F090000C56
:10337000E060030227AC122FEDEF7004900001F023
:1033800022900010E0FEA3E0FF7C0022E50A942ECC
:10339000E5096480948022900000E07011EF4E7087
:1033A000057480F0800371B8F0900001EDF0227593
:1033B000F003A4C58325F022EF25E025E01490005A
:1033C000002290004EE024FE606D147002815F14B4
:1033D0006023240360028172900000E0FED3940613
:1033E00040037F0122EE6002817290004FF0900056
:1033F0004DF0A3807A9175FF642D6004EFB420171F
:1034000090004E7403F0EF900000B42D057424F08A
:10341000801D7414F080189175540FFF700890008F
:103420004D7432F0800371B8F090004E7402F09049
:10343000004FE004F0803B90004DE07019900000D8
:10344000E0FF700B740CF090004E7403F08023EFDB
:1034500030E11F7F012290004DE014F07F012290A7
:103460000000E0700D917590004E7003F0800374C1
:1034700004F07F002290004FE090002E93229000F5
:1034800000E0FFD39409403AEF24F8C31314FF304F
:103490001307E50A20E7020F0F201313D390001142
:1034A000E094E7900010E06480948340020F0FEFF7
:1034B0003395E0FE74032FF58274003EF583E493A8
:1034C000FF227F0022900003747FF0A374FEF0A31C
:1034D0007480F0A37402F0E490000BF090000712E7
:1034E00006BE0000000022900056E06008C3940968
:1034F0005003E004F0900055E06008C3940B5003C3
:10350000E004F022E4FFEF90000893FE900043E017
:10351000FDEEB50502C3220FBF03EBD322E49000FA
:1035200043F0FF021692900043E0FF7005900042C6
:10353000F022900042E004F0B149EF240FFFE43E96
:10354000FEE0B1A04002E4F0227E007C007D060295
:10355000049E900042E0FFC39405500BEFC3940318
:10356000503AEF04F54F22900043E0FFB149EF24B9
:1035700005FFE43EFE900042E0FDB1A0501EED24A8
:10358000FBFFEC34FFFE7D031204B07C007D0212D1
:1035900004B0ED4C7004754F02228000E4F54F2218
:1035A000C39FEE6480F874809822E412048CFEEECF
:1035B00075F00EA42474F582E43409F583E493B520
:1035C0000707740112048C80040EBE0DE2AF06EFF3
:1035D00075F00EA42474F9740935F0FA7BFF22907B
:1035E000001FE054FE6003E014F090001EE060074E
:1035F00014F0E07002C209900015E07002A3E060D0
:103600000E900016E024FFF0900015E034FFF090DB
:103610000013E0600214F02290004EE0700804F005
:10362000900000740FF022900001E0700690004EB0
:10363000E060037F012212160654FE7F0060027FC5
:103640000122900057E07005EDF0A3EFF02290000A
:1036500058E0B40700506390365EF82828730236AD
:103660007302367E02369A0236A00236AF02367EEA
:103670000236B5E4900057F07D0B7F01803A7F025F
:10368000D1BD50037F0122900058E0B401067D07B0
:103690007F0280247D237F06801E7D237F03801888
:1036A0007F06D1BD50037F01227D077F0480097D05
:1036B0000B7F058003E4FDFFD1427F0022AB07EBC7
:1036C0003395E0FEEF25E0FDEE33FC900057E0FF80
:1036D0003395E0FE1204B0EB14D36480F8ED6480FF
:1036E000984002D322C322900057E0600214F022D7
:1036F000E4900058F0900057F022900046E06002FD
:1037000014F0223007051217B480047E077F08905A
:103710000047E014603214603E14607624036002B7
:10372000E1A1C3F1AB5013A3E004F0700690004890
:10373000E004F0F1AA406AEE80449000477401F082
:103740009000467404F08059900046E06001229099
:1037500000477402F0804A1216179000031217BD3A
:10376000F1AA4020A3E024FFF0900048E034FFF0ED
:10377000C3A3F1AE502B122799900048E5F0F0A3B7
:10378000EFF0801D9000477403F09000467428F01D
:10379000800F900046E06004E4FEFF22E4900047C2
:1037A000F0900048E0FEA3E0FF22D3900049E09FA4
:1037B000EE6480F8900048E0648098229000507495
:1037C00001F0E4900052F09000517418F022900043
:1037D00051E0600214F022900050E0601724FE6077
:1037E0002214603C24027042900051E0D3940040C7
:1037F000217F02229000527446F09000507402F033
:103800007F0122900052E014F0E0D3940040037F47
:1038100001229000517418F09000507403F0800A57
:10382000900051E07004900050F07F0022EDF4F51C
:103830008275830085832A85822B85832C85822D42
:10384000ED22F4F58275830085832E85822F858392
:103850003022A3E0FBE5314BFD22A3E0FBE52F4B3B
:10386000FD22E0FBE52D5BFD22E0FBE52D4BFD227B
:10387000E0FBE5335BFD22A3E0FBE5334B22A3E055
:10388000FBEF4BFD22AB18AA17A916A81522900032
:103890001CE0FEA3E0FF2290001CEEF0A3EFF0225C
:00000001FF
