:100000000207440204010402040203022AECC114A0
:10001000C117410049004100500041004F00001F3E
:10002000080D00F0AB4CAA4DA94E22022AE1323550
:100030002030392033302D313120313900E0FBE5DB
:10004000315BFD22E0FBE52F5BFD22021923020458
:100050000FE86480F8E933E83360110460F0ED33B1
:10006000EC337009E8FCE9FDEAFEEBFF220460DEF8
:10007000D3EB9FEA9EE99DE8C2E78CF0C2F795F0CA
:10008000400CE8CCF8E9CDF9EACEFAEBCFFB12034D
:10009000DA85D0F05804700320D5B3E80470075017
:1000A00002B2D502041992D5EC0460F7E4CCC0E0AA
:1000B000C398F8603B94186008400DD0E0FB020341
:1000C000F1E4FBFAC9FC8028E830E406E4C9FBE46B
:1000D000CAFCE830E305E4C9CACBFCE85407601069
:1000E000F8C3E913F9EA13FAEB13FBEC13FCD8F1AC
:1000F00030F52FC3E49CFCEF9BFFEE9AFEED99FDDB
:10010000D0E0FBEF4E4D4C701222DB03020416ECE4
:100110002CFCEF33FFEE33FEED33FDED30E7EB0269
:1001200003F1EF2BFFEE3AFEED39FDD0E0FB50136B
:100130000BBB0003020419ED13FDEE13FEEF13FFDA
:10014000EC13FC0203F1EC4D6011E8497017ED333C
:10015000EC3304600DE4FCFFFEFD22E933E83304D8
:1001600070F802040F1203DA58046009E4CC248109
:100170005006285009020419284003020416C0E062
:10018000EB4A7044B98006D0E0FB020405EF4E70E4
:100190001CBD8008EBFFEAFEE9FD80EBE98DF0A4D1
:1001A000FEE5F002022FE9CDF9EAFEEBFFEF89F060
:1001B000A4FCE5F0CE89F0A42EFFE435F0CD89F063
:1001C000A42DFEE435F08067EF4E7005BD80D7802A
:1001D000C3EF8BF0A4ACF0EE8BF0A42CFCE435F074
:1001E000F8EF8AF0A42CE5F038FCE433CB8DF0A4D2
:1001F0002CFCE5F03BF8EE8AF0A42CFCE5F038F896
:10020000E433CF89F0A42CFCE5F038CF3400CE895C
:10021000F0A42FFFE5F03EFEE433C98DF0A42EFEDE
:10022000E5F039CD8AF0A42FFFE5F03EFEE43DFD78
:1002300033D0E0FB50070BBB000F020419EC2CFC81
:10024000EF33FFEE33FEED33FD0203F1020419EC50
:100250005D046005E85904700302040F1203DA58C4
:100260000460F6EC4860F2EC7004FDFEFF22C8600A
:10027000DB2481C85009C398600250060204169816
:1002800050CAF582E9294B4A7005AB820204057514
:10029000F0007C1A7880C3EF9BEE9AED99400DC375
:1002A000EF9BFFEE9AFEED99FDE842F0DC23ACF007
:1002B000D0E0FFD0E0FED0E0FDAB8220E7101BEBEA
:1002C00060BAEC2CFCEF33FFEE33FEED33FD02039E
:1002D000F1E803F830E705C0F075F000EF2FFFEE0E
:1002E00033FEED33FD40B830E7C280AA74F8CC6429
:1002F00080CCC86480C8F58204604FC3EB9FF5F0E2
:10030000EA9E42F0E99D42F0E89C45F0603C501DB9
:10031000E5825FFFE582D313CB5BCBF42B5582FBE9
:1003200050280ABA002409B9002008801DE5825B24
:10033000FBE582D313CF5FCFF4C3132F5582FF5059
:10034000090EBE00050DBD00010CC3EB9FF5F0EAE0
:100350009E42F0E99D42F0E89C45F06007CC4820C1
:10036000E701B3EC2275F020800E75F01080057562
:10037000F0087D007E007F003392D530D503120651
:100380005AEC334010EF33FFEE33FEED33FDEC3328
:10039000FCD5F0ED22E5F0247EA2D513CC92E7CD7A
:1003A000CEFF22EDD2E7CD33EC3392D52481400647
:1003B000E4FFFEFDFC22FCE4CFCECDCC24E05011C6
:1003C00074FF80EDC3CC13CCCD13CDCE13CECF13A1
:1003D000CF0470F030D5DE02065AE9D2E7C933E81F
:1003E00033F892D5EDD2E7CD33EC33FC5002B2D5E1
:1003F00022EC30E7100FBF000C0EBE00080DBD0050
:10040000040BEB6014A2D5EB13FCED92E7FD227414
:10041000FFFCFDFEFF22E480F8A2D574FF13FC7DF3
:1004200080E480EFC2D530F707B2D563F0FF05F066
:1004300030E70CB2D5F4048463F0FF05F08001844A
:1004400030D502F40422BB010689828A83E022505F
:1004500002E722BBFE02E32289828A83E49322BB65
:10046000010CE58229F582E5833AF583E022500606
:10047000E92582F8E622BBFE06E92582F8E222E5BC
:100480008229F582E5833AF583E49322BB0106894C
:10049000828A83F0225002F722BBFE01F322EF8D05
:1004A000F0A4A8F0CF8CF0A428CE8DF0A42EFE22CC
:1004B000C2D5EC30E709B2D5E4C39DFDE49CFCEE67
:1004C00030E715B2D5E4C39FFFE49EFE1206EFC3EA
:1004D000E49DFDE49CFC80031206EF30D507C3E4E5
:1004E0009FFFE49EFE22BB0110E58229F582E58391
:1004F0003AF583E0F5F0A3E0225009E92582F88679
:10050000F008E622BBFE0AE92582F8E2F5F008E2EF
:1005100022E5832AF583E993F5F0A3E99322BB0151
:100520000A89828A83F0E5F0A3F0225006F709A732
:10053000F01922BBFE06F3E5F009F31922E88FF06B
:10054000A4CC8BF0A42CFCE98EF0A42CFC8AF0ED5A
:10055000A42CFCEA8EF0A4CDA8F08BF0A42DCC380E
:1005600025F0FDE98FF0A42CCD35F0FCEB8EF0A446
:10057000FEA9F0EB8FF0A4CFC5F02ECD39FEE43C00
:10058000FCEAA42DCE35F0FDE43CFC2275F00875A4
:100590008200EF2FFFEE33FECD33CDCC33CCC582BE
:1005A00033C5829BED9AEC99E58298400CF582EE7A
:1005B0009BFEED9AFDEC99FC0FD5F0D6E4CEFBE462
:1005C000CDFAE4CCF9A88222B800C1B90059BA002A
:1005D0002DEC8BF084CFCECDFCE5F0CBF97818EF85
:1005E0002FFFEE33FEED33FDEC33FCEB33FB10D786
:1005F00003994004EB99FB0FD8E5E4F9FA22781847
:10060000EF2FFFEE33FEED33FDEC33FCC933C910A1
:10061000D7059BE99A4007EC9BFCE99AF90FD8E0D3
:10062000E4C9FAE4CCFB2275F010EF2FFFEE33FEA5
:10063000ED33FDCC33CCC833C810D7079BEC9AE818
:1006400099400AED9BFDEC9AFCE899F80FD5F0DA99
:10065000E4CDFBE4CCFAE4C8F922C3E49FFFE49EB6
:10066000FEE49DFDE49CFC22EB9FF5F0EA9E42F047
:10067000E99D42F0EC6480C864809845F022EB9FCD
:10068000F5F0EA9E42F0E99D42F0E89C45F022E850
:10069000600FECC313FCED13FDEE13FEEF13FFD858
:1006A000F122E493FC740193FD740293FE740393AE
:1006B000FF22ECF0A3EDF0A3EEF0A3EFF022A8826E
:1006C0008583F0D083D0821206D51206D51206D5C6
:1006D0001206D5E473E493A3C583C5F0C583C8C5EA
:1006E00082C8F0A3C583C5F0C583C8C582C822BC33
:1006F000000BBE0029EF8DF084FFADF022E4CCF8B2
:1007000075F008EF2FFFEE33FEEC33FCEE9DEC9816
:100710004005FCEE9DFE0FD5F0E9E4CEFD22EDF89C
:10072000F5F0EE8420D21CFEADF075F008EF2FFF3F
:10073000ED33FD4007985006D5F0F222C398FD0F27
:10074000D5F0EA2278FFE4F6D8FD9000007F007E25
:1007500004E4F0A3DFFCDEFA758150020799020A77
:100760002AE493A3F8E493A34003F68001F208DFA0
:10077000F48029E493A3F85407240CC8C333C45469
:100780000F4420C8834004F456800146F6DFE4801D
:100790000B010204081020408090000EE47E0193BB
:1007A00060BCA3FF543F30E509541FFEE493A360EF
:1007B000010ECF54C025E060A840B8E493A3FAE44A
:1007C00093A3F8E493A3C8C582C8CAC583CAF0A39B
:1007D000C8C582C8CAC583CADFE9DEE780BEC2D504
:1007E000E830E70FB2D5E4C39BFBE49AFAE499F949
:1007F000E498F8EC30E717B2D51208141205C8E4F3
:10080000C39BFBE49AFAE499F9E498F88003120593
:10081000C830D50DE4C39FFFE49EFEE49DFDE49C3B
:10082000FC220012002B0010DBD6000FCC1E000EA5
:10083000CF6C000DE44B000D0965000C3D80000BF2
:100840007F7C000ACE50000A290700098EC30008E9
:10085000FEB50008781F0007FA52000784AE0007B3
:10086000169D0006AF9700064F1C0005F4B8000562
:100870009FFE0005508B000506020004C00D000419
:100880007E5D000440A9000406AC0003D0270003ED
:100890009CE100036CA100033F37000314720002C7
:1008A000EC280002C62F0002A2630002809F000213
:1008B00060C3000242B10002264C00020B7B000123
:1008C000F2230001DA2E0001C3870001AE190001F6
:1008D00099D2000186A0000174720001633A000100
:1008E00052EA00014372000134C8000126DF000112
:1008F00019AC00010D2500010141F5F5EB3AE107C6
:10090000D755CE1DC558BD00B50EAD7FA64C9F7006
:1009100098E792AC8CBB871181AA7C82779772E4AE
:100920006E676A1E6606621C5E5F5ACB575F54197B
:1009300050F84DF84B1A485A45B8433340C83E77F3
:100940003C3E3A1D3812361D343B326D30B22F0812
:100950002D6F2BE62A6C290127A42655251323DDAC
:1009600022B22193207F1F751E7500000000000039
:100970000000000000000000000000010001000075
:100980000000010000000000000000000000000066
:10099000020BB801900C800001010200000003026C
:1009A0005800000B22010101030204000404B000FE
:1009B000000BB80101010301050305070800000C45
:1009C0001C010101040106040609C400000C800199
:1009D00001010501030507100400000D16000100C8
:1009E0000700000608032000000B22000100080297
:1009F0000B0C0900C800000B2200000109020300D3
:100A00000A100400C80D16000101090200000B0BBA
:100A1000B800A00BB80001000B020C080C0BB800CA
:100A2000000BB80001000C02080BC20F121FF912D4
:100A30002AB512161112122212303B122416D211AC
:100A4000121372122FF2C2201214101232811211DC
:100A50007E1236135199121DE61226C8301AE9206B
:100A60000F191219E412369E1236E3122D54123366
:100A7000D11212751238D4D20F801A122B8412217F
:100A80001E12335B1237B61226371238C1121D7A86
:100A90001238EFC20FC21A80AF122B4A4002C14671
:100AA000122BC58F25900014E0FFC394034006EF7E
:100AB000D3940640069000147403F012002412042C
:100AC00046F52690004FE06002817DE52614700215
:100AD0008113147002812224FB7002814024FD7076
:100AE00002816B240A6002817D30012AE525B4056C
:100AF00019754F09C2011230E8948B40069000131B
:100B00007405F0C212121B39817D122B3D40028107
:100B10007D754F07817D200713122B69500E12300F
:100B2000E9948B4076121FABD207810E3007091271
:100B300023FD4004C207810EE52514B408004002DD
:100B4000810E900B4B122FE9C58373020B63020CCD
:100B50000E020B6D020B7D020BA0020BAA020BF31F
:100B6000020C0B900014E0FF1230F6810E12334A93
:100B70001230EF948A40047F08801B801E20081BDF
:100B8000D390000FE094161230EF948D400D12397F
:100B90008AF0D2057F0A121F168073754F07806E88
:100BA00020016B754F08D201805A1214FF60064075
:100BB00004D2008007D3300001C392002000077FD9
:100BC000041213DA80031233EC200025D3900019AD
:100BD000E09408900018E064809487400312398301
:100BE000D390001DE094081225B494874003123975
:100BF000838011D3300601C392067F023006027F44
:100C0000011213DAC212121B3980031237EF1230AD
:100C1000AC806A1236BB4065122B695060121FE827
:100C2000805B300713E490001EF01223FD400C128D
:100C300025BB4007C207800312232C1224B7803D36
:100C4000300C077F031230F68033E5256402702DE7
:100C5000900012E0B409047F038005900012E0FFC9
:100C60001230F69000127403F08012200C0A9000EB
:100C700015E07002A3E07005D207121F6E12002467
:100C8000120446B5260B90004FE07005AF251231D7
:100C90007A122B76200014120024120446FF6406F8
:100CA0006004EFB407057F031230F630050C120024
:100CB00024120446640A6002C205900013E0600238
:100CC000805790004FE0601012341EEF7E006004E9
:100CD0007F64C1177F00C1171233A7500B900045E6
:100CE000E4F0A3741EF0C11A12002412044624FE7C
:100CF0007002A1B924FA7002A19B24FE6050146016
:100D000036146002A1F4D20E1238F8EF24FE600906
:100D100024027010123056C11A900045E4F0A374FA
:100D2000C8F0C11AC20E30000812002412230F802E
:100D3000047E077F08C117122229123963D3948ACF
:100D4000EE6480948240028001D3920EC11A20008A
:100D5000161223FD50067E077F08801E1200249085
:100D6000000312231280131223FD12002450059059
:100D70000001800390000312231212396312002431
:100D8000122692900045E0B5F009A3E0B50704D221
:100D90000EC11A12398AF0C20E807F123828EF6015
:100DA0000812002412230F80047E007F0012396392
:100DB0004EC37001D3920E8061C20E1227EC9000D8
:100DC0001812277D9000454007EEF0A3EFF0800554
:100DD000ECF0A3EDF090001EE0603F300210121F17
:100DE0000E7802CEA2E713CE13D8F8FF80047E005F
:100DF0007F1E802312002412230FD39401EE6480FF
:100E000094804011900046E094C212397C94815045
:100E100004D20E8002C20E123963200011D390005A
:100E200046E0940812397C948740031239833000DD
:100E300015D3900046E0940412397C9490400774D6
:100E400010F0A37404F022FFD1507B007D027F03D9
:100E50008F29120446FF14601514602814603D1495
:100E6000603A2404705B12394E12396C80291239B1
:100E70004EF5827401F52E85822FE582F4F5827598
:100E80003000801312394EF4F582752E0085822FC2
:100E9000EDF5827401F5308582318025ED12396CD3
:100EA000858231EDF5827401F52A85822BEFB40439
:100EB00007EDFF7401FE8005EDF4FF7E008E2C8FA0
:100EC0002D90000112045F7007EDFF7401FE800594
:100ED000EDF4FF7E008E328F3390000212045F70BB
:100EE00007EDFF7401FE8005EDF4FF7E00E5291497
:100EF0007002E18A14700302100C1470030210884F
:100F00002403600302110EE52AAB9A30E006E52BBC
:100F10004BFD8004E52B5BFD8D9AE52C30E00890BD
:100F2000F009121160800690F00912115990F00931
:100F3000EDF0E52E30E00512116F800690F00A12F8
:100F4000004490F00AEDF0E53030E00512116780C2
:100F50000690F00B12003D90F00BEDF0EE30E00546
:100F6000121213800890F00CE0FBEF5BFD90F00C88
:100F7000EDF0E53230E00512121A800690F00D1205
:100F80001177AF0590F00DEDF022E52AABA130E02E
:100F900006E52B4BFD8004E52B5BFD8DA1E52C3098
:100FA000E00890F019121160800690F019121159A2
:100FB00090F019EDF0E52E30E00512116F800690EB
:100FC000F01A12004490F01AEDF0E53030E005120E
:100FD0001167800690F01B12003D90F01BEDF0EEC3
:100FE00030E005121213800890F01CE0FBEF5BFD6F
:100FF00090F01CEDF0E53230E00512121A800590F9
:10100000F01D3177AF0590F01DEDF022E52AABA27F
:1010100030E006E52B4BFD8004E52B5BFD8DA2E562
:101020002C30E00790F0293160800590F02931598B
:1010300090F029EDF0E52E30E004316F800690F05D
:101040002A12004490F02AEDF0E53030E0043167D8
:10105000800690F02B12003D90F02BEDF0EE30E08A
:10106000045113800890F02CE0FBEF5BFD90F02C16
:10107000EDF0E53230E004511A800590F02D317723
:10108000AF0590F02DEDF022E52AABA330E006E5A8
:101090002B4BFD8004E52B5BFD8DA3E52C30E00799
:1010A00090F0393160800590F039315990F039ED88
:1010B000F0E52E30E004316F800690F03A120044E3
:1010C00090F03AEDF0E53030E0043167800690F0C2
:1010D0003B12003D90F03BEDF0EE30E008A3E0FD68
:1010E000EF4DFF800890F03CE0FDEF5DFF90F03C9D
:1010F000EFF0E53230E009A3E0FDE5334DFF800974
:1011000090F03DE0FDE5335DFF90F03DEFF022EF24
:1011100014600E14600F1460102403700FED42ACC5
:1011200022ED42AD22ED42AE22ED42AF22EF14603D
:10113000111460151460192403701CE5AC5D601770
:10114000D322E5AD5D6010D322E5AE5D6009D32208
:10115000E5AF5D6002D322C322E0FBE52D5BFD22FB
:10116000E0FBE52D4BFD22A3E0FBE5314BFD22A387
:10117000E0FBE52F4BFD22E0FBE5335BFD227D40EC
:101180007F02312D403990005AE0FF25E0F030A673
:1011900003E004F090005AE0FCF46003EC7020518E
:1011A0005EE4F5B6BCFF03C38001D392217B01BC92
:1011B000FF027B027D067F021219607D40310F30F5
:1011C0002108E54730E7037547807F822005027FCD
:1011D00085AC07302126E546B50421D3E549648076
:1011E0009480400CAF49EF3395E0FE122BB7800995
:1011F000E4F549754B01754801E4F546202113E5F6
:1012000047B4840EE4F547E5487004754A0122E4CA
:10121000F54822A3E0FBEF4BFD22A3E0FBE5334BB7
:10122000FD22752501E4F526F527FB7D067F02B139
:10123000A67A0079257D40120E507D407F02310F45
:101240007B027D0612196043B904515E90005A7406
:10125000FFF0E4F546F547F549F54AF54B22120053
:1012600024120446B40107751E00751FF022751E76
:1012700000751F28221237FEEF6002515ED3E51F72
:101280009400E51E94004009E51F151F7002151E0D
:1012900022F19843870443870200000000000012F7
:1012A0002B31EF6025122AB512191012181C7F017C
:1012B0007E0051E2317E301A0AC21AB21030100399
:1012C000122B84122B3D50E68102E5256004152582
:1012D0008005B13C75250BE51F451E60B6227F0ACF
:1012E0007E008E298F2AE4F52FE52A4529607905AD
:1012F0002FAE29AF2A12220BE47BA07A0FF9F81245
:10130000053D7169C007AF2FAB07E4FAF9F8D007C4
:101310001205C87169E47FFF7EFFFDFCAB2EAA2D8C
:10132000A92CA82BD312067E50C5C374FF952EF5A9
:101330002E74FF952DF52DE4952CF52CE4952BF5C9
:101340002BAF2EAE2DAD2CAC2B780812068F8F8CC8
:10135000E52EFF8F8AC218438810E58820E5033008
:1013600018F85388CFD52FD9228F2E8E2D8D2C8C07
:101370002B2275260A1235217F9A7E997D097C41A0
:10138000B107600940077F03121F98801091FF602A
:101390000C400A200007D200C212121B39E4900050
:1013A00001F0F1DC1239941231FAD526F530112909
:1013B00012002412044670213000167F0471DA7F77
:1013C000C87E0051E27F0471DA75263051DED526E1
:1013D000FBD21790000C7412F022EF24FE600E2452
:1013E000FE60102403701AC2B0D281800AD2B0C24B
:1013F000818004D2B0D2817F147E0051E2C2B0C29B
:101400008122D11112303B9110C2117172C220227F
:10141000E508B40303E4F508E50814603814700225
:1014200081A214700281E12403600281DED212B134
:1014300012E4F52AAF2AEF3395E0FE741F2FF582F0
:1014400074003EF583E493FD91F4EDF0052AE52A5E
:10145000B404E181D9E4F52A91EDE0FFC3648094FE
:1014600080400FD3EF64809496400EEF6480949F89
:101470005007052AE52AB404DFC3E52A6480948472
:10148000501B91EDE0F529640D6004E5297004C25C
:1014900012B112AF291220067508028044750803A4
:1014A000803F752E00752F00753029121FD1122034
:1014B0007CEF4E602C85270B85280CAD29AF28AE1C
:1014C000271227F5E4F52A91EDE0B5290591F4748A
:1014D000FEF0052AE52AB404EE7508018003E4F560
:1014E00008302008E50864036002811022AF2AEF6B
:1014F0003395E0FE74212FF58274003EF583227F40
:10150000337E337D8B7C40AB18AA17A916A8150231
:1015100002EC53DE7F007F002012027FA090F69243
:10152000EFF00043DE802212269AC201D20691100B
:1015300091FF60054003D20022C20022B15AF1DCC3
:10154000123994C39454EE6480948B500512354A3A
:10155000D115D146E4F51EF51F22E4F526F527F551
:1015600028FB7A0079267D01120E477B007D047FDF
:1015700002120E507B017D027F02B1A6E4B19F757D
:10158000DF4075DE60E4F5E9F5D1F5D375D50F756B
:10159000D4FF90F69274A0F012205C43DE8022FD0E
:1015A000FFB1A60D7F03EB64026065EB640360602E
:1015B000EB6419605BEBD3941C5055EF1460151469
:1015C000602314603124037047EDD394055041ED3E
:1015D0002400802BEDD394075036EDC394034030A4
:1015E000ED2410801AEDD394065025EDC3940140EC
:1015F0001FED24208009EDD394065014ED2430F51E
:101600002AE434F0F529EB541F852A82852983F0DA
:1016100022B15AF126752603E4F527752801C2B0D8
:10162000C281FBFD7F03B1A6E40DFFB1A67A00796C
:10163000267F03120E507B007D02E4FF120E50E461
:10164000122AF9F54F22E4F5DE90F692F012205CB2
:10165000E4FBB19F752603E4F527F5287A00792687
:10166000120E47C2117D017F03D170C211E41DFF2C
:10167000EF14603614605F147002E102240360020C
:10168000E125EDD394054002E12530110EA8057443
:1016900001088002C333D8FC428022A805740108E7
:1016A0008002C333D8FCF4528022EDD394075075E6
:1016B000EDC39403406F30110EA805740108800239
:1016C000C333D8FC429022A8057401088002C333BA
:1016D000D8FCF4529022EDD394065049EDC3940106
:1016E000404330110EA8057401088002C333D8FCB2
:1016F00042A022A8057401088002C333D8FCF4522A
:10170000A022EDD39406501D30110EA805740108D7
:101710008002C333D8FC42B0221219088002C333BE
:10172000D8FCF452B02212305EC2A3F1F37D087FE0
:1017300002120E5090F120E4F0A304F090F123F097
:1017400090F12A74FFF090F122E4F090F12704F078
:10175000A3F090F160E4F090F165F090F16404F092
:1017600090F131741FF090F130743FF090F141E44A
:10177000F090F140F090003F1206BE00000000C261
:101780001DC21B90F166E4F090F12604F0122B23A9
:101790007B127D037F02A1A6E4F5C853A8DF122BBC
:1017A00002D146122AF2C390000FE094541230EF97
:1017B000948B4027300624752601E4F5277528010F
:1017C000123543120024120446F1F3B401067D01E0
:1017D0007F0380047D02E4FF120E50229110E4FF8B
:1017E000FE7D7A7C44AB14AA13A912A811120146FB
:1017F0000203A37B007A00792622EF14600F1460A5
:101800001114601324037013EDF452AC22EDF45262
:10181000AD22EDF452AE22EDF452AF227D407F02B4
:101820001217FA90005A74AAF0227D067F021169FD
:10183000EF64014E702FC221E546547FFFE4F54668
:10184000E5487004E54B6007E4F54BF5488018EF78
:10185000C394055012C3E549648094885002054939
:101860007547808002311080B3EF14602214603D10
:1018700014605824037071EDD3940540028069ED23
:10188000248011FD8002C333D8FC55ACFC805DED93
:10189000D394075006EDC394035002804BED248887
:1018A00011FD8002C333D8FC55ADFC803FEDD394CD
:1018B000065006EDC394015002802DED249011FDD9
:1018C0008002C333D8FC55AEFC8021EDD394064092
:1018D000028015ED2498FBE434F0FA31088002C34D
:1018E00033D8FC55AFFC8004E4FEFF22EC7003FE0D
:1018F000FF228B828A83E05403FF7E0022FBE434C4
:10190000F0FAA80574010822AF05A807740108229F
:10191000D221E54730E703754780E54620E70375A8
:10192000468022C0E0C0F0C083C082C0D075D00025
:10193000C000C001C002C003C004C005C006C0078B
:10194000112A75B600D007D006D005D004D003D038
:1019500002D001D000D0D0D082D083D0F0D0E032FD
:10196000EBD394035055EF146015146023146031C9
:1019700024037047EDD394055041ED2480802BED76
:10198000D394075036EDC394034030ED2488801A79
:10199000EDD394065025EDC39401401FED249080B3
:1019A00009EDD394065014ED2498F529E434F0F5AC
:1019B00028EB5403852982852883F022C2AF007565
:1019C00096AA75965575978080FE227526FFC213DC
:1019D0007128754F031526E52660071212DE31E4E3
:1019E00080F380D81235505017900054E0C36480C3
:1019F000948C5005E004F0800CE4900054F041E534
:101A0000E4900054F0E54FB40A00400241E9901A16
:101A100015F8282873021A33021A3D021A42021AD4
:101A200063021A47021A63021A49021AA0021AA094
:101A3000021AA0C2B0C281E4900055F022C2B0D216
:101A40008122D2B0C28122801551EA4F7F8060028C
:101A50007F00900055EFF051EE4F700241E5D2B09B
:101A6000D28122C281900055E0FF547FFEE54F7D78
:101A700000B403027D03C3ED51FA500C0EEF548005
:101A8000900055F04EF0800E51EA4F7F8060027F4B
:101A900000900055EFF051EA4FC36001D392B0229D
:101AA000900055E0547FF0E54F64086005E54FB4C1
:101AB00009047F0680027F0A900055E0FED3EF51B3
:101AC000FA4004E4F54F22900055E0FF04F0EF7572
:101AD000F002120424AFF0EF600BE54FB40903D21B
:101AE0008122D2B022C2B0C28122900055E054803F
:101AF000FF3395E022FCC3EF9DEC6480F8EE648038
:101B00009822200122121527C2127139C21371289E
:101B1000752664754F061212DE31E4B17750021556
:101B200026E52670F131BC22301307C2AF0075FBE9
:101B3000AA2275FB5500D2AF22E4FFD213712830E0
:101B400001010F30060343070230000343070490EE
:101B50000033EFF0900018E0FFA3E0900031CFF0E9
:101B6000A3EFF07B017A0079317D03B14690003418
:101B7000EFF020120E90004DE0FF900034E0B5072A
:101B800002807220120FC390004CE094FE90004B34
:101B9000E094004017F1D17D007C027F1D9177E435
:101BA000FC7F1D9177E490004BF0A3F0E4F52790C3
:101BB000004BE0FEA3E07802C333CE33CED8F97CED
:101BC000002527FDEC3EFC74312527F9E43400FAAA
:101BD0007B017F1991770527E527C3940440D090B6
:101BE000004CE004F0700690004BE004F0900034EC
:101BF000E090004DF0C21361287B017A00792D91AD
:101C0000A590004BEEF0A3EFF07B017A00792D7DDB
:101C100003B146900030E06F704E90002FE0C3306B
:101C2000E101D3920690002FE0C330E201D392008D
:101C300090002FE0C330E001D3920190002DE0FF2F
:101C4000A3E0900018CFF0A3EFF0900030E09000F8
:101C50004DF090004CE004F0700690004BE004F072
:101C6000B177400F7102800B121527D201D2127189
:101C70003931CBC21361288F2CE52CB4190512041D
:101C800046F5FEEDF5FCECFFEFF5FD00852CFF00C1
:101C90000000000000E5FF20E0FBE52CB41105E5A5
:101CA000FE12048C228B268A278928E4F52AF52B3C
:101CB000D2137128E4F529AE2AE52B7802C333CE7E
:101CC00033CED8F9B128C3940440ECAB26AA27A997
:101CD000287D03B146AB26AA27A928900003120449
:101CE0005FB50713052BE52B7002052AC394FEE5AB
:101CF0002A6480948040BDD3E52B9400E52A64805B
:101D000094804008E52B152B7002152AE4F529AEC6
:101D10002AE52B7802C333CE33CED8F9B128C39449
:101D20000440ECAE2AAF2B227C002529FDEC3EFCC2
:101D3000AB267E00E5282529F9EE3527FA7F11919B
:101D4000770529E529228B2C8A2D892E7FFFAB2C44
:101D5000052EE52EAA2D7002052D14F912044662F7
:101D6000077E08EF30E70725E06407FF8004EF25D2
:101D7000E0FFDEEFDDD822A2A62220000E1214FF23
:101D80004009D2001233ECC212713922200B06F145
:101D90000EFFC20D22122F9DFF900038E03EFE3054
:101DA000E703E4FEFF900045E0FCA3E0FDC39FFFD6
:101DB000EC9EFEC3EF9486EE648094815014ED2473
:101DC0007AFEEC34FE900038F0A3CEF0F1D87E011C
:101DD0007F86900046E02438FD900045E034FF51B6
:101DE000F55002D20D22900045E0FAA3E0FBD39417
:101DF00000EA648094804018B18C8E258F26F10E05
:101E0000FFC39526E52551FA500A8E258F268004BA
:101E10008A258B26F10565267003EE65257002C1C3
:101E2000FCD3E5269400E525648094805002C1E54A
:101E3000E5269FFFE5259EFED3EF9458EE6480943F
:101E4000824002D21E301E7D900043E07002A3E06B
:101E5000701DC3E5269458E5256480948290004364
:101E60005004D1FD804C7402F0A37458F0804312EA
:101E70000024120446FFB40C10900044E024E8F063
:101E8000900043E03403F08029EFB4081090004440
:101E9000E02490F0900043E03401F080159000447D
:101EA000E0300504243280022402F0900043E03444
:101EB00000F0C3900044E09526E525122F189840C5
:101EC00009C21E8003900043D1FD201F0BD2937FD7
:101ED000057E001212E2D21FF105122A1B90003F6C
:101EE0001206B28015C29390003F1206BE00000099
:101EF00000C21FE4900043F0A3F0D21B22E525F0BE
:101F0000A3E526F022900043E0FEA3E0FF2290002C
:101F100045E0FEA3E0228F29120024120446652921
:101F2000604BF1CBF52A7B007A00792B1227A68B28
:101F30002C8A2D892EE52B6034E52924F5600C14BC
:101F4000600E2404700D1238CA800812249F80038A
:101F50001238DD852C4C852D4D852E4EE529D394E8
:101F600002400AE52A6006F10EFF122F62221200DB
:101F700024120446602114601E8000300308C2034E
:101F8000E4FFF116800D12002490000712045F6038
:101F900002F1E0E4FFF11622900048EF1200231254
:101FA0000446640160047F01F116227F02F11620CD
:101FB0001518201615E55070113000081200241273
:101FC000230F80047E077F08F1F0229000080204AE
:101FD0005F7B007A00792722E4900035F0A3F0229D
:101FE000120446900014F022E4900048F0FFE1163D
:101FF00090001CEEF0A3EFF022C2AF007596AA7518
:10200000965553977F22AB077AA090002CE0704240
:10201000C3EB64809480403AD3EB6480949640078D
:10202000EB6480949F402B9000251206BE000000B8
:10203000001153EBF0A37401F0EB30E40543DF80B3
:10204000800353DF7F53DEF0EB540F42DEDAFE43B2
:10205000DF0222E4900029F0A3F0A3227F04900085
:102060002174FEF0A3DFFCE4F5089000251206BE03
:10207000000000001153F0A3F0D220228B2B8A2CF9
:10208000892DE5DF30E102804390002AE004F07002
:1020900006900029E004F0900025F162FBAFDDEF2F
:1020A000FEADDCED510AEB2FFFEA3EFEE93DFDE817
:1020B0003CFC9000251206B2C390002AE0940A90DE
:1020C0000029E064809480500743DF02E4FEFF2291
:1020D0009000253113FFE47B0AFAF9F81207DE902D
:1020E00000251206B2900025A3A3E0FFA3E0AB2BCE
:1020F000AA2CA92DCF8FF012051E90002BE0AB2E3D
:10210000AA2FA93012048CE490002CF0FE7F01224B
:10211000900007E0FCA3E0FDA3E0FEA3E022900016
:102120000BE0C3942850411217DED1BF90000BE0A2
:1021300004F031102528FFEE3527FEED3526FDECA5
:102140003525FC511251035120C3120668500590E9
:102150000003511890000551065120D31206684023
:102160007B900005511880743110FFC004C005C079
:1021700006C007900005E0FEA3E0FBAA06EA33953F
:10218000E0F9F85103EF2BFBEE3AFAED39F9EC38B0
:10219000F8D007D006D005D004C3EF9BFFEE9AFE1F
:1021A000ED99FDEC98FC51123110FFC006C007A359
:1021B000E024FEFFE434FFAB07FA3395E0F9F8D0F2
:1021C00007D0061207DE5112900007A3A3E0FFA379
:1021D000E090000ECFF0A3EFF012352190000DE05B
:1021E000FFB478057401F08009EF600690000DE0FF
:1021F00004F0900000E0600214F090000CE0600237
:1022000014F022900003E0FEA3E0FFEE3395E0FD22
:10221000FC229000070206B2E527F0A3E528F02291
:10222000AB28AA27A926A82522300007120024716E
:102230000F80047E077F088E278F2890003BE014D4
:10224000604B14605B14700241F724036002610666
:10225000B1C44002804EC371195024120024710F82
:10226000B1DF5002E4F090003DE004F07006900011
:102270003CE004F0D37119500261065118610690D8
:10228000003B7401F090003A7404F0807990003AB9
:10229000E06005AE27AF282290003B7402F0806614
:1022A000B1C44005E014F0805D120024D192D390B7
:1022B000003DE09FE5F07121402F710FB1DF50022A
:1022C000E4F090003DE024FFF090003CE034FF1289
:1022D00000239000037112C390003DE09FEE712136
:1022E0005024EEF0A3EFF0801D90003B7403F090BB
:1022F000003A7428F0800F90003AE06004E4FEFF9A
:1023000022E490003BF090003CE0FEA3E0FF22902E
:1023100000011204E6FFAEF02290003DE09528E5B2
:10232000276480F890003CE06480982271FD92F769
:10233000B1BB72F79210300007120024710F8004B5
:102340007E077F0890001CE0FCA3E0FDC3F18350F2
:10235000028004AC06AD07AE04AF05120024900065
:10236000011204E6FDC3EF9DE5F0121AFA500C309D
:10237000100991054005EEF0A3EFF071FD50262005
:102380000423900020E0600414F08058C3910550AD
:102390000EA3E004F07006900018E004F0803FD235
:1023A00002B1CE8039B1BB502D20042A900020E02C
:1023B000600414F0802E1200249000037112910426
:1023C000400EA3E024FFF0900018E034FFF08004FA
:1023D000C202B1CE800820100B300408C204900065
:1023E000207405F030100790001F7420F022900038
:1023F0001FE0B4010714F0C212121B3922E548C3D2
:102400006001D322D3900019E09FEE6480F8900021
:1024100018E0648098229000147403F0900012F089
:10242000E4900048F090001EF0121BF97B007A0047
:1024300079257F02F1A68B4C8A4D894EE525603FB8
:102440009000051204E6FF90001AD18B3000047151
:102450000F80047E077F08121FF09000037112C3E3
:1024600091055005EEF0A3EFF0F1EC91044005EE7C
:10247000F0A3EFF0754CFF754D09754E7480057F24
:1024800007121F98E4900013F0C205C20EC202C2E8
:1024900007C2039000207405F01238CA1238DDE438
:1024A00090003B120023D19290003CD18BE490002D
:1024B0003AF090003EF022301502A155301602A1EC
:1024C00055E4900056F0E5506002A1B0120024904F
:1024D00000011204E6FFC390001DE09FE5F0B1B1DA
:1024E00098506C900057E0FF700404F08008EFC330
:1024F00094095002A1B09000577401F0900005714A
:1025000012D390001BE09FEE6480F890001AE06404
:1025100080984007EEF0A3EFF0800E90001BE024BF
:1025200032F090001AE03400F0120024710FD390C2
:10253000001DE09FEEB1B1984006EEF0A3EFF0224F
:1025400090001DE024FAF090001CE03400F022E43A
:10255000900057F022E4900057F0D1B630160C905E
:102560000056E0D394044003021F6E900056E0D35F
:10257000940A403CD390001DE094F4B1B49481409F
:102580000CA3E02406F090001CE034FFF0D3900090
:102590001BE0942290001AE06480948B400CA3E02E
:1025A00024E7F090001AE034FFF09000567401F038
:1025B000226480F890001CE0648022E54BB40202A3
:1025C000D322C32290003EE0D36480948022900006
:1025D0001E7404F0900018EEF0A3EFF0D20422ACC9
:1025E00027AD281204B0EF1490003EF0C36480942D
:1025F00080228D287E02B1BB5004D210800471FD70
:10260000921020160F7E0A301503301007E4900058
:1026100056F08002D1B6900056E0D39E4018EF608D
:10262000028006301006301603021F6EE49000563A
:10263000F0AF28121F1622120024120446B40A0218
:10264000800871FD400AB1BB4006E4900017F022FB
:10265000900017E0FF541FFE7012EF20E60EB1BB92
:102660007D8050027D20EF4D900017F0900017E024
:1026700054E0F0C3EE648094865007E020E6030E39
:102680008002E4FE900017E04EF022E5F0F0A3EFA8
:10269000F0229000031204E6FF22121FD17F02F104
:1026A000A6E5276007D19290001880DF900018E41B
:1026B000F0A374C8F022900056E0700204F0228F5C
:1026C000288E278D268C2522201B02E15E301D1DC1
:1026D00090F129E030E002E15E90F164E0301C0509
:1026E00054FEF080034401F0C21BC21D22F16DF1C3
:1026F0005FFB1202EC600C400A90003F1206BE42E3
:10270000C80000E4FFFEFDFCF15FFB1202EC500A82
:1027100090003F1206BE00000000E4FFFE7DFA7C40
:1027200045F15FFB120146E4FBFA798078BF1200A5
:1027300055D1BFF1DB12024FD1BF1203A3AD07ACDD
:1027400006ED4CC36001D3921CECFFEF90F141F019
:10275000ED90F140F0D21D90F129E04401F022907B
:10276000003FE0F8A3E0F9A3E0FAA3E022E4FFFED3
:102770007DC87C4222FFE43527FE90000EE0FCA3DA
:10278000E0FDD39FEE6480F8EC6480982290000115
:10279000E07012123068F16DAB18AA17A916A815CF
:1027A0001217EDF1E322E412048CFEEE75F00EA494
:1027B0002474F582E43409F583E493B507077401C2
:1027C00012048C80040EBE0DE2AF06EF75F00EA46D
:1027D0002474F9740935F0FA7BFF22E4FBFA79C816
:1027E000784222900010EEF0A3EFF02290001CE05F
:1027F000FEA3E0FF228E2B8F2C8D2D90F692E030E1
:10280000E708E4FFFEFD7C408002310C11F211FB71
:10281000C004C005C006C007E4FBFA79807845AF64
:1028200035AE34AD33AC3212024FD003D002D001FA
:10283000D0001201468F398E388D378C36E52D60E9
:102840005B24F8606E24FB601E24EE600201F1112F
:10285000FB51AC7F9A7E997D997C4512024F8F1C6B
:102860008E1B8D1A8C192275312D7530A6752F335C
:10287000752E3E31158F188E178D168C152000027F
:102880008011E4FBFAF97840AF18AE17AD16AC151D
:1028900012024F8F148E138D128C112275318C758C
:1028A000302E752FBA752E3D31158F108E0F8D0E6F
:1028B0008C0D223103310C120051C004C005C0063A
:1028C000C007E4FFFE7DEB7C433103120146D003D9
:1028D000D002D001D00012024F11F2511312014662
:1028E00011F21203A37B007A00791D31288E098F23
:1028F0000A228F358E348D338C3222AC2BAD2CECEA
:1029000002036AAB39AA38A937A83622AF1CAE1B1E
:10291000AD1AAC1922AB31AA30A92FA82EAF39AE0F
:1029200038AD37AC3602024F8B3A8A3B893C8F4038
:102930008E3F8D3E8C3D7F2B7E007D127C005100B2
:10294000D312067E400751097EFF7FED22E47F759A
:102950007E1E31FEC312067E50065109FE7F6422A0
:10296000AB3AAA3BA93C740112048CE47FF57EF5D6
:1029700031FED312067E402EE4F541E54125E025E7
:10298000E02422F582E43408F5831206A25100C344
:1029900012067E400AE54124EDFFE434FFFE2205E5
:1029A00041E541B436D5E4F541E54125E024FAF5A9
:1029B00082E43408F583E493FE740193FFE48F45C9
:1029C0008E44F543F542E545F545E544F544E4F527
:1029D00043F542AF40AE3FAD3EAC3DAB45AA44A946
:1029E00043A842D312067E5009E5412423FFE43375
:1029F000FE220541E541B43DB05109FEFF22FDFC38
:102A0000AB40AA3FA93EA83D22AB3AAA3BA93CE471
:102A100002048CE4FBFA797A784422AD07AC06EC28
:102A200012036AE4FBFA7920784151A28C275113F2
:102A300012024F51A58C277B4D7AB579B1783C12A3
:102A4000024F51A58C277B667A667986783F51A222
:102A50008C27C004C005C006C007E4FFFE7D7A7C59
:102A600044AB1CAA1BA91AA81912014651ACD007E5
:102A7000D006D005D00412024F51A58C271227DBB7
:102A800051A28C2712276DAB2AAA29A928A82712A0
:102A900002EC6005400302276DAF2AAE29AD28ACD9
:102AA00027221201468F2A8E298D2822A804A905E3
:102AB000AA06AB07225388CF5389F0438901E4F576
:102AC0008CF58AF5CE75CB0B75CADB75CD5D75CCF3
:102AD00066F5C975CF8075A8A2C21AC21975C891CA
:102AE0002275C900B219301902D21A325388EFD2B6
:102AF0001832C2B0C281E4F54F900055F0900054F6
:102B0000F022E4FB7D037F021215A690F1287401E8
:102B1000F090F121E4F090F126F090F125F090F1A1
:102B200023F02290F1297401F090F129E020E0F9DE
:102B30002220A6037F0122E5B65440FF22E54B6028
:102B400002D322E54AC36001D322201702D3229088
:102B5000000CE07006900002E06002C322713D406C
:102B600002C21771767169C322E54B64016002C32A
:102B700022E4F54BD322E54A6009E5496005E4F516
:102B80004AF54922E4FE74462EF8E630E724547FE5
:102B9000FDEE700B7C053005027C02AF0480027FE5
:102BA00004EDC39F50010DE65480F674462EF8E6FE
:102BB0004DF60EBE02D022E4F547F54AF549F54838
:102BC000EF04F54B22E54B7004E54A70037F0022C9
:102BD000AF4922E54B14FFD3648094804001227FEB
:102BE0000022900001E014B40B004002A136902BAB
:102BF000F6F1E9C58373022C17022C27022C73020D
:102C00002C79022C90022C96022CAD022D00022D64
:102C10001B022CB3022CC4900000E06002A13674A9
:102C20000FF0A37402F0221234DA8F4F900000E00C
:102C30006002A136900010E0FEA3E0FFD394E7EE1F
:102C4000648094834022B142D3ED9404EC64809478
:102C500080400BE0240AF0900010E03400F0B1371F
:102C60007D0A1204B01227E3B1377D641204B07DEF
:102C70000380377D047F028038B1377D641204B051
:102C8000900010ECF0FEA3EDF0FFB1427D05801A3C
:102C90007D067F04801B301404F1B5F022B1377D2E
:102CA0000A1204B0AE04AF057D070233FC7D087F35
:102CB00001E1BD900000E0707DA3740BF090000076
:102CC000741FF022900000E0FFC394195026EF54C7
:102CD000F86021C3E50A942DB14D5005754F018070
:102CE00016C3E50A9437B14D5005754F0480087539
:102CF0004F028003E4F54F900000E07039A3801785
:102D0000900000E07030120024120446700690001B
:102D10000C7412F09000017409F022C214E49000C7
:102D200010F0A3F090000CE0600302338871D3EF41
:102D30007004900001F022900010E0FEA3E0FF7C00
:102D400000227C007D0A0204B0E50A942EE50964A5
:102D500080948022200B0AC20A121FD8F123C20DD0
:102D600022300E02E10EF1B24002E10E7529027529
:102D70002AEE300A08752901752AF48006752902A1
:102D8000752AEED3B1495002C17AD3E50A9434B121
:102D90004D4002D20AE50A24D2F528E50934FFF5B0
:102DA000279000377418120023120446FF6407604E
:102DB00004EFB40A19D3900044E09422F11B948BE1
:102DC000400CAE27AF287C007D14F12AC16DD3E5FD
:102DD000289402E527648094805002C16D12044655
:102DE000FF64076004EFB40A09121F057C037DE845
:102DF0008007121F057C057D141204B08E258F26D6
:102E0000E52530E705E4F525F5260526E5267002DB
:102E10000525F10F985004F13A8026E52854FC4529
:102E2000276014AE25AF26E5282402FDE43527FCF3
:102E300012049E8E258F26AC27AD28AE25AF26F135
:102E40002A900046E0247AFF900045E034FEFED34D
:102E5000900039E09FEE6480F8900038E06480983C
:102E60004005EEF0A3EFF0900037743CF0F10F98BE
:102E70007D0050027D017F01E10BC3B1494002E1B9
:102E80000EC3742E950AF528E49509F527D3E52895
:102E90009404E527648094804002801BE52A24384E
:102EA000FFE52934FFFED3900044E09FEEF118982F
:102EB0004005E4F52B8003752B01900037E060049A
:102EC00014F0803AE52B6004F13A8020E52854FEA6
:102ED0004527600FC3900039E09528F0900038E056
:102EE0009527F0900038E030E702F122300A0FD346
:102EF000900044E094EEF11B94824002C20A9000DC
:102F000038E030E702F122AD2BE4FF12355B22C33B
:102F1000900044E0952AE5296480F8900043E0643D
:102F20008022E4900038F0A3F02212049E90003931
:102F3000E02FF0900038E03EF0221235E3400280AE
:102F4000151235D2EF94C0EE648094837E00500455
:102F50007F0180027F00EF4E7007F19DF132121F5A
:102F6000D8228E2F8F30120024121FCB700280289F
:102F70001200249000011204E6FBAAF0F19D9000DB
:102F800038E03EC3EB9530FFEA952FFE900038F015
:102F9000A3EFF0EE30E703E4F123021FD8900035F1
:102FA000E0FEA3E0FF7C007D101204B0900039E049
:102FB0002F22A21F22900000740AF0A3228F278DD7
:102FC00028900000E030E7081213DAE4900000F0E7
:102FD000900000E0FF7E0030E102AE278E4FEF70E0
:102FE00007F54FF1B5E528F02275F003A4C5832558
:102FF000F022439A3C43A11043A23043A3045380E0
:10300000C35390EF53A0CF53B0FB90F00AE054C3EA
:10301000F0A3E054C3F090F01AE054EFF0A3E054B2
:10302000EFF090F02AE054CFF0A3E054CFF090F00E
:103030003AE054FBF0A3E054FBF022115EC293127D
:1030400017F37D087F01120E501156900043F0A334
:10305000F0C21FC21E22E4900045F0A3F0227526A4
:1030600003752701752801229000017401120023C5
:10307000120446600DE54F60069000007408F0E40D
:10308000F54F22E51D6024900001E0701E1168D20A
:1030900014E50AAE0930E707FF7CFF7DF68006AF36
:1030A0000A7C007D0A12049E1227E322122BD3EF22
:1030B00024FE601714601714601624037029120090
:1030C0002412044670217F09021F1602278D80B347
:1030D000120024120446700F11E8948B4006121F50
:1030E000ABD20722754F0722D390000FE0942290B5
:1030F000000EE0648022D390000FE094EA11EF9478
:103100008B4002800A714A11EF948A40057F0302C6
:103110001F161200241204467004754F0722021F66
:103120006EEF640270532001502000117F0511F6EC
:103130001200241204466405703FD20322D390008B
:103140000FE0947A11EF948D402B20082812002470
:10315000120446FFD394014005900012EFF0900056
:1031600014E0FFD394024008EF94075003121FE0CD
:103170007F07021F167F0611F6228F271200249068
:10318000000912045F600231211200241204465427
:10319000FE600A11ACE527B40103121F6E90001700
:1031A000E030E725547FF020001012002490000C3E
:1031B00012045FB406047F03800C12002490000CFC
:1031C00012045FFF6003121F16900017E030E51134
:1031D00054DF12002390000D12045FFF6003121FE2
:1031E0001612002490000B12045F600D5402FF9031
:1031F000000A12045FFD1225F22212002412044676
:103200006407600875270E752842800675270D75BE
:1032100028DEE55014601F14603B146053240370D3
:103220005FC390000FE09528E5276480F811EF98C0
:10323000504E75500122E52824FA1227754003E408
:10324000F550E5282438FFE52734FFFEC3ED1227AB
:1032500083502D8028E528243212277540037550AD
:1032600001C3ED9486EC6480948B50147550032256
:10327000D390000FE094E411EF948C40037550025A
:1032800022120024120446B4020C90001AE0F52524
:10329000A3E0F526800B9000051204E6F52685F0E4
:1032A0002590000EE0FEA3E0FFD394BEEE64809470
:1032B0008A4014D3EF9526E525121AFA40028001C0
:1032C000D39215C2168004C215D21631FAE54FD337
:1032D00094065027900048E060028020900001E0B2
:1032E0006003022BE290000CE0700B120024120429
:1032F00046D3940140026188E4F54F22900047E0F4
:10330000FFC39405500BEFC39403503AEF04F54FFD
:1033100022900048E0FF7152EF2405FFE43EFE904A
:103320000047E0FD717E501EED24FBFFEC34FFFEF4
:103330007D031204B07C007D021204B0ED4C7004D9
:10334000754F02228000E4F54F22D390000FE094E5
:10335000BE227E007C007D0602049E900048E0FFB5
:103360007005900047F022900047E004F07152EFA2
:10337000240FFFE43EFEE0717E4002E4F022C39F92
:10338000EE6480F874809822E55014600E14600F8B
:103390001460102403700F754F0122754F042275BD
:1033A0004F0222754F0322E550B403091200241284
:1033B0000446B40807E490000DF0801390000DE07F
:1033C000FF700404F08008EFD394744002D322C34A
:1033D00022900002E030E0057F011213DA90000C29
:1033E000E07008900002E0600214F022900002E019
:1033F000700912125E9000027404F022900000E046
:103400007011EF4E70057480F080039114F09000FD
:1034100001EDF022EF25E025E0149000002290005D
:103420004FE024FE606D14700281BB1460232403FE
:10343000600281CE900000E0FED3940640037F013D
:1034400022EE600281CE900050F090004EF0A380FA
:103450007A91D1FF642D6004EFB4201790004F746F
:1034600003F0EF900000B42D057424F0801D741457
:10347000F0801891D1540FFF700890004E7432F014
:1034800080039114F090004F7402F0900050E0041B
:10349000F0803B90004EE07019900000E0FF700B50
:1034A000740CF090004F7403F08023EF30E11F7F25
:1034B000012290004EE014F07F0122900000E070A5
:1034C0000D91D190004F7003F080037404F07F00E1
:1034D00022900050E090002E9322900000E0FFD355
:1034E0009409403AEF24F8C31314FF301407E50A97
:1034F00020E7020F0F201413D3900011E094E790FF
:103500000010E06480948340020F0FEF3395E0FEDB
:1035100074032FF58274003EF583E493FF227F004D
:1035200022900003747FF0A374FEF0A37480F0A3D4
:103530007402F0E490000BF09000071206BE000049
:1035400000002275BCFF75BDBF22E4F5BDF5BC22AD
:10355000900001E06002C322A20D228D2CA907E990
:10356000600CE50A24D1FBE50934FFFA800AC37434
:1035700028950AFBE49509FAEA30E703E4FAFBB17F
:10358000E34002801BB1D2E49BFD747D9A121AF5D0
:10359000500AE52C60067E007F0180047E007F00DB
:1035A000EF4E6009EB25E0FBEA33FA8003E4FAFB17
:1035B0000BBB00010AE96006AE02AF038007C3E45B
:1035C0009BFFE49AFE900036E02FF0900035E03E3D
:1035D000F022900035E0FEA3E0FF7CFF7DFF1204A7
:1035E0009EC322900035E0FEA3E0FFD39400EE647A
:1035F00080948022AF25EF3395E0FED3D191400235
:10360000D322AF26EF3395E0FEC3D1915002C322FF
:10361000A21122E51D6074A20C9211752537752642
:1036200028B1F4920CA2089211752532752628B1A2
:10363000F49208A2099211752541752629B1F492D8
:10364000093009077F06121F98800A900048E0B4ED
:103650000603121FE8120024121FCB7003C20B22B4
:10366000A20B921175252E752623B1F492103010FD
:1036700003D20B22201019900038E07002A3E070F2
:103680000F900035E030E708C20B227F05121F982B
:1036900022E50A9FEE6480F8E50964809822900094
:1036A00057E06008C394095003E004F0900056E02E
:1036B0006008C3940B5003E004F022E4FFEF900095
:1036C0000893FE900048E0FDEEB50502C3220FBF4F
:1036D00003EBD322C3EF648094885004EF2DFF22C4
:1036E0007F0822122FB24006E490004AF022900098
:1036F0004AE0C394045004E004F022900049E054EE
:103700000FF5257F337E337D8B7C40AB14AA13A944
:1037100012A8111202EC600740057F03121F98E403
:10372000FFFE7D807CBFAB18AA17A916A815120052
:1037300055F1AB50097D02F1A2E4F5268035E4FF96
:10374000FE7D30F1A95007F1A07526028025E4FF27
:10375000FE7D88F1A960094007F1A075260180135C
:10376000D3E525648094804006E52514FF80027F20
:10377000008F25E526C454F04525900049F0C3E5A7
:1037800025648094884018E0C4540F24FE60070428
:1037900070087F0480067F0180027F02121F98223A
:1037A0007D01AF25D1D48F25227C41AB10AA0FA972
:1037B0000EA80D0202EC90001FE054FE6003E0141E
:1037C000F090001EE0600714F0E07002C20290006A
:1037D00015E07002A3E0600E900016E024FFF09068
:1037E0000015E034FFF0900013E0600214F0229026
:1037F000004FE0700804F0900000740FF022900079
:1038000001E0700690004FE060037F012212002467
:1038100012044654FE7F0060027F0122900058E0AF
:103820007005EDF0A3EFF022900059E0B4070050CE
:1038300063903838F828287302384D023858023817
:103840007402387A02388902385802388FE49000BE
:1038500058F07D0B7F01803A7F02119750037F0162
:1038600022900059E0B401067D077F0280247D2369
:103870007F06801E7D237F0380187F0611975003EB
:103880007F01227D077F0480097D0B7F058003E493
:10389000FDFF111C7F0022AB07EB3395E0FEEF2507
:1038A000E0FDEE33FC900058E0FF3395E0FE12049B
:1038B000B0EB14D36480F8ED6480984002D322C347
:1038C00022900058E0600214F022E4900059F09039
:1038D0000058F02290003AE0600214F0229000516B
:1038E0007401F0E4900053F09000527418F02290AC
:1038F0000052E0600214F022900051E0601724FEB4
:10390000602214603C24027042900052E0D3940084
:1039100040217F02229000537446F09000517402BF
:10392000F07F0122900053E014F0E0D394004003B4
:103930007F01229000527418F09000517403F080BF
:103940000A900052E07004900051F07F0022EDF4E4
:10395000F58275830085832A85822B85832C858259
:103960002DED22900045EEF0A3EFF022F4F58275E4
:10397000830085832E85822F85833022900045E049
:103980006480227407F0A304F0229000157401F003
:0D399000A374E02290000EEEF0A3EFF022F1
:00000001FF
