:100000000207440204010402040203022D4AC12033
:100010004100000041000300C110C11341004B002A
:100020004100540041005500C12300022D3F3235EC
:100030002031302031332D3138203331001F080D6D
:0900400000E490003AF0A3F02264
:10004B00022C9902040FE86480F8E933E83360115D
:10005B000460F0ED33EC337009E8FCE9FDEAFEEBEC
:10006B00FF220460DED3EB9FEA9EE99DE8C2E78C9A
:10007B00F0C2F795F0400CE8CCF8E9CDF9EACEFAEE
:10008B00EBCFFB1203DA85D0F05804700320D5B305
:10009B00E80470075002B2D502041992D5EC046043
:1000AB00F7E4CCC0E0C398F8603B94186008400DAF
:1000BB00D0E0FB0203F1E4FBFAC9FC8028E830E452
:1000CB0006E4C9FBE4CAFCE830E305E4C9CACBFC8F
:1000DB00E854076010F8C3E913F9EA13FAEB13FBC2
:1000EB00EC13FCD8F130F52FC3E49CFCEF9BFFEE37
:1000FB009AFEED99FDD0E0FBEF4E4D4C701222DBDA
:10010B0003020416EC2CFCEF33FFEE33FEED33FD54
:10011B00ED30E7EB0203F1EF2BFFEE3AFEED39FD8D
:10012B00D0E0FB50130BBB0003020419ED13FDEEE3
:10013B0013FEEF13FFEC13FC0203F1EC4D6011E81F
:10014B00497017ED33EC3304600DE4FCFFFEFD2228
:10015B00E933E8330470F802040F1203DA58046031
:10016B0009E4CC24815006285009020419284003C5
:10017B00020416C0E0EB4A7044B98006D0E0FB02E3
:10018B000405EF4E701CBD8008EBFFEAFEE9FD8015
:10019B00EBE98DF0A4FEE5F002022FE9CDF9EAFEC2
:1001AB00EBFFEF89F0A4FCE5F0CE89F0A42EFFE481
:1001BB0035F0CD89F0A42DFEE435F08067EF4E705D
:1001CB0005BD80D780C3EF8BF0A4ACF0EE8BF0A411
:1001DB002CFCE435F0F8EF8AF0A42CE5F038FCE4C5
:1001EB0033CB8DF0A42CFCE5F03BF8EE8AF0A42C7D
:1001FB00FCE5F038F8E433CF89F0A42CFCE5F038BB
:10020B00CF3400CE89F0A42FFFE5F03EFEE433C9D6
:10021B008DF0A42EFEE5F039CD8AF0A42FFFE5F08A
:10022B003EFEE43DFD33D0E0FB50070BBB000F025D
:10023B000419EC2CFCEF33FFEE33FEED33FD020320
:10024B00F1020419EC5D046005E859047003020423
:10025B000F1203DA580460F6EC4860F2EC7004FD00
:10026B00FEFF22C860DB2481C85009C3986002508E
:10027B00060204169850CAF582E9294B4A7005AB61
:10028B008202040575F0007C1A7880C3EF9BEE9A0E
:10029B00ED99400DC3EF9BFFEE9AFEED99FDE84201
:1002AB00F0DC23ACF0D0E0FFD0E0FED0E0FDAB8281
:1002BB0020E7101BEB60BAEC2CFCEF33FFEE33FEA8
:1002CB00ED33FD0203F1E803F830E705C0F075F0FC
:1002DB0000EF2FFFEE33FEED33FD40B830E7C28069
:1002EB00AA74F8CC6480CCC86480C8F58204604FD3
:1002FB00C3EB9FF5F0EA9E42F0E99D42F0E89C4586
:10030B00F0603C501DE5825FFFE582D313CB5BCBE6
:10031B00F42B5582FB50280ABA002409B900200897
:10032B00801DE5825BFBE582D313CF5FCFF4C31354
:10033B002F5582FF50090EBE00050DBD00010CC3E9
:10034B00EB9FF5F0EA9E42F0E99D42F0E89C45F008
:10035B006007CC4820E701B3EC2275F020800E75C6
:10036B00F010800575F0087D007E007F003392D57C
:10037B0030D50312065AEC334010EF33FFEE33FE49
:10038B00ED33FDEC33FCD5F0ED22E5F0247EA2D568
:10039B0013CC92E7CDCEFF22EDD2E7CD33EC3392E7
:1003AB00D524814006E4FFFEFDFC22FCE4CFCECD3C
:1003BB00CC24E0501174FF80EDC3CC13CCCD13CD06
:1003CB00CE13CECF13CF0470F030D5DE02065AE930
:1003DB00D2E7C933E833F892D5EDD2E7CD33EC331E
:1003EB00FC5002B2D522EC30E7100FBF000C0EBE52
:1003FB0000080DBD00040BEB6014A2D5EB13FCED54
:10040B0092E7FD2274FFFCFDFEFF22E480F8A2D5EB
:10041B0074FF13FC7D80E480EFC2D530F707B2D5B3
:10042B0063F0FF05F030E70CB2D5F4048463F0FF02
:10043B0005F080018430D502F40422BB01068982C9
:10044B008A83E0225002E722BBFE02E32289828AE2
:10045B0083E49322BB010CE58229F582E5833AF50F
:10046B0083E0225006E92582F8E622BBFE06E92549
:10047B0082F8E222E58229F582E5833AF583E4935B
:10048B0022BB010689828A83F0225002F722BBFE2F
:10049B0001F322EF8DF0A4A8F0CF8CF0A428CE8D21
:1004AB00F0A42EFE22C2D5EC30E709B2D5E4C39DF1
:1004BB00FDE49CFCEE30E715B2D5E4C39FFFE49E50
:1004CB00FE1206EFC3E49DFDE49CFC80031206EFD5
:1004DB0030D507C3E49FFFE49EFE22BB0110E582EB
:1004EB0029F582E5833AF583E0F5F0A3E022500984
:1004FB00E92582F886F008E622BBFE0AE92582F898
:10050B00E2F5F008E222E5832AF583E993F5F0A3FF
:10051B00E99322BB010A89828A83F0E5F0A3F022DA
:10052B005006F709A7F01922BBFE06F3E5F009F315
:10053B001922E88FF0A4CC8BF0A42CFCE98EF0A44C
:10054B002CFC8AF0EDA42CFCEA8EF0A4CDA8F08B49
:10055B00F0A42DCC3825F0FDE98FF0A42CCD35F08F
:10056B00FCEB8EF0A4FEA9F0EB8FF0A4CFC5F02E20
:10057B00CD39FEE43CFCEAA42DCE35F0FDE43CFC89
:10058B002275F008758200EF2FFFEE33FECD33CDD1
:10059B00CC33CCC58233C5829BED9AEC99E582981E
:1005AB00400CF582EE9BFEED9AFDEC99FC0FD5F01D
:1005BB00D6E4CEFBE4CDFAE4CCF9A88222B800C194
:1005CB00B90059BA002DEC8BF084CFCECDFCE5F001
:1005DB00CBF97818EF2FFFEE33FEED33FDEC33FC48
:1005EB00EB33FB10D703994004EB99FB0FD8E5E4F1
:1005FB00F9FA227818EF2FFFEE33FEED33FDEC33D3
:10060B00FCC933C910D7059BE99A4007EC9BFCE961
:10061B009AF90FD8E0E4C9FAE4CCFB2275F010EF9D
:10062B002FFFEE33FEED33FDCC33CCC833C810D7E0
:10063B00079BEC9AE899400AED9BFDEC9AFCE89934
:10064B00F80FD5F0DAE4CDFBE4CCFAE4C8F922C319
:10065B00E49FFFE49EFEE49DFDE49CFC22EB9FF5F2
:10066B00F0EA9E42F0E99D42F0EC6480C864809809
:10067B0045F022EB9FF5F0EA9E42F0E99D42F0E84F
:10068B009C45F022E8600FECC313FCED13FDEE1359
:10069B00FEEF13FFD8F122E493FC740193FD740277
:1006AB0093FE740393FF22ECF0A3EDF0A3EEF0A303
:1006BB00EFF022A8828583F0D083D0821206D51268
:1006CB0006D51206D51206D5E473E493A3C583C5EC
:1006DB00F0C583C8C582C8F0A3C583C5F0C583C860
:1006EB00C582C822BC000BBE0029EF8DF084FFAD84
:1006FB00F022E4CCF875F008EF2FFFEE33FEEC336D
:10070B00FCEE9DEC984005FCEE9DFE0FD5F0E9E468
:10071B00CEFD22EDF8F5F0EE8420D21CFEADF07587
:10072B00F008EF2FFFED33FD4007985006D5F0F2A0
:10073B0022C398FD0FD5F0EA2278FFE4F6D8FD909E
:10074B0000007F007E04E4F0A3DFFCDEFA7581502D
:10075B00020799020A38E493A3F8E493A34003F643
:10076B008001F208DFF48029E493A3F85407240CEA
:10077B00C8C333C4540F4420C8834004F4568001CB
:10078B0046F6DFE4800B0102040810204080900045
:10079B000EE47E019360BCA3FF543F30E509541F68
:1007AB00FEE493A360010ECF54C025E060A840B8CF
:1007BB00E493A3FAE493A3F8E493A3C8C582C8CA4D
:1007CB00C583CAF0A3C8C582C8CAC583CADFE9DE20
:1007DB00E780BEC2D5E830E70FB2D5E4C39BFBE49C
:1007EB009AFAE499F9E498F8EC30E717B2D51208C5
:1007FB00141205C8E4C39BFBE49AFAE499F9E49854
:10080B00F880031205C830D50DE4C39FFFE49EFEAC
:10081B00E49DFDE49CFC220012002B0010DBD600B3
:10082B000FCC1E000ECF6C000DE44B000D096500C4
:10083B000C3D80000B7F7C000ACE50000A2907007C
:10084B00098EC30008FEB50008781F0007FA520096
:10085B000784AE0007169D0006AF9700064F1C00DD
:10086B0005F4B800059FFE0005508B00050602003D
:10087B0004C00D00047E5D000440A9000406AC001A
:10088B0003D02700039CE100036CA100033F37005A
:10089B000314720002EC280002C62F0002A26300B0
:1008AB0002809F000260C3000242B10002264C008E
:1008BB00020B7B0001F2230001DA2E0001C387003B
:1008CB0001AE19000199D2000186A00001747200DB
:1008DB0001633A000152EA00014372000134C8007F
:1008EB000126DF000119AC00010D2500010141F5C6
:1008FB00F5EB3AE107D755CE1DC558BD00B50EAD8A
:10090B007FA64C9F7098E792AC8CBB871181AA7C19
:10091B0082779772E46E676A1E6606621C5E5F5A88
:10092B00CB575F541950F84DF84B1A485A45B843FA
:10093B003340C83E773C3E3A1D3812361D343B32AD
:10094B006D30B22F082D6F2BE62A6C290127A426B8
:10095B0055251323DD22B22193207F1F751E7500B1
:10096B00000000000000000000000000000000007C
:10097B000100010000000001000000000000000069
:10098B000000000000020BB801900C800001010276
:10099B0000000003025800000B22010101030204B6
:1009AB00000404B000000BB80101010301050305AD
:1009BB00076C00000C1C01010104010604060A8CE3
:1009CB0000000C800101010501030507109A0000CE
:1009DB000D160001000700000608032000000B2283
:1009EB0000010008020B0C0900C800000B220000DC
:1009FB0001090203000A109A00C80D160001010933
:100A0B000200000B0C1C00A00BB80001000B020C29
:100A1B00080C0C1C00000BB80001000C02080B0D9D
:100A2B00022600000B220000000D000000122D32E8
:100A3B00122C16122199F1A5122B2D122BF2123218
:100A4B00DDD2151215BB122FF2C221F1FB121E457E
:100A5B001220411235431222891219711218B73024
:100A6B001AE9202018121AB41235E112370E51A6CA
:100A7B001231C01220D81238C4D220801A122DB1D4
:100A8B0012140E1237FF123883122E411239D11263
:100A9B002C871238CDC220C21A80B0200C0BC20B8F
:100AAB00122FD0120042C20E22300F028169121790
:100ABB00E440028169752902752AEE300B0875290D
:100ACB0001752AF48006752902752AEED3F1F050D0
:100ADB000261D2D3E50A9434F1F44002D20BE50A59
:100AEB0024D2F528E50934FFF52790003974181244
:100AFB0016A7FF64076004EFB40A1AD3900046E010
:100B0B0094229176948B400DAE27AF287C007D14F8
:100B1B0012350361C5D3E5289402E52764809480E0
:100B2B00500261C5120446FF64076004EFB40A0B60
:100B3B00121A92E0FF7C037DE88009121A92E0FF03
:100B4B007C057D141204B08E258F26E52530E70534
:100B5B00E4F525F5260526E52670020525916A980C
:100B6B0050051234D48027E52854FC45276014AE79
:100B7B0025AF26E5282402FDE43527FC12049E8EC2
:100B8B00258F26AC27AD28AE25AF26123503900056
:100B9B0048E0247AFF900047E034FEFED390003B00
:100BAB00E09FEE6480F890003AE06480984005EE98
:100BBB00F0A3EFF0900039743CF0916A987D0050EF
:100BCB00027D017F018166C3F1F040028169C3742C
:100BDB002E950AF528E49509F527D3E5289404E525
:100BEB0027648094804002801BE52A2438FFE52986
:100BFB0034FFFED3900046E09FEE9173984005E4DE
:100C0B00F52B8003752B01900039E0600414F08004
:100C1B003CE52B60051234D48021E52854FE452792
:100C2B00600FC390003BE09528F090003AE09527C9
:100C3B00F090003AE030E703120041300B0FD390F5
:100C4B000046E094EE917694824002C20B90003AFB
:100C5B00E030E703120041AD2BE4FF12344A22C30C
:100C6B00900046E0952AE5296480F8900045E06401
:100C7B008022FF91867B007D027F038F2912044621
:100C8B00FF14601514602914603F14603C24047039
:100C9B005C123AD9123AFE802B123AD9EDF58274D6
:100CAB0001F52E85822FE582F4F5827530008014D4
:100CBB00123AD9EDF4F582752E0085822FEDF5826F
:100CCB007401F5308582318024123AFE858231ED34
:100CDB00F5827401F52A85822BEFB40407EDFF74BE
:100CEB0001FE8005EDF4FF7E008E2C8F2D90000110
:100CFB0012045F7007EDFF7401FE8005EDF4FF7EBB
:100D0B00008E328F3390000212045F7007EDFF7478
:100D1B0001FE8005EDF4FF7E00E529147002A1B6FB
:100D2B00147002C131147002C1AC24036002E130B3
:100D3B00E52AAB9A30E006E52B4BFD8004E52B5BF7
:100D4B00FD8D9AE52C30E00790F009F18E8005902F
:100D5B00F009F18790F009EDF0E52E30E004F19DFC
:100D6B00800590F00AF18090F00AEDF0E53030E06C
:100D7B0004F195800590F00BF17990F00BEDF0EE0E
:100D8B0030E004F1E9800890F00CE0FBEF5BFD90A4
:100D9B00F00CEDF0E53230E005F1E2FD800590F06E
:100DAB000DF1DBAF0590F00DEDF022E52AABA13094
:100DBB00E006E52B4BFD8004E52B5BFD8DA1E52CBF
:100DCB0030E00790F019F18E800590F019F18790C3
:100DDB00F019EDF0E52E30E004F19D800590F01A4E
:100DEB00F18090F01AEDF0E53030E004F1958005DC
:100DFB0090F01BF17990F01BEDF0EE30E004F1E98F
:100E0B00800890F01CE0FBEF5BFD90F01CEDF0E533
:100E1B003230E005F1E2FD800590F01DF1DBAF050E
:100E2B0090F01DEDF022E52AABA230E006E52B4B4E
:100E3B00FD8004E52B5BFD8DA2E52C30E00790F0E7
:100E4B0029F18E800590F029F18790F029EDF0E5DE
:100E5B002E30E004F19D800590F02AF18090F02A6D
:100E6B00EDF0E53030E004F195800590F02BF17951
:100E7B0090F02BEDF0EE30E004F1E9800890F02CCF
:100E8B00E0FBEF5BFD90F02CEDF0E53230E005F18F
:100E9B00E2FD800590F02DF1DBAF0590F02DEDF02C
:100EAB0022E52AABA330E006E52B4BFD8004E52BB6
:100EBB005BFD8DA3E52C30E00790F039F18E8005BA
:100ECB0090F039F18790F039EDF0E52E30E004F138
:100EDB009D800590F03AF18090F03AEDF0E53030DE
:100EEB00E004F195800590F03BF17990F03BEDF04B
:100EFB00EE30E008A3E0FDEF4DFF800890F03CE002
:100F0B00FDEF5DFF90F03CEFF0E53230E009A3E040
:100F1B00FDE5334DFF800990F03DE0FDE5335DFFCE
:100F2B0090F03DEFF022E4F526F527F528FB7A004B
:100F3B0079267D01917D7B007D047F0291867B016B
:100F4B007D027F021229F6E4122A611229F675DF5F
:100F5B004075DE60E4F5E9F5D1F5D375D50F75D4A1
:100F6B00FF90F69274A0F0122AC843DE8022E0FBB9
:100F7B00E5315BFD22E0FBE52F5BFD22E0FBE52D80
:100F8B005BFD22E0FBE52D4BFD22A3E0FBE5314BA6
:100F9B00FD22A3E0FBE52F4BFD22F131122B6975EE
:100FAB002603E4F527752801C2B0C281FBFD7F0340
:100FBB001229F6E40DFF1229F67A0079267F0391A8
:100FCB00867B007D02E4FF9186E4122ABFF54F2257
:100FDB00E0FBE5335BFD22A3E0FBE5334B22A3E013
:100FEB00FBEF4BFD22E50A942EE5096480948022E9
:100FFB00E508B40303E4F508E5081460381470023F
:10100B00018C14700201C82403600201C5D21611B1
:10101B00E7E4F52AAF2AEF3395E0FE743D2FF58216
:10102B0074003EF583E493FD11DCEDF0052AE52A0F
:10103B00B404E101C0E4F52A11D5E0FFC364809448
:10104B0080400FD3EF64809496400EEF6480949FA2
:10105B005007052AE52AB404DFC3E52A648094848B
:10106B00501A11D5E0F529640D6004E5297004C20E
:10107B001611E7AF29711B750802804175080380B3
:10108B003C752E00752F00753029F1ED7169EF4E0F
:10109B00602B85270B85280CAD29AF28AE2711FCBB
:1010AB00E4F52A11D5E0B5290511DC74FEF0052A0B
:1010BB00E52AB404EE7508018003E4F50830210934
:1010CB00E50864036003020FFB22AF2AEF3395E0C0
:1010DB00FE74232FF58274003EF5832253DE7F00CE
:1010EB007F002016027FA090F692EFF00043DE8087
:1010FB00228E2B8F2C8D2D90F692E030E708E4FF9B
:10110B00FEFD7C408002511531FB5104C004C0052B
:10111B00C006C007E4FBFA79807845AF35AE34AD35
:10112B0033AC3212024FD003D002D001D0001201E7
:10113B00468F398E388D378C36E52D605C24F86000
:10114B006F24FB601F24EE600221FA5104123B4016
:10115B007F9A7E997D997C4512024F8F1C8E1B8D39
:10116B001A8C192275312D7530A6752F33752E3EBD
:10117B00511E8F188E178D168C152000028011E4CE
:10118B00FBFAF97840AF18AE17AD16AC1512024F3B
:10119B008F148E138D128C11227531E87530817579
:1011AB002FA3752E3D511E8F108E0F8D0E8C0D2281
:1011BB00510C5115120051C004C005C006C007E404
:1011CB00FFFE7DEB7C43510C120146D003D002D0C5
:1011DB0001D00012024F31FB123B4912014631FB89
:1011EB001203A37B007A00791D51318E098F0A22DD
:1011FB008F358E348D338C3222AC2BAD2CEC02031D
:10120B006AAB39AA38A937A83622AF1CAE1BAD1A68
:10121B00AC1922AB31AA30A92FA82EAF39AE38ADFD
:10122B0037AC3602024F8B3A8A3B893C8F408E3F5C
:10123B008D3E8C3D7F2B7E007D127C007112D31274
:10124B00067E400B7109E412048C7EFF7FED22E4D5
:10125B007F757E1E7110C312067E500A7109E4124F
:10126B00048CFE7F64227109740112048CE47FF5F7
:10127B007EF57110D312067E402EE4F541E5412533
:10128B00E025E02422F582E43408F5831206A271EE
:10129B0012C312067E400AE54124EDFFE434FFFE43
:1012AB00220541E541B436D5E4F541E54125E0247D
:1012BB00FAF582E4340812342EE48F458E44F5435C
:1012CB00F542E545F545E544F544E4F543F542AF14
:1012DB0040AE3FAD3EAC3DAB45AA44A943A842D37B
:1012EB0012067E5009E5412423FFE433FE2205411B
:1012FB00E541B43DB67109E412048CFEFF22AB3A12
:10130B00AA3BA93C22FDFCAB40AA3FA93EA83D222B
:10131B00AB077AA090002EE07043C3EB64809480FF
:10132B00403BD3EB648094964007EB6480949F40E2
:10133B002C9000271206BE00000000122C35EBF09B
:10134B00A37401F0EB30E40543DF80800353DF7FB0
:10135B0053DEF0EB540F42DEDAFE43DF02228B2B1F
:10136B008A2C892DE5DF30E102804690002CE004C9
:10137B00F0700690002BE004F0900027121957A391
:10138B00E0FBAFDDEFFEADDCED9106EB2FFFEA3EB0
:10139B00FEE93DFDE83CFC9000271206B2C390002D
:1013AB002CE0940A90002BE064809480500743DF7C
:1013BB0002E4FEFF22900027B10CA3E0FFE47B0ABE
:1013CB00FAF9F81207DE9000271206B2900027A355
:1013DB00A3E0FFA3E0AB2BAA2CA92DCF8FF0120516
:1013EB001E90002DE0AB2EAA2FA93012048CE49096
:1013FB00002EF0FE7F0122E0FEA3E0FFEE3395E02E
:10140B00FDFC2290000CE0C394285049F1F712190F
:10141B006090000CE004F0B109A3E02528FFEE3545
:10142B0027FEED3526FDEC3525B115900004910214
:10143B00B123C31206685006900004B11CF0900053
:10144B00069102B123D3120668500281DA9000068E
:10145B00B11CF0807AB109A3E0FFC004C005C0063F
:10146B00C007900006E0FEA3E0FBAA06EA3395E076
:10147B00F9F89000049102EF2BFBEE3AFAED39F9F3
:10148B00EC38F8D007D006D005D004C3EF9BFFEEA5
:10149B009AFEED99FDEC98B115B109A3E0FFC006DA
:1014AB00C007A3E024FEFFE434FFAB07FA3395E05B
:1014BB00F9F8D007D0061207DEB116900008A3A3E7
:1014CB00E0FFA3E090000FCFF0A3EFF012315B90A1
:1014DB00000EE0FFB478057401F08009EF60069010
:1014EB00000EE004F0900001E0600214F0900000A8
:1014FB00E0600214F090000DE0600214F022900006
:10150B0008E0FCA3E0FDA3E0FE22FC90000802062D
:10151B00B2E527F0A3E52822AB28AA27A926A82500
:10152B00228E298F2AE4F52FE52A45296078052F8D
:10153B00AE29AF2A9107E47BA07A0FF9F812053D8B
:10154B00B1B2C007AF2FAB07E4FAF9F8D007120519
:10155B00C8B1B2E47FFF7EFFFDFCAB2EAA2DA92CF8
:10156B00A82BD312067E50C6C374FF952EF52E748E
:10157B00FF952DF52DE4952CF52CE4952BF52BAF44
:10158B002EAE2DAD2CAC2B780812068F8F8CE52E42
:10159B00FF8F8AC218438810E58820E5033018F8BE
:1015AB005388CFD52FD9228F2E8E2D8D2C8C2B227D
:1015BB0075260A12315B7F9A7E997D097C41D15247
:1015CB00600840067F03F1CD8010D14A600C400AC1
:1015DB00200007D200C2161221C5E4900002F0F1E0
:1015EB00F4122C2C121D87D526F5301529D1A87095
:1015FB002530001A7F04D1227FC87E00B12C7F04D6
:10160B00D1227526307F0A7E00B12CD526F7D21356
:10161B0090000D7412F022EF24FE600E24FE601079
:10162B002403701AC2B0D281800AD2B0C281800466
:10163B00D2B0D2817F147E00B12CC2B0C281227F86
:10164B00337E337D8B7C40AB18AA17A916A81502E5
:10165B0002EC122FE3EF24FE6015146015146015D5
:10166B0014602224047034D1A870307F09802A02C0
:10167B00180C023053D1A87022123B25121FF09484
:10168B008B4010E1C3D1A870127FCD7ECC7D1CD1D5
:10169B00505004754F07227F0DD1B122F0AB4CAAED
:1016AB004DA94E0204468F29D1A86529604FF1E759
:1016BB00F52A7B007A00792B1232B68B2C8A2D8976
:1016CB002EE52B6038E52924F5600F1460111460AA
:1016DB00042405700D12339F8008123366800312A9
:1016EB003438852C4C852D4D852E4EE529D394020F
:1016FB00400BE52A6007121EC2FF122F95228F277F
:10170B00F19690000912045F60031233D7D1A854ED
:10171B00FE6019D15DE527B40102800EF1E4400CA7
:10172B007FCD7ECC7D1CD1505002F19D900018E0F6
:10173B0030E729547FF020000DF19690000C120435
:10174B005FB406028012F196F1DC6010121FDC9878
:10175B004006F196F1DC80027F03D1B1900018E0D6
:10176B0030E50F54DFF19590000D12045FFF60021E
:10177B00D1B1F19690000B12045F600D5402FF90F3
:10178B00000A12045FFD122DFB22F0AB4CAA4DA9EF
:10179B004E22D1A8602114601E8000300308C203C2
:1017AB00E4FFD1B1800DF19690000712045F600346
:1017BB00123426E4FFD1B1227F02D1B1122797D286
:1017CB00082290004AEFD1A7640160047F01D1B1D8
:1017DB002290000C12045FFF22A21F22900008022D
:1017EB00045F7B007A00792722120FFBE4FFFE7D5A
:1017FB007A7C44AB14AA13A912A811120146020356
:10180B00A3900002E0700C12303B111F1237DD1158
:10181B0006D1CA22E4FFFE7DC87C4222AD07AC068E
:10182B00EC12036AE4FBFA7920784111AD8C271294
:10183B003B4912024F11B08C277B8A7A4B79867801
:10184B003C12024F11B08C277B527AB8797E783FCD
:10185B0011AD8C27C004C005C006C007E4FFFE7D98
:10186B007A7C44AB1CAA1BA91AA819120146123B7D
:10187B0040D007D006D005D00412024F11B08C27F0
:10188B00316911AD8C27111FAB2AAA29A928A827CA
:10189B001202EC60044002011FAF2AAE29AD28AC46
:1018AB0027221201468F2A8E298D2822201B0221E6
:1018BB0053301D1D90F129E030E002215390F1646B
:1018CB00E0301C0554FEF080034401F0C21BC21D26
:1018DB0022111F3154A3E0FB1202EC600C400A9062
:1018EB0000411206BE42C80000E4FFFEFDFC31546D
:1018FB00A3E0FB1202EC500A9000411206BE00005E
:10190B000000E4FFFE7DFA7C453154A3E0FB12019D
:10191B0046E4FBFA798078BF1200553160316912C9
:10192B00024F31601203A3AD07AC06ED4CC360014F
:10193B00D3921CECFFEF90F141F0ED90F140F0D21F
:10194B001D90F129E04401F022900041E0F8A3E062
:10195B00F9A3E0FA228F288E278D268C2522E4FB13
:10196B00FA79C8784222900047E0FAA3E0FBD394BF
:10197B0000EA64809480401971C78E258F26D1C2EE
:10198B00FFC39526E52551A698500A8E258F2680F4
:10199B00048A258B265192E0FF65267003EE6525A0
:1019AB0070024191D3E5269400E525648094805024
:1019BB0002417AE5269FFFE5259EFED3EF9458EE74
:1019CB00648094824002D21E201E02415990004531
:1019DB00E07002A3E0701DC3E5269458E5256480F2
:1019EB0094829000455004519980507402F0A37476
:1019FB0058F08047300508900046E02432803412BE
:101A0B0016A824F8601724FB60130470209000467E
:101A1B00E024E8F0900045E03403F0801E9000468F
:101A2B00E02490F0900045E03401F0800E900046E9
:101A3B00E02402F0900045E03400F0C3900046E053
:101A4B009526E525120C73984009C21E8003900061
:101A5B00455199201F0BD2937F057E0012152CD276
:101A6B001F5192E0FF11279000411206B28015C260
:101A7B00939000411206BE00000000C21FE49000CC
:101A8B0045F0A3F0D21B22900045E0FEA322E525F2
:101A9B00F0A3E526F022FCC3EF9DEC6480F8EE6426
:101AAB0080227F0A7E0012152C1235D6501790001B
:101ABB0056E0C36480948C5005E004F0800CE490F5
:101ACB000056F061B7E4900056F0E54FB40A0040C1
:101ADB000261BB901AE5F8282873021B03021B0D49
:101AEB00021B12021B33021B17021B33021B1902B0
:101AFB001B71021B71021B71C2B0C281E4900057B3
:101B0B00F022C2B0D28122D2B0C28122801571BC28
:101B1B004F7F8060027F00900057EFF071C04F70D5
:101B2B000261B7D2B0D28122C281900057E0FF543C
:101B3B007FFEE54F7D00B403027D03C3ED51A698F4
:101B4B00500C0EEF5480900057F04EF0800E71BC8D
:101B5B004F7F8060027F00900057EFF071BC4FC346
:101B6B006001D392B022900057E0547FF0E54F64B0
:101B7B00086005E54FB409047F0680027F0A9000D8
:101B8B0057E0FED3EF51A6984004E4F54F229000A6
:101B9B0057E0FF04F0EF75F002120424AFF0EF6092
:101BAB000BE54FB40903D28122D2B022C2B0C2815D
:101BBB0022900057E05480FF3395E022200C06D191
:101BCB00C2FFC20E22900037912B122FD8FF90002C
:101BDB003AE03EFE30E703E4FEFF900047E0FCA353
:101BEB00E0FDC39FFFEC9EFEC3EF9486EE648094F2
:101BFB00815015ED247AFEEC34FE90003AF0A3CE22
:101C0B00F0122FD07E017F86900048E02438FD90A3
:101C1B000047E034FF51A1985002D20E22900011E0
:101C2B00E0FEA3E0FF7C0022900002E014B40B0066
:101C3B004002A186901C46123B1A73021C67021CC1
:101C4B0077021CC2021CC8021CDF021CE5021CFC32
:101C5B00021D52021D6A021D03021D14900001E0B9
:101C6B006002A186740FF0A37402F0221231148F5C
:101C7B004F900001E06002A186900011E0FEA3E00E
:101C8B00FFD394E7EE648094834021D1BBD3ED94D2
:101C9B0004EC64809480400BE0240AF0900011E087
:101CAB003400F091287D0A1204B0D1CA91287D64CA
:101CBB001204B07D0380387D047F02803891287D2B
:101CCB00641204B0900011ECF0FEA3EDF0FFD1BB59
:101CDB007D05801B7D067F04801B3010051230A80C
:101CEB00F02291287D0A1204B0AE04AF057D07C126
:101CFB00D37D087F0102307C900001E0707DA374DE
:101D0B000BF0900001741FF022900001E0FFC394D0
:101D1B00195028EF54F86023C3E50A942D120FF4E1
:101D2B005005754F018017C3E50A9437120FF45015
:101D3B0005754F048008754F028003E4F54F900042
:101D4B0001E07037A38014900001E0702E1216A8EA
:101D5B00700690000D7412F09000027409F022C20C
:101D6B0010E4900011F0A3F090000DE0600302303E
:101D7B00B0122FE3EF7004900002F0221216A8FFAE
:101D8B0064076004EFB40A09900045912B7D0A802B
:101D9B0007900045912B7D0F1204B0C374749FF50F
:101DAB0028740E9EF527C3E52894E4E527648094F8
:101DBB008C500675270C7528E4E55014601C1460D4
:101DCB003614604D24037059C3900010E09528E53C
:101DDB0027F1ED98504B75500122E52824FAD12DAF
:101DEB004003E4F550E5282438FFE52734FFFEC314
:101DFB00EDD13B502C8027E5282432D12D400375A3
:101E0B005001C3ED9486EC6480948B501475500391
:101E1B0022D3900010E09480F1F0948C4003755025
:101E2B000222FFE43527FE90000FE0FCA3E0FDD378
:101E3B009FEE6480F8EC648098221216A8B4020C12
:101E4B0090001BE0F525A3E0F526800B9000051212
:101E5B0004E6F52685F02590000FE0FEA3E0FFD306
:101E6B0094BEEE6480948A4014D3EF9526E52551F9
:101E7B00A69840028001D39211C2128004C211D2E3
:101E8B0012B187E54FD39406502590004AE06003CA
:101E9B0002382B900002E06002813390000DE0705D
:101EAB00081216A8D3940140030230CFE4F54F2259
:101EBB007C007D0A0204B0900047E0FEA3E0229074
:101ECB000011EEF0A3EFF022900001E07011EF4E45
:101EDB0070057480F08003123AA4900002EDF0229A
:101EEB007526FFC217F131754F031526E5266004E1
:101EFB0051AD80F6C2AF007596AA75965575978051
:101F0B0080FE2220011FF1C2C2161221C5C217F199
:101F1B0031752664754F0651ADF1D950021526E582
:101F2B002670F4D1FF22301707C2AF0075FBAA222F
:101F3B0075FB5500D2AF227B017A00792F12320C40
:101F4B0090004DEEF0A3EFF07B017A00792F7D032B
:101F5B001231DB900032E06F704E900031E0C330F5
:101F6B00E101D39206900031E0C330E201D392003D
:101F7B00900031E0C330E001D3920190002FE0FFDD
:101F8B00A3E0900019CFF0A3EFF0900032E09000A7
:101F9B004FF090004EE004F0700690004DE004F01E
:101FAB00F1D9400FF10E800BF1C2D201D2161221E2
:101FBB00C5D1EBC217E13112329AC201D206120F10
:101FCB00FB12164A60054003D20022C20022A2A6D1
:101FDB00221233BAEF2432FFE43EFED3900010E01E
:101FEB009FEE6480F890000FE0648022EF14600E87
:101FFB0014600F1460102403700FED42AC22ED42FD
:10200B00AD22ED42AE22ED42AF22EF14601114600F
:10201B00151460192403701CE5AC5D6017D322E521
:10202B00AD5D6010D322E5AE5D6009D322E5AF5DF7
:10203B006002D322C3227D407F021115403B9000EA
:10204B005CE0FF25E0F030A603E004F090005CE0DC
:10205B00FCF46003EC7022122C5FE4F5B6BCFF03BA
:10206B00C38001D392227B01BCFF027B027D067FE2
:10207B0002122CD67D40121FF7302208E54730E7BD
:10208B00037547807F822005027F85AC07302226AF
:10209B00E546B50421D3E54964809480400CAF49F3
:1020AB00EF3395E0FE122D508009E4F549754B0195
:1020BB00754801E4F546202213E547B4840EE4F598
:1020CB0047E5487004754A0122E4F54822123AAFFD
:1020DB00EF6003122C5FD3E51F9400E51E940040C4
:1020EB0009E51F151F7002151E22122A6975250C92
:1020FB00438704438702000000000000122D5EEFAF
:10210B0060263199122C4C12281E7F017E0012156D
:10211B002C1141301A0AC21AB214301403122DB109
:10212B00122D6A50E5022BE0C21490005DE06004B2
:10213B0014F08039200134D201F1F53199120FAA34
:10214B00754F08E54FB4080F301AF8B2143014036A
:10215B00121AB4C21A80ECC214C21631C5E4F5C807
:10216B0053A8DF122AB8122A898002D214E52560FF
:10217B000415258010122B08400575250C800630A0
:10218B001403122C16E51F451E700201FB22538807
:10219B00CF5389F0438901E4F58CF58AF5CE75CBE5
:1021AB000B75CADB75CD5D75CC66F5C975CF8075C2
:1021BB00A8A2C21AC21975C89122E4FFD217121F26
:1021CB00313001010F300603430702300003430790
:1021DB0004900035EFF0900019E0FFA3E09000337E
:1021EB00CFF0A3EFF07B017A0079337D031231DB63
:1021FB00900036EFF020160E90004FE0FF90003667
:10220B00E0B50702807320160FC390004EE094FEDA
:10221B0090004DE0940040181217ED7D007C027F7A
:10222B001DF1C7E4FC7F1DF1C7E490004DF0A3F056
:10223B00E4F52790004DE0FEA3E07802C333CE33E4
:10224B00CED8F97C002527FDEC3EFC74332527F90D
:10225B00E43400FA7B017F19F1C70527E527C39406
:10226B000440D090004EE004F0700690004DE00466
:10227B00F0900036E090004FF0C217021F31122D84
:10228B00774002C143122DE48F25900015E0FFC368
:10229B0094034006EFD394064002F1F51216A8F50D
:1022AB0026900054E060028194E526147002812D83
:1022BB00147002813C24FB7002815924FD70028151
:1022CB0082240A6002819430015CE525B4051B75FC
:1022DB004F09C201123B25121FF0948B4006900050
:1022EB00147405F0C21631C58194122FE3BF01207F
:1022FB00122C1C121FF0948B5007E4900022F081DB
:10230B0094300702819490002274A0F0D20781943C
:10231B00300707E4900022F0C207122D6A400281B9
:10232B0094754F078194200814122D96500F123B71
:10233B0026121FF0948B40731217C38128300808A4
:10234B00F1504004C2088128E52514B4080040026E
:10235B008128902364123B1A7302237C02242802E7
:10236B0023850223990223BB0223C502240E0224D8
:10237B0025900015E0FFF1608128D3900010E094C8
:10238B00BE121FF0948A40047F08801A801D20091A
:10239B001AD3900010E09416121FF0948D400C127B
:1023AB003B0FD2057F0A1216B18072754F07806DF5
:1023BB0020016A754F08D201805A12164A600640F6
:1023CB0004D2008007D3300001C392002000077FA6
:1023DB00041216228003122C78200025D390001AA9
:1023EB00E0946C900019E0648094874003F189F0CD
:1023FB00D390001EE0946C1236F894874003F18959
:10240B00F08011D3300601C392067F023006027FA3
:10241B0001121622C21631C580031239DA12165D6B
:10242B0080671237E64062122D96505D1235CD80D3
:10243B0058300812E490001FF0F150400C122DF2AE
:10244B004007C2088003122E931235FE803B300DDD
:10245B00067F03F1608032E5256402702C90001337
:10246B00E0B409047F038005900013E0FFF1609056
:10247B0000137403F08012200D0A900016E0700216
:10248B00A3E07005D20812179D1216A8B5260B9063
:10249B000054E07005AF25121709122DA320001070
:1024AB001216A8FF64066004EFB407047F03F16003
:1024BB003005091216A8640A6002C205900014E0E8
:1024CB007009900022E0600A300707F19074E6F083
:1024DB00C119900054E060101239E9EF7E006004DE
:1024EB007F96C1177F00C11712317D5007F1907491
:1024FB001EF0C1191216A824FE7002A1BE24FA7098
:10250B0002A1A524FE604C14603424FE7002A1A528
:10251B00046002A1F9D20F1238D6EF24FE60092411
:10252B0002700C122C24C119F19074C8F0C119C29D
:10253B000F300004D14480047E077F6CC117D15447
:10254B00F157D3948AEE6480948240028001D39237
:10255B000FC119200014F15050067E077F6C801BB1
:10256B00121796900003D14D8011F150121796500F
:10257B00059000018003900003D14DF1571217967F
:10258B00123385900047E0B5F009A3E0B50704D2FC
:10259B000F807B123B0FC20F8074123938EF60042F
:1025AB00D14480047E007F00F1574EC37001D3925B
:1025BB000F805BC20F12338D900019121E359000E5
:1025CB00474007EEF0A3EFF08005ECF0A3EDF090A1
:1025DB00001FE06039300210121EC27802CEA2E753
:1025EB0013CE13D8F8FF80047E007F1E801ED144CB
:1025FB00D39401EE648094804010900048E094C224
:10260B00F18294815004D20F8002C20FF157200047
:10261B0010D3900048E0946CF18294874003F189C9
:10262B00F0300014D3900048E0949AF182949040DB
:10263B00077410F0A3749AF022AB4CAA4DA94E90DC
:10264B0000011204E6FFAEF022300004D1448004F6
:10265B007E077F6C8E278F2890003DE0146054140A
:10266B006064147002E12D24036002E13C123B2DE7
:10267B0040028057C3123B37F1455029D144123ADF
:10268B00ED94805002E4F090003FE004F07006906F
:10269B00003EE004F0D3123B37F1455002E13C120F
:1026AB00151CF0E13C90003D7401F090003C74046B
:1026BB00F0807E90003CE06005AE27AF28229000B2
:1026CB003D7402F0806B123B2D4005E014F08061ED
:1026DB00121796123385D390003FE09FE5F0F1453A
:1026EB004032D14A123AED94805002E4F090003F10
:1026FB00E024FFF090003EE034FF121795900003AA
:10270B00D14DC390003FE09FEEF1455024EEF0A376
:10271B00EFF0801D90003D7403F090003C7428F0A6
:10272B00800F90003CE06004E4FEFF22E490003D4B
:10273B00F090003EE0FEA3E0FF226480F890003EA4
:10274B00E064809822E548C36001D322900047EEF5
:10275B00F0A3EFF0228F28AF28121FDC984005AFB3
:10276B00280216B1E528D3940250EC1216A8700477
:10277B00754F072202179D900047E0648022740773
:10278B00F0A3746C22900047E4F0A32220111520D3
:10279B001212E550700E300004D14480047E077F86
:1027AB006C123396227C002529FDEC3EFCAB267E79
:1027BB0000E5282529F9EE3527FA7F118F2CE52C1A
:1027CB00B41905120446F5FEEDF5FCECFFEFF5FD33
:1027DB0000852CFF000000000000E5FF20E0FBE57A
:1027EB002CB41105E5FE12048C229000157403F035
:1027FB0022EF14600F14601114601324037013ED97
:10280B00F452AC22EDF452AD22EDF452AE22EDF4C3
:10281B0052AF227D407F021227FC90005C74AAF01D
:10282B00227D067F02116BEF64014E702FC222E5F1
:10283B0046547FFFE4F546E5487004E54B6007E43A
:10284B00F54BF5488018EFC394055012C3E5496466
:10285B00809488500205497547808002914C80B363
:10286B00EF14602314603F14605B24037074EDD38A
:10287B0094054002806CED24803102088002C33342
:10288B00D8FC55ACFC805FEDD394075006EDC39498
:10289B00035002804DED24883102088002C333D8E7
:1028AB00FC55ADFC8040EDD394065006EDC394016E
:1028BB005002802EED24903102088002C333D8FCE5
:1028CB0055AEFC8021EDD3940640028015ED249883
:1028DB00FBE434F0FA310C8002C333D8FC55AFFC67
:1028EB008004E4FEFF22EC7003FEFF228B828A83BE
:1028FB00E05403FF7E0022FBE434F0FAA8057401D8
:10290B0022AF05A80774010822EF14603614605F2C
:10291B0014700221A62403600221C8EDD394054054
:10292B000221C830150EA8057401088002C333D8E4
:10293B00FC428022A8057401088002C333D8FCF442
:10294B00528022EDD394075074EDC39403406E3044
:10295B00150EA8057401088002C333D8FC429022DF
:10296B00A8057401088002C333D8FCF4529022ED01
:10297B00D394065048EDC39401404230150EA80580
:10298B007401088002C333D8FC42A022A80574014D
:10299B00088002C333D8FCF452A022EDD394065026
:1029AB001C30150EA8057401088002C333D8FC42F5
:1029BB00B022310C8002C333D8FCF452B022E4F5C0
:1029CB00DE90F692F051C8E4FB516131F6752603A7
:1029DB00E4F527F5287A007926120C7DC2157D01C6
:1029EB007F033114C215E41DFF2114EB64026065F3
:1029FB00EB64036060EB6419605BEBD3941C505584
:102A0B00EF14601514602314603124037047EDD369
:102A1B0094055041ED2400802BEDD394075036EDF7
:102A2B00C394034030ED2410801AEDD39406502547
:102A3B00EDC39401401FED24208009EDD394065083
:102A4B0014ED2430F52AE434F0F529EB541F852AD4
:102A5B0082852983F022FDFF31F60D7F0322E4F5F9
:102A6B00C853A8DF51E831C951B85189E5BD20E7FA
:102A7B000C75BC4275BD0F43BD3043BD8022911C0C
:102A8B00121FF0948B4025300622752601E4F527A2
:102A9B007528015177D2231216A871D9B401067D7E
:102AAB00017F0380047D02E4FF120C8622C2B0C2B8
:102ABB0081E4F54F900057F0900056F0227F049080
:102ACB00002374FEF0A3DFFCE4F508900027120648
:102ADB00BE000000009135F0A3F0D22122E4FB7D73
:102AEB00037F0231F690F1287401F090F121E4F0AC
:102AFB0090F126F090F125F090F123F022202302A3
:102B0B00D322120F311217F4912CC39454EE64801C
:102B1B00948B5005C223120FAA31C9E4F51EF51F81
:102B2B00C322752501E4F526F527FB7D067F0231CF
:102B3B00F67A0079257D40120C867D407F02121FAC
:102B4B00F77B027D0691D643B904915F90005C74CC
:102B5B00FFF0E4F546F547F549F54AF54B22910CA4
:102B6B00C2A371D97D087F02120C8690F120E4F08C
:102B7B00A304F090F123F090F12A74FFF090F1226E
:102B8B00E4F090F12704F0A3F090F160E4F090F101
:102B9B0065F090F16404F090F131741FF090F13016
:102BAB00743FF090F141E4F090F140F0900041124D
:102BBB0006BE00000000C21DC21B90F166E4F0903F
:102BCB00F12604F0913E7B127D037F0221F67B0000
:102BDB007A007926229116120FA571F2120FFBC201
:102BEB00151215BBC22122910CC29371D97D087F9E
:102BFB0001120C869124900045F0A3F0C21FC21E57
:102C0B002275260375270175280122E4F5BDF5BC55
:102C1B0022C3900010E0945422E4900047F0A3F0FC
:102C2B002290000FEEF0A3EFF022E490002BF0A324
:102C3B00F0A32290F1297401F090F129E020E0F942
:102C4B0022D222E54730E703754780E54620E703AC
:102C5B007546802290005D74961216A7B401077515
:102C6B001E00751FF022751E00751F282290000391
:102C7B00E07008915F9000037404F02220000E12A4
:102C8B00164A4009D2009178C2161221C522C0E023
:102C9B00C0F0C083C082C0D075D000C000C001C0DE
:102CAB0002C003C004C005C006C007112C75B600D6
:102CBB00D007D006D005D004D003D002D001D0006D
:102CCB00D0D0D082D083D0F0D0E032EBD39403506D
:102CDB0055EF14601514602314603124037047ED15
:102CEB00D394055041ED2480802BEDD394075036BF
:102CFB00EDC394034030ED2488801AEDD394065035
:102D0B0025EDC39401401FED24908009EDD394066B
:102D1B005014ED2498F529E434F0F528EB54038591
:102D2B002982852883F022C2AF007596AA75965525
:102D3B0053977F2275C900B219301902D21A325338
:102D4B0088EFD21832E4F547F54AF549F548EF0418
:102D5B00F54B2220A6037F0122E5B65440FF22E566
:102D6B004B6002D322E54AC36001D322201302D366
:102D7B002290000DE07006900003E06002C322B1C8
:102D8B006A4002C213B1A3B196C322E54B64016042
:102D9B0002C322E4F54BD322E54A6009E5496005FD
:102DAB00E4F54AF54922E4FE74462EF8E630E724B2
:102DBB00547FFDEE700B7C053005027C02AF048066
:102DCB00027F04EDC39F50010DE65480F674462E2E
:102DDB00F8E64DF60EBE02D022E54B7004E54A70C4
:102DEB00037F0022AF4922E54BB40202D322C32258
:102DFB008D287E02B1F25004D21480051227509216
:102E0B001420120F7E0A301103301407E49000587F
:102E1B00F08002F18C900058E0D39E4018EF6002D6
:102E2B00800630140630120302179DE4900058F010
:102E3B00AF281216B1221216A8B40A028009122763
:102E4B0050400AB1F24006E4900018F022900018AE
:102E5B00E0FF541FFE7012EF20E60EB1F27D8050A2
:102E6B00027D20EF4D900018F0900018E054E0F038
:102E7B00C3EE648094865007E020E6030E8002E4E4
:102E8B00FE900018E04EF02212275092F7B1F2722A
:102E9B00F7921430000512264480047E077F6C9055
:102EAB00001DE0FCA3E0FDC3121E3B50028004ACEE
:102EBB0006AD07AE04AF05121796F186FDC3EF9D65
:102ECB00E5F0121AA698500C301409F1644005EE87
:102EDB00F0A3EFF01227505026200423900021E09E
:102EEB00600414F08059C3F164500EA3E004F07039
:102EFB0006900019E004F08040D202F175803AB1DF
:102F0B00F2502E20042B900021E0600414F0802F4F
:102F1B0012179690000312264DF163400EA3E02486
:102F2B00FFF0900019E034FFF08004C202F17580CD
:102F3B000820140B300408C2049000217406F030F2
:102F4B0014079000207420F022900020E0B40107B9
:102F5B0014F0C2161221C522D390001AE09FEE6422
:102F6B0080F8900019E06480982290001F7404F0A0
:102F7B00900019EEF0A3EFF0D204229000010204AE
:102F8B00E6900058E0700204F0228E2F8F3012175B
:102F9B00961217E77002802A121796F186FBAAF099
:102FAB00900037121C2BF1D890003AE03EC3EB9502
:102FBB0030FFEA952FFE90003AF0A3EFF0EE30E7EA
:102FCB0004E4120042E4900037F0A3F0227D0C12CF
:102FDB0004B090003BE02F22E54B14FFD3648094A8
:102FEB00804001227F0022439A3C43A11043A23030
:102FFB0043A3045380C35390EF53A0CF53B0FB9024
:10300B00F00AE054C3F0A3E054C3F090F01AE0547C
:10301B00EFF0A3E054EFF090F02AE054CFF0A3E0F0
:10302B0054CFF090F03AE054FBF0A3E054FBF022C5
:10303B0090000274011216A7600DE54F6006900018
:10304B00017408F0E4F54F22E51D6024900002E0C6
:10305B00701E113BD210E50AAE0930E707FF7CFF6B
:10306B007DF68006AF0A7C007D0A12049E121ECAF2
:10307B00228F278D28900001E030E708121622E4FA
:10308B00900001F0900001E0FF7E0030E102AE27DE
:10309B008E4FEF7007F54F11A8E528F02290000135
:1030AB00740AF0A322E55014600E14600F14601024
:1030BB002403700F754F0122754F0422754F0222A6
:1030CB00754F032290000DE06004D2148032300162
:1030DB0004C214802B1216A8640D6004D214802035
:1030EB00E550B40304D2148017900000E070037411
:1030FB002BF0900000E0D3940340028001D3921494
:10310B0030140280A0E4F54F22900001E0FFD3942D
:10311B0009403AEF24F8C31314FF301007E50A20D7
:10312B00E7020F0F201013D3900012E094E79000EA
:10313B0011E06480948340020F0FEF3395E0FE742F
:10314B00032FF58274003EF583E493FF227F002268
:10315B00900004747FF0A374FEF0A37480F0A3744A
:10316B0002F0E490000CF09000081206BE00000084
:10317B000022E55064036004C214801A1216A814CE
:10318B00600E24F9600A24FD24FD5004240E700403
:10319B00C2148002D214201407E490000EF08013A6
:1031AB0090000EE0FF700404F08008EFD39474409D
:1031BB0002D322C322900003E030E0057F011216F8
:1031CB002290000DE07008900003E0600214F022E2
:1031DB008B2C8A2D892E7FFFAB2C052EE52EAA2D4D
:1031EB007002052D14F912044662077E08EF30E7D2
:1031FB000725E06407FF8004EF25E0FFDEEFDDD855
:10320B00228B268A278928E4F52AF52BD217121F41
:10321B0031E4F529AE2AE52B7802C333CE33CED871
:10322B00F91227B00529E529C3940440E7AB26AA78
:10323B0027A9287D0331DBAB26AA27A928900003F9
:10324B0012045FB50713052BE52B7002052AC394F7
:10325B00FEE52A6480948040B8D3E52B9400E52AE0
:10326B00648094804008E52B152B7002152AE4F539
:10327B0029AE2AE52B7802C333CE33CED8F91227E9
:10328B00B00529E529C3940440E7AE2AAF2B2212DF
:10329B0017ED7F0251B6E527600771859000196124
:1032AB007E900019E4F0A374C8F022E412048CFEA3
:1032BB0071A9B50707740112048C80040EBE0EF0C1
:1032CB00AF06EF75F00EA42474F9740935F0FA7B90
:1032DB00FF221227F5900013F0E490004AF09000C3
:1032EB001FF0121F427B007A0079257F0251B68BAB
:1032FB004C8A4D894EE52560429000051204E6FF8D
:10330B0090001B717E30000512264A80047E077FD9
:10331B006C719690000312264DC3122F645005EE6C
:10332B00F0A3EFF0718D122F634005EEF0A3EFF0D9
:10333B00754CFF754D09754E7480057F071217CDBF
:10334B00E4900014F0C205C20FC202C208C207C249
:10335B00039000217406F0719F9138E490003D12A8
:10336B001795718590003E717EE490003CF09000C3
:10337B0040F022E5F0F0A3EFF0229000031204E6F8
:10338B00FF2290001DE0FEA3E0FF2290001DEEF057
:10339B00A3EFF022E490005BF090005AF022EE7560
:1033AB00F00EA42474F582E43409F583E49322E44B
:1033BB00FE71A9B5070EEE75F00EA42479F582E423
:1033CB003409805F0EBE0EE9E4FEFF22EF6402704B
:1033DB004920014620000F7F051227601216A864B2
:1033EB00057037D203227F07121FDC984027200974
:1033FB00241216A8FFD394014005900013EFF09010
:10340B000015E0FFD394024007EF9407500291267A
:10341B007F070216B17F0612276022120446900026
:10342B0015F022F583E493FE740193FF2290005074
:10343B007401F0E4900052F09000517418F0228D5A
:10344B002CA907E9600CE50A24D1FBE50934FFFA46
:10345B00800AC37428950AFBE49509FAEA30E7035E
:10346B00E4FAFBB1134002801D91C374309BFD74D1
:10347B00759A121AA198500AE52C60067E007F01FE
:10348B0080047E007F00EF4E6009EB25E0FBEA3302
:10349B00FA8003E4FAFB0BBB00010AE96006AE02FB
:1034AB00AF038007C3E49BFFE49AFE900038E02F44
:1034BB00F0900037E03EF022900037E0FEA3E0FFF3
:1034CB007CFF7DFF12049EC322B113400280149136
:1034DB00C3EF94C0EE648094837E0050047F018020
:1034EB00027F00EF4E7010900037121C2B7D0C12D8
:1034FB0004B0B106122FD02212049E90003BE02F95
:10350B00F090003AE03EF022900037E0FEA3E0FF9F
:10351B00D39400EE6480948022AF25EF3395E0FEC8
:10352B00D3B1C04002D322AF26EF3395E0FEC3B137
:10353B00C05002C322A21522E51D6073A20D921585
:10354B00752537752628B124920DA209921575257C
:10355B0032752628B1249209A20A92157525417558
:10356B002629B124920A300A077F061217CD80094B
:10357B0090004AE0B40602B1CD1217961217E7700D
:10358B0003C20C22A20C921575252E752623B1248D
:10359B009214301403D20C2220141990003AE070CC
:1035AB0002A3E0700F900037E030E708C20C227FD7
:1035BB00051217CD22E50A9FEE6480F8E5096480B9
:1035CB009822E490004AF0FF0216B1900002E060EE
:1035DB0002C322A20E22900059E06008C394095046
:1035EB0003E004F0900058E06008C3940B5003E034
:1035FB0004F022301102C198301202C198E49000FD
:10360B0058F0E5506002C1F4121796122F86FFC3D3
:10361B0090001EE09FE5F0D1F598506B900059E0BB
:10362B00FF700404F08008EFC394095002C1F490BA
:10363B0000597401F090000512264DD390001CE048
:10364B009FEE6480F890001BE06480984007EEF0DA
:10365B00A3EFF0800E90001CE02432F090001BE0F2
:10366B003400F0122644D390001EE09FEED1F59863
:10367B004006EEF0A3EFF02290001EE024FAF0904B
:10368B00001DE03400F022E4900059F022E4900099
:10369B0059F0122F8C30120C900058E0D394044048
:1036AB000302179D900058E0D3940A403CD390003E
:1036BB001EE094F4D1F89481400CA3E02406F09022
:1036CB00001DE034FFF0D390001CE0942290001B0F
:1036DB00E06480948B400CA3E024E7F090001BE0A7
:1036EB0034FFF09000587401F0226480F890001DB4
:1036FB00E0648022C3EF648094885004EF2DFF2296
:10370B007F08221217E44006E490004CF022900050
:10371B004CE0C394045004E004F02290004BE054BE
:10372B000FF5257F337E337D8B7C40AB14AA13A919
:10373B0012A8111202EC600740057F031217CDE4AB
:10374B00FFFE7D807CBFF1DD120055F1D250097D6B
:10375B0002F1CBE4F5268039E4FFFE7D307C41F1AC
:10376B00D25007F1C97526028027E4FFFE7D887CC5
:10377B0041F1D260094007F1C97526018013D3E5E9
:10378B0025648094804006E52514FF80027F008F1E
:10379B0025E526C454F0452590004BF0C3E5256480
:1037AB008094884018E0C4540F24FE60070470080E
:1037BB007F0480067F0180027F021217CD227D01DC
:1037CB00AF25D1FF8F2522AB10AA0FA90EA80D0292
:1037DB0002ECAB18AA17A916A81522E4FFEF90006C
:1037EB000893FE90004AE0FDEEB50502C3220FBF21
:1037FB0003EBD32290004AE0FF7005900049F022C2
:10380B00900049E004F01178240FFFE43EFEE01134
:10381B00214002E4F022C39FEE6480F8748098226A
:10382B00900049E0FFC39405500BEFC3940350394C
:10383B00EF04F54F2290004AE0FF11782405FFE4D6
:10384B003EFE900049E0FD1121501EED24FBFFECE4
:10385B0034FFFE7D031204B07C007D021204B0ED38
:10386B004C7004754F02228000E4F54F227E007CE1
:10387B00007D0612049EEF22900020E054FE6003B0
:10388B00E014F090001FE0600714F0E07002C20239
:10389B00900022E0600214F0900016E07002A3E0AA
:1038AB00600E900017E024FFF0900016E034FFF05C
:1038BB00900014E0600214F02290003CE0600214CF
:1038CB00F022900051E0600214F022900050E06072
:1038DB001724FE602214603C24027042900051E0D9
:1038EB00D3940040217F0222900052744BF0900041
:1038FB00507402F07F0122900052E014F0E0D39458
:10390B000040037F01229000517418F09000507416
:10391B0003F0800A900051E07004900050F07F009B
:10392B002290005AE07005EDF0A3EFF02290005BBF
:10393B00E0B407005063903948F828287302395DCA
:10394B0002396802398402398A02399902396802CC
:10395B00399FE490005AF07D0B7F01803A7F023152
:10396B00A750037F012290005BE0B401067D077F27
:10397B000280247D237F06801E7D237F0380187F9A
:10398B000631A750037F01227D077F0480097D0B41
:10399B007F058003E4FDFF312C7F0022AB07EB3367
:1039AB0095E0FEEF25E0FDEE33FC90005AE0FF338F
:1039BB0095E0FE1204B0EB14D36480F8ED648098AC
:1039CB004002D322C32290005AE0600214F02290EE
:1039DB000054E0700804F0900001740FF022900086
:1039EB0054E024FE606C14700241851460232403A0
:1039FB0060024198900001E0FED3940640037F01E2
:103A0B0022EE60024198900055F0900053F0A38095
:103A1B0079519BFF642D6004EFB420179000547410
:103A2B0003F0EF900001B42D057424F0801C741486
:103A3B00F08017519B540FFF70089000537432F0B5
:103A4B00800251A49000547402F0900055E004F0F1
:103A5B00803B900053E07019900001E0FF700B74F5
:103A6B000CF09000547403F08023EF30E11F7F01C2
:103A7B0022900053E014F07F0122900001E0700DC2
:103A8B00519B9000547003F080037404F07F00226C
:103A9B00900055E090002E9322EF25E025E0149046
:103AAB000001F022900002E07006900054E06003E9
:103ABB007F0122D3900048E094001227829480501B
:103ACB00071216A854FE60037F01227F0022EDF43B
:103ADB00F58275830085832A85822B85832C8582CD
:103AEB002D22AC27AD281204B0EF14900040F0C388
:103AFB00648022EDF4F58275830085832E85822FF9
:103B0B00858330229000167401F0A374E0F02275C7
:103B1B00F003A4C58325F0C58322D3900010E09455
:103B2B002222900040E0D3648094802290003FE0FA
:103B3B009528E52722A804A905AA06AB0722E4FBD2
:063B4B00FA797A784422A9
:00000001FF
