:1000000002074402040104020402030221AC323557
:100010002031302030362D3136203536001F080D86
:1000200000E0FBE5315BFD22020FFB0221A1C39042
:100030000046E0952AE5296480F8900045E0648058
:1000400022E0FBE52F5BFD22A21F220221570204C2
:100050000FE86480F8E933E83360110460F0ED33B1
:10006000EC337009E8FCE9FDEAFEEBFF220460DEF8
:10007000D3EB9FEA9EE99DE8C2E78CF0C2F795F0CA
:10008000400CE8CCF8E9CDF9EACEFAEBCFFB12034D
:10009000DA85D0F05804700320D5B3E80470075017
:1000A00002B2D502041992D5EC0460F7E4CCC0E0AA
:1000B000C398F8603B94186008400DD0E0FB020341
:1000C000F1E4FBFAC9FC8028E830E406E4C9FBE46B
:1000D000CAFCE830E305E4C9CACBFCE85407601069
:1000E000F8C3E913F9EA13FAEB13FBEC13FCD8F1AC
:1000F00030F52FC3E49CFCEF9BFFEE9AFEED99FDDB
:10010000D0E0FBEF4E4D4C701222DB03020416ECE4
:100110002CFCEF33FFEE33FEED33FDED30E7EB0269
:1001200003F1EF2BFFEE3AFEED39FDD0E0FB50136B
:100130000BBB0003020419ED13FDEE13FEEF13FFDA
:10014000EC13FC0203F1EC4D6011E8497017ED333C
:10015000EC3304600DE4FCFFFEFD22E933E83304D8
:1001600070F802040F1203DA58046009E4CC248109
:100170005006285009020419284003020416C0E062
:10018000EB4A7044B98006D0E0FB020405EF4E70E4
:100190001CBD8008EBFFEAFEE9FD80EBE98DF0A4D1
:1001A000FEE5F002022FE9CDF9EAFEEBFFEF89F060
:1001B000A4FCE5F0CE89F0A42EFFE435F0CD89F063
:1001C000A42DFEE435F08067EF4E7005BD80D7802A
:1001D000C3EF8BF0A4ACF0EE8BF0A42CFCE435F074
:1001E000F8EF8AF0A42CE5F038FCE433CB8DF0A4D2
:1001F0002CFCE5F03BF8EE8AF0A42CFCE5F038F896
:10020000E433CF89F0A42CFCE5F038CF3400CE895C
:10021000F0A42FFFE5F03EFEE433C98DF0A42EFEDE
:10022000E5F039CD8AF0A42FFFE5F03EFEE43DFD78
:1002300033D0E0FB50070BBB000F020419EC2CFC81
:10024000EF33FFEE33FEED33FD0203F1020419EC50
:100250005D046005E85904700302040F1203DA58C4
:100260000460F6EC4860F2EC7004FDFEFF22C8600A
:10027000DB2481C85009C398600250060204169816
:1002800050CAF582E9294B4A7005AB820204057514
:10029000F0007C1A7880C3EF9BEE9AED99400DC375
:1002A000EF9BFFEE9AFEED99FDE842F0DC23ACF007
:1002B000D0E0FFD0E0FED0E0FDAB8220E7101BEBEA
:1002C00060BAEC2CFCEF33FFEE33FEED33FD02039E
:1002D000F1E803F830E705C0F075F000EF2FFFEE0E
:1002E00033FEED33FD40B830E7C280AA74F8CC6429
:1002F00080CCC86480C8F58204604FC3EB9FF5F0E2
:10030000EA9E42F0E99D42F0E89C45F0603C501DB9
:10031000E5825FFFE582D313CB5BCBF42B5582FBE9
:1003200050280ABA002409B9002008801DE5825B24
:10033000FBE582D313CF5FCFF4C3132F5582FF5059
:10034000090EBE00050DBD00010CC3EB9FF5F0EAE0
:100350009E42F0E99D42F0E89C45F06007CC4820C1
:10036000E701B3EC2275F020800E75F01080057562
:10037000F0087D007E007F003392D530D503120651
:100380005AEC334010EF33FFEE33FEED33FDEC3328
:10039000FCD5F0ED22E5F0247EA2D513CC92E7CD7A
:1003A000CEFF22EDD2E7CD33EC3392D52481400647
:1003B000E4FFFEFDFC22FCE4CFCECDCC24E05011C6
:1003C00074FF80EDC3CC13CCCD13CDCE13CECF13A1
:1003D000CF0470F030D5DE02065AE9D2E7C933E81F
:1003E00033F892D5EDD2E7CD33EC33FC5002B2D5E1
:1003F00022EC30E7100FBF000C0EBE00080DBD0050
:10040000040BEB6014A2D5EB13FCED92E7FD227414
:10041000FFFCFDFEFF22E480F8A2D574FF13FC7DF3
:1004200080E480EFC2D530F707B2D563F0FF05F066
:1004300030E70CB2D5F4048463F0FF05F08001844A
:1004400030D502F40422BB010689828A83E022505F
:1004500002E722BBFE02E32289828A83E49322BB65
:10046000010CE58229F582E5833AF583E022500606
:10047000E92582F8E622BBFE06E92582F8E222E5BC
:100480008229F582E5833AF583E49322BB0106894C
:10049000828A83F0225002F722BBFE01F322EF8D05
:1004A000F0A4A8F0CF8CF0A428CE8DF0A42EFE22CC
:1004B000C2D5EC30E709B2D5E4C39DFDE49CFCEE67
:1004C00030E715B2D5E4C39FFFE49EFE1206EFC3EA
:1004D000E49DFDE49CFC80031206EF30D507C3E4E5
:1004E0009FFFE49EFE22BB0110E58229F582E58391
:1004F0003AF583E0F5F0A3E0225009E92582F88679
:10050000F008E622BBFE0AE92582F8E2F5F008E2EF
:1005100022E5832AF583E993F5F0A3E99322BB0151
:100520000A89828A83F0E5F0A3F0225006F709A732
:10053000F01922BBFE06F3E5F009F31922E88FF06B
:10054000A4CC8BF0A42CFCE98EF0A42CFC8AF0ED5A
:10055000A42CFCEA8EF0A4CDA8F08BF0A42DCC380E
:1005600025F0FDE98FF0A42CCD35F0FCEB8EF0A446
:10057000FEA9F0EB8FF0A4CFC5F02ECD39FEE43C00
:10058000FCEAA42DCE35F0FDE43CFC2275F00875A4
:100590008200EF2FFFEE33FECD33CDCC33CCC582BE
:1005A00033C5829BED9AEC99E58298400CF582EE7A
:1005B0009BFEED9AFDEC99FC0FD5F0D6E4CEFBE462
:1005C000CDFAE4CCF9A88222B800C1B90059BA002A
:1005D0002DEC8BF084CFCECDFCE5F0CBF97818EF85
:1005E0002FFFEE33FEED33FDEC33FCEB33FB10D786
:1005F00003994004EB99FB0FD8E5E4F9FA22781847
:10060000EF2FFFEE33FEED33FDEC33FCC933C910A1
:10061000D7059BE99A4007EC9BFCE99AF90FD8E0D3
:10062000E4C9FAE4CCFB2275F010EF2FFFEE33FEA5
:10063000ED33FDCC33CCC833C810D7079BEC9AE818
:1006400099400AED9BFDEC9AFCE899F80FD5F0DA99
:10065000E4CDFBE4CCFAE4C8F922C3E49FFFE49EB6
:10066000FEE49DFDE49CFC22EB9FF5F0EA9E42F047
:10067000E99D42F0EC6480C864809845F022EB9FCD
:10068000F5F0EA9E42F0E99D42F0E89C45F022E850
:10069000600FECC313FCED13FDEE13FEEF13FFD858
:1006A000F122E493FC740193FD740293FE740393AE
:1006B000FF22ECF0A3EDF0A3EEF0A3EFF022A8826E
:1006C0008583F0D083D0821206D51206D51206D5C6
:1006D0001206D5E473E493A3C583C5F0C583C8C5EA
:1006E00082C8F0A3C583C5F0C583C8C582C822BC33
:1006F000000BBE0029EF8DF084FFADF022E4CCF8B2
:1007000075F008EF2FFFEE33FEEC33FCEE9DEC9816
:100710004005FCEE9DFE0FD5F0E9E4CEFD22EDF89C
:10072000F5F0EE8420D21CFEADF075F008EF2FFF3F
:10073000ED33FD4007985006D5F0F222C398FD0F27
:10074000D5F0EA2278FFE4F6D8FD9000007F007E25
:1007500004E4F0A3DFFCDEFA758150020799020A77
:100760005DE493A3F8E493A34003F68001F208DF6D
:10077000F48029E493A3F85407240CC8C333C45469
:100780000F4420C8834004F456800146F6DFE4801D
:100790000B0102040810204080900822E47E01939F
:1007A00060BCA3FF543F30E509541FFEE493A360EF
:1007B000010ECF54C025E060A840B8E493A3FAE44A
:1007C00093A3F8E493A3C8C582C8CAC583CAF0A39B
:1007D000C8C582C8CAC583CADFE9DEE780BEC2D504
:1007E000E830E70FB2D5E4C39BFBE49AFAE499F949
:1007F000E498F8EC30E717B2D51208141205C8E4F3
:10080000C39BFBE49AFAE499F9E498F88003120593
:10081000C830D50DE4C39FFFE49EFEE49DFDE49C3B
:10082000FC22C12041000D0041000E0041000000EB
:1008300041000300C110C11341004B0041005400AE
:1008400041005500C123000012002B0010DBD60030
:100850000FCC1E000ECF6C000DE44B000D0965009F
:100860000C3D80000B7F7C000ACE50000A29070057
:10087000098EC30008FEB50008781F0007FA520071
:100880000784AE0007169D0006AF9700064F1C00B8
:1008900005F4B800059FFE0005508B000506020018
:1008A00004C00D00047E5D000440A9000406AC00F5
:1008B00003D02700039CE100036CA100033F370035
:1008C0000314720002EC280002C62F0002A263008B
:1008D00002809F000260C3000242B10002264C0069
:1008E000020B7B0001F2230001DA2E0001C3870016
:1008F00001AE19000199D2000186A00001747200B6
:1009000001633A000152EA00014372000134C80059
:100910000126DF000119AC00010D2500010141F5A0
:10092000F5EB3AE107D755CE1DC558BD00B50EAD64
:100930007FA64C9F7098E792AC8CBB871181AA7CF4
:1009400082779772E46E676A1E6606621C5E5F5A63
:10095000CB575F541950F84DF84B1A485A45B843D5
:100960003340C83E773C3E3A1D3812361D343B3288
:100970006D30B22F082D6F2BE62A6C290127A42693
:1009800055251323DD22B22193207F1F751E75008C
:100990000000000000000000000000000000000057
:1009A0000100010000000001000000000000000044
:1009B0000000000000020BB801900C800001010251
:1009C00000000003025800000B2201010103020491
:1009D000000404B000000BB8010101030105030588
:1009E00005DC00000C1C01010104010604060A8C50
:1009F00000000C8001010105010305070EA600009F
:100A00000D160001000700000608032000000B225D
:100A100000010008020B0C0900C800000B220000B6
:100A200001090203000A0EA600C80D160001010903
:100A30000200000B0C1C00A00BB80001000B020C04
:100A4000080C0C1C00000BB80001000C02080B0D78
:100A5000022600000B220000000D0000001221946D
:100A6000121F111221B212196A122FD6121F1E1252
:100A700024EED2151215B71237B8C221120028126F
:100A80002709122F331235F812302212297E12282C
:100A90001C301AE82020181221E512391B122CBD37
:100AA00051CD123823121A461239FDD220801A1263
:100AB000378512140A1239381239BC122615123A27
:100AC00021121F5B123A18C220C21A80AF200C0BF1
:100AD000C20B1227BA1227E6C20E22300F028194EF
:100AE00012004840028194752902752AEE300B08E5
:100AF000752901752AF48006752902752AEED3122C
:100B00002C1E500261FAD3E50A9434122C224002C2
:100B1000D20BE50A24D2F528E50934FFF527900029
:100B20003974181216A3FF64076004EFB40A1BD3CC
:100B3000900046E0942212003A948B400DAE27AF0D
:100B4000287C007D141238EF61ECD3E5289402E58F
:100B50002764809480500261EC120446FF640760B1
:100B600004EFB40A09122AA67C037DE88007122A42
:100B7000A67C057D141204B08E258F26E52530E76E
:100B800005E4F525F5260526E52670020525120063
:100B90002E9850051238C88027E52854FC45276058
:100BA00014AE25AF26E5282402FDE43527FC120407
:100BB0009E8E258F26AC27AD28AE25AF261238EFA6
:100BC000900048E0247AFF900047E034FEFED39086
:100BD000003BE09FEE6480F890003AE0648098402B
:100BE00005EEF0A3EFF0900039743CF012002E985F
:100BF0007D0050027D017F018191C3122C1E4002B5
:100C00008194C3742E950AF528E49509F527D3E558
:100C1000289404E527648094804002801CE52A24FF
:100C200038FFE52934FFFED3900046E09FEE120026
:100C300037984005E4F52B8003752B01900039E0CF
:100C4000600414F0803DE52B60051238C88021E572
:100C50002854FE4527600FC390003BE09528F09094
:100C6000003AE09527F090003AE030E7031227E5DC
:100C7000300B10D3900046E094EE12003A9482407C
:100C800002C20B90003AE030E7031227E5AD2BE4F7
:100C9000FF12383E22FF919E7B007D027F038F2949
:100CA000120446FF14601514602814603D14603A65
:100CB0002404705B123A4F123A758029123A4FF5AC
:100CC000827401F52E85822FE582F4F5827530005D
:100CD0008013123A4FF4F582752E0085822FEDF5C0
:100CE000827401F5308582318025ED123A75858256
:100CF00031EDF5827401F52A85822BEFB40407EDFE
:100D0000FF7401FE8005EDF4FF7E008E2C8F2D9088
:100D1000000112045F7007EDFF7401FE8005EDF421
:100D2000FF7E008E328F3390000212045F7007ED59
:100D3000FF7401FE8005EDF4FF7E00E529147002CA
:100D4000A1D6147002C15A147002C1DE24036002DD
:100D5000E168E52AAB9A30E006E52B4BFD8004E51F
:100D60002B5BFD8D9AE52C30E00890F009123A9C3F
:100D7000800690F009123A9590F009EDF0E52E30DA
:100D8000E005123A8D800690F00A12004190F00AB8
:100D9000EDF0E53030E005123A85800690F00B1258
:100DA000002190F00BEDF0EE30E005123ABB800828
:100DB00090F00CE0FBEF5BFD90F00CEDF0E53230D5
:100DC000E006123AB4FD800690F00D123AADAF0580
:100DD00090F00DEDF022E52AABA130E006E52B4BBB
:100DE000FD8004E52B5BFD8DA1E52C30E00890F043
:100DF00019123A9C800690F019123A9590F019ED6C
:100E0000F0E52E30E005123A8D800690F01A1200BF
:100E10004190F01AEDF0E53030E005123A85800699
:100E200090F01B12002190F01BEDF0EE30E0051267
:100E30003ABB800890F01CE0FBEF5BFD90F01CEDEE
:100E4000F0E53230E006123AB4FD800690F01D1253
:100E50003AADAF0590F01DEDF022E52AABA230E0EF
:100E600006E52B4BFD8004E52B5BFD8DA2E52C30C8
:100E7000E00890F029123A9C800690F029123A95E9
:100E800090F029EDF0E52E30E005123A8D800690C5
:100E9000F02A12004190F02AEDF0E53030E0051222
:100EA0003A85800690F02B12002190F02BEDF0EEA9
:100EB00030E005123ABB800890F02CE0FBEF5BFDC0
:100EC00090F02CEDF0E53230E006123AB4FD8006E9
:100ED00090F02D123AADAF0590F02DEDF022E52AFD
:100EE000ABA330E006E52B4BFD8004E52B5BFD8DCD
:100EF000A3E52C30E00890F039123A9C800690F07F
:100F000039123A9590F039EDF0E52E30E005123ABD
:100F10008D800690F03A12004190F03AEDF0E53005
:100F200030E005123A85800690F03B12002190F0E7
:100F30003BEDF0EE30E008A3E0FDEF4DFF800890C0
:100F4000F03CE0FDEF5DFF90F03CEFF0E53230E08B
:100F500009A3E0FDE5334DFF800990F03DE0FDE59C
:100F6000335DFF90F03DEFF022E4F526F527F528FC
:100F7000FB7A0079267D0191957B007D047F0291AB
:100F80009E7B017D027F021218FFE4121F391218A6
:100F9000FF75DF4075DE60E4F5E9F5D1F5D375D571
:100FA0000F75D4FF90F69274A0F0121FB743DE8045
:100FB00022EF14600E14600F1460102403700FED04
:100FC00042AC22ED42AD22ED42AE22ED42AF22EF25
:100FD0001460111460151460192403701CE5AC5DD5
:100FE0006017D322E5AD5D6010D322E5AE5D6009E8
:100FF000D322E5AF5D6002D322C322E508B4030328
:10100000E4F508E508146038147002018C147002CD
:1010100001C92403600201C6D21611E8E4F52AAF23
:101020002AEF3395E0FE741D2FF58274003EF583A0
:10103000E493FD11DDEDF0052AE52AB404E101C1D8
:10104000E4F52A11D6E0FFC364809480400FD3EF0B
:1010500064809496400EEF6480949F5007052AE5C3
:101060002AB404DFC3E52A64809484501A11D6E0C0
:10107000F529640D6004E5297004C21611E8AF2952
:1010800071177508028042750803803D752E007542
:101090002F00753029121FB07165EF4E602B852728
:1010A0000B85280CAD29AF28AE2711FDE4F52A11D8
:1010B000D6E0B5290511DD74FEF0052AE52AB40451
:1010C000EE7508018003E4F508302109E5086403A2
:1010D0006003020FFB22AF2AEF3395E0FE74232F4B
:1010E000F58274003EF5832253DE7F007F002016D8
:1010F000027FA090F692EFF00043DE80228E2B8FCD
:101100002C8D2D90F692E030E708E4FFFEFD7C4048
:101110008002511631FC5105C004C005C006C0074D
:10112000E4FBFA79807845AF35AE34AD33AC32129A
:10113000024FD003D002D001D0001201468F398E69
:10114000388D378C36E52D605C24F8606F24FB60A9
:101150001F24EE600221FB5105122D9B7F9A7E9980
:101160007D997C4512024F8F1C8E1B8D1A8C192283
:1011700075312D7530A6752F33752E3E511F8F1882
:101180008E178D168C152000028011E4FBFAF97879
:1011900040AF18AE17AD16AC1512024F8F148E1358
:1011A0008D128C112275318C75302E752FBA752EDB
:1011B0003D511F8F108E0F8D0E8C0D22510D51162B
:1011C000120051C004C005C006C007E4FFFE7DEB5D
:1011D0007C43510D120146D003D002D001D0001241
:1011E000024F31FC122AAF12014631FC1203A37BDD
:1011F000007A00791D51328E098F0A228F358E3484
:101200008D338C3222AC2BAD2CEC02036AAB39AAA5
:1012100038A937A83622AF1CAE1BAD1AAC1922ABC9
:1012200031AA30A92FA82EAF39AE38AD37AC36026F
:10123000024F8B3A8A3B893C8F408E3F8D3E8C3DDE
:101240007F2B7E007D127C007104D312067E400746
:10125000710D7EFF7FED22E47F757E1E7102C31249
:10126000067E5006710DFE7F6422AB3AAA3BA93C74
:10127000740112048CE47FF57EF57102D312067EB0
:10128000402EE4F541E54125E025E02447F582E4E0
:101290003408F5831206A27104C312067E400AE5E3
:1012A0004124EDFFE434FFFE220541E541B436D58B
:1012B000E4F541E54125E0241FF582E43409123AC2
:1012C000A3E48F458E44F543F542E545F545E544F5
:1012D000F544E4F543F542AF40AE3FAD3EAC3DAB27
:1012E00045AA44A943A842D312067E5009E54124E9
:1012F00023FFE433FE220541E541B43DB6710DFE06
:10130000FF22FDFCAB40AA3FA93EA83D22AB3AAA72
:101310003BA93CE402048CAB077AA090002EE0705D
:1013200043C3EB64809480403BD3EB64809496404D
:1013300007EB6480949F402C9000271206BE0000AB
:101340000000123ACBEBF0A37401F0EB30E405435C
:10135000DF80800353DF7F53DEF0EB540F42DEDA91
:10136000FE43DF02228B2B8A2C892DE5DF30E10240
:10137000804690002CE004F0700690002BE004F012
:101380009000271228BCA3E0FBAFDDEFFEADDCED43
:101390009102EB2FFFEA3EFEE93DFDE83CFC9000A8
:1013A000271206B2C390002CE0940A90002BE06450
:1013B000809480500743DF02E4FEFF22900027B1B3
:1013C00008A3E0FFE47B0AFAF9F81207DE90002791
:1013D0001206B2900027A3A3E0FFA3E0AB2BAA2C38
:1013E000A92DCF8FF012051E90002DE0AB2EAA2F55
:1013F000A93012048CE490002EF0FE7F0122E0FE62
:10140000A3E0FFEE3395E0FDFC2290000CE0C394D6
:10141000285049F1E51228C590000CE004F0B10510
:10142000A3E02528FFEE3527FEED3526FDEC35251A
:10143000B11190000471FEB11FC3120668500690EE
:101440000004B118F090000671FEB11FD3120668B7
:10145000500281D6900006B118F0807AB105A3E061
:10146000FFC004C005C006C007900006E0FEA3E070
:10147000FBAA06EA3395E0F9F890000471FEEF2B21
:10148000FBEE3AFAED39F9EC38F8D007D006D00582
:10149000D004C3EF9BFFEE9AFEED99FDEC98B111DD
:1014A000B105A3E0FFC006C007A3E024FEFFE434BB
:1014B000FFAB07FA3395E0F9F8D007D0061207DE44
:1014C000B112900008A3A3E0FFA3E090000FCFF0BB
:1014D000A3EFF012380190000EE0FFB4780574011C
:1014E000F08009EF600690000EE004F0900001E04B
:1014F000600214F0900000E0600214F090000DE033
:10150000600214F022900008E0FCA3E0FDA3E0FEDE
:1015100022FC9000080206B2E527F0A3E52822ABE2
:1015200028AA27A926A825228E298F2AE4F52FE5A7
:101530002A45296078052FAE29AF2A9103E47BA0C4
:101540007A0FF9F812053DB1AEC007AF2FAB07E433
:10155000FAF9F8D0071205C8B1AEE47FFF7EFFFDAF
:10156000FCAB2EAA2DA92CA82BD312067E50C6C3E5
:1015700074FF952EF52E74FF952DF52DE4952CF521
:101580002CE4952BF52BAF2EAE2DAD2CAC2B780883
:1015900012068F8F8CE52EFF8F8AC218438810E5C4
:1015A0008820E5033018F85388CFD52FD9228F2E05
:1015B0008E2D8D2C8C2B2275260A1238017F9A7E57
:1015C000997D097C41D14E600840067F03F1CB80B4
:1015D00010D146600C400A200007D200C216121C2F
:1015E00064E4900002F0F1E2123AC2121B41D526E7
:1015F000F5301529D1A4702530001A7F04D11E7F43
:10160000C87E00B1287F04D11E7526307F0A7E0077
:10161000B128D526F7D21390000D7412F022EF24D2
:10162000FE600E24FE60102403701AC2B0D28180C6
:101630000AD2B0C2818004D2B0D2817F147E00B1C0
:1016400028C2B0C281227F337E337D8B7C40AB18B1
:10165000AA17A916A8150202EC122DBAEF24FE60F3
:101660001514601514601514602224047034D1A47C
:1016700070307F09802A02296C022C40D1A470228C
:101680001233F8121B3A948B4010E1C1D1A47012AE
:101690007FCD7ECC7D1CD14C5004754F07227F0D31
:1016A000D1AD22F0AB4CAA4DA94E0204468F29D1F0
:1016B000A4652960501227D7F52A7B007A00792B80
:1016C0001226878B2C8A2D892EE52B6038E529245C
:1016D000F5600F1460111460042405700D123A2A8D
:1016E00080081225778003123A06852C4C852D4DF3
:1016F000852E4EE529D39402400BE52A6007122778
:10170000DDFF122787228F27F19490000912045FD2
:101710006003121BF8D1A454FE601AD159E527B416
:101720000102800F120048400C7FCD7ECC7D1CD181
:101730004C5002F19B900018E030E729547FF020D4
:10174000000DF19490000C12045FB406028012F1B7
:1017500094F1DA6010121B27984006F194F1DA80B8
:10176000027F03D1AD900018E030E50F54DFF19314
:1017700090000D12045FFF6002D1ADF19490000B58
:1017800012045F600D5402FF90000A12045FFD1204
:1017900025CF22F0AB4CAA4DA94E22D1A460211432
:1017A000601E8000300308C203E4FFD1AD800DF15C
:1017B0009490000712045F6003123AD4E4FFD1ADA5
:1017C000227F02D1AD122666D2082290004AEFD1C4
:1017D000A3640160047F01D1AD2290000C12045F6C
:1017E000FF22120028E4FFFE7D7A7C44AB14AA138A
:1017F000A912A8111201460203A3EF14600F14608E
:101800001114601324037013EDF452AC22EDF45262
:10181000AD22EDF452AE22EDF452AF22EF14603659
:1018200014605F14700201AE2403600201D1EDD395
:101830009405400201D130150EA8057401088002FC
:10184000C333D8FC428022A8057401088002C33348
:10185000D8FCF4528022EDD394075075EDC3940365
:10186000406F30150EA8057401088002C333D8FC00
:10187000429022A8057401088002C333D8FCF452B8
:101880009022EDD394065049EDC3940140433015A6
:101890000EA8057401088002C333D8FC42A022A818
:1018A000057401088002C333D8FCF452A022EDD3A2
:1018B0009406501D30150EA8057401088002C3332C
:1018C000D8FC42B02212213C8002C333D8FCF4522F
:1018D000B022E4F5DE90F692F0F1B7E4FBF13911B5
:1018E000FF752603E4F527F5287A007926120C9572
:1018F000C2157D017F03111CC215E41DFF011CEB05
:1019000064026065EB64036060EB6419605BEBD3B9
:10191000941C5055EF146015146023146031240397
:101920007047EDD394055041ED2400802BEDD39406
:10193000075036EDC394034030ED2410801AEDD3E8
:1019400094065025EDC39401401FED24208009ED3D
:10195000D394065014ED2430F52AE434F0F529EB45
:10196000541F852A82852983F022120F6931C4759C
:101970002603E4F527752801C2B0C281FBFD7F0371
:1019800011FFE40DFF11FF7A0079267F03120C9EF0
:101990007B007D02E4FF120C9EE4F148F54F22200B
:1019A0002302D322120F691217E2123AC2C39454CF
:1019B000EE6480948B5004C223316F11D2E4F51E83
:1019C000F51FC322F151C2A3F1177D087F02120C4B
:1019D0009E90F120E4F0A304F090F123F090F12A1E
:1019E00074FFF090F122E4F090F12704F0A3F0905E
:1019F000F160E4F090F165F090F16404F090F13161
:101A0000741FF090F130743FF090F141E4F090F1E8
:101A100040F09000411206BE00000000C21DC21B33
:101A200090F166E4F090F12604F01227ED7B127D30
:101A3000037F0201FFF111316AF11E120028C21565
:101A40001215B7C22122123A34EF6002F17BD3E5BE
:101A50001F9400E51E94004009E51F151F70021534
:101A60001E2251D875250C438704438702000000CD
:101A7000000000122FCAEF60271221B21221441277
:101A8000212E7F017E00121528122F33301A0AC230
:101A90001AB21430140312378512301550E48095B1
:101AA000C21490005DE0600414F0800F20010AD29F
:101AB00001F1D8C21691648002D214E525600415A4
:101AC00025800E319F400575250C8005301402F1EC
:101AD00011E51F451E609022E4F5C853A8DF1227C8
:101AE000FB11D2F14151F9E5BD20E70C75BC4275FF
:101AF000BD0F43BD3043BD8022F1EE713A948B405F
:101B000025300622752601E4F52775280151E7D214
:101B1000231216A4F117B401067D017F0380047D12
:101B200002E4FF120C9E229145EF2432FFE43EFEB8
:101B3000D3900010E09FEE6480F890000FE0648086
:101B4000221216A46407600875270E7528428006C5
:101B500075270D7528DEE55014601C14603614607E
:101B60004D24037059C3900010E09528E527713784
:101B700098504B75500122E52824FA71BF4003E4C8
:101B8000F550E5282438FFE52734FFFEC3ED71CD7D
:101B9000502C8027E528243271BF4003755001C3C3
:101BA000ED9486EC6480948B501475500322D3908E
:101BB0000010E094E4713A948C400375500222FFC7
:101BC000E43527FE90000FE0FCA3E0FDD39FEE6418
:101BD00080F8EC648098228F28AF28712798400500
:101BE000AF280216ADE528D3940250ED1216A4706A
:101BF00004754F072202179BEF64027047200144CF
:101C000020000E7F0571D71216A464057036D2032A
:101C1000227F0771279840282009251216A4FFD398
:101C200094014005900013EFF0900015E0FFD3946D
:101C3000024008EF94075003123AD47F070216AD12
:101C40007F0671D722E4FE123A64B5070FEE75F0F5
:101C50000EA4249EF582E43409023AA30EBE0EE7D8
:101C6000E4FEFF22E4FFD217B1223001010F30065B
:101C700003430702300003430704900035EFF09060
:101C80000019E0FFA3E0900033CFF0A3EFF07B0159
:101C90007A0079337D03D1DD900036EFF020160E07
:101CA00090004FE0FF900036E0B5070280722016EA
:101CB0000FC390004EE094FE90004DE0940040175A
:101CC000F1B07D007C027F1DB14AE4FC7F1DB14A6A
:101CD000E490004DF0A3F0E4F52790004DE0FEA362
:101CE000E07802C333CE33CED8F97C002527FDEC53
:101CF0003EFC74332527F9E43400FA7B017F19B1E7
:101D00004A0527E527C3940440D090004EE004F034
:101D1000700690004DE004F0900036E090004FF027
:101D2000C217301707C2AF0075FBAA2275FB55001A
:101D3000D2AF227C002529FDEC3EFCAB267E00E5DF
:101D4000282529F9EE3527FA7F118F2CE52CB419B7
:101D500005120446F5FEEDF5FCECFFEFF5FD008500
:101D60002CFF000000000000E5FF20E0FBE52CB4A4
:101D70001105E5FE12048C228B268A278928E4F5BA
:101D80002AF52BD217B122E4F529AE2AE52B7802E9
:101D9000C333CE33CED8F9B1330529E529C3940432
:101DA00040E8AB26AA27A9287D03D1DDAB26AA27C8
:101DB000A92890000312045FB50713052BE52B70CB
:101DC00002052AC394FEE52A6480948040B9D3E5D5
:101DD0002B9400E52A648094804008E52B152B7035
:101DE00002152AE4F529AE2AE52B7802C333CE3357
:101DF000CED8F9B1330529E529C3940440E8AE2AC9
:101E0000AF2B227B017A00792FB17890004DEEF054
:101E1000A3EFF07B017A00792F7D03D1DD900032B2
:101E2000E06F704E900031E0C330E101D392069034
:101E30000031E0C330E201D39200900031E0C330C2
:101E4000E001D3920190002FE0FFA3E0900019CFB2
:101E5000F0A3EFF0900032E090004FF090004EE0E1
:101E600004F0700690004DE004F0F10E400ED180B9
:101E7000800AD1A3D201D2169164D1B9C217A1228E
:101E800020011FD1A3C2169164C217B12275266426
:101E9000754F061221DEF10E50021526E52670F36D
:101EA000D1CE22F194C201D2061200281216466049
:101EB000054003D20022C200227526FFC217B122BC
:101EC000754F031526E52660051221DE80F5C2AFA9
:101ED000007596AA75965575978080FE228B2C8A80
:101EE0002D892E7FFFAB2C052EE52EAA2D70020525
:101EF0002D14F912044662077E08EF30E70725E04B
:101F00006407FF8004EF25E0FFDEEFDDD822A2A604
:101F100022E4F5BDF5BC227B007A00792622F1513E
:101F2000C293F1177D087F01120C9E1235DE9000DE
:101F300045F0A3F0C21FC21E22FDFF11FF0D7F035B
:101F400022C2B0C281E4F54F900057F0900056F0E5
:101F5000227526037527017528012220000D12160F
:101F6000464008D200F16CC216916422900003E052
:101F70007008F17B9000037404F02290005D749669
:101F80001216A3B40107751E00751FF022751E00FE
:101F9000751F2822F1B07F02122687E5276007F11E
:101FA000E69000198039900019E4F0A374C8F0227B
:101FB0007B007A007927227F0490002374FEF0A32F
:101FC000DFFCE4F5089000271206BE0000000012B6
:101FD0003ACBF0A3F0D221229000157403F022E551
:101FE000F0F0A3EFF0229000031204E6FF22C3906A
:101FF0000010E0945422EBD394035055EF14601575
:1020000014602314603124037047EDD394055041CC
:10201000ED2480802BEDD394075036EDC39403401C
:1020200030ED2488801AEDD394065025EDC3940139
:10203000401FED24908009EDD394065014ED2498B0
:10204000F529E434F0F528EB5403852982852883AB
:10205000F022EF14602214603D1460582403707164
:10206000EDD3940540028069ED248011E68002C31F
:1020700033D8FC55ACFC805DEDD394075006EDC31E
:1020800094035002804BED248811E68002C333D8BC
:10209000FC55ADFC803FEDD394065006EDC3940192
:1020A0005002802DED249011E68002C333D8FC55F8
:1020B000AEFC8021EDD3940640028015ED2498FB00
:1020C000E434F0FA313C8002C333D8FC55AFFC80D5
:1020D00004E4FEFF22EC7003FEFF228B828A83E081
:1020E0005403FF7E0022FBE434F0FAA805740108D3
:1020F000227D067F021152EF64014E702FC222E54D
:1021000046547FFFE4F546E5487004E54B6007E47C
:10211000F54BF5488018EFC394055012C3E54964A8
:1021200080948850020549754780800231447D4083
:102130007F021217FA90005C74AAF022AF05A8077C
:1021400074010822D222E54730E703754780E5464F
:1021500020E70375468022C0E0C0F0C083C082C083
:10216000D075D000C000C001C002C003C004C005CB
:10217000C006C00711F175B600D007D006D005D053
:1021800004D003D002D001D000D0D0D082D083D0F0
:10219000F0D0E032C2AF007596AA75965553977F7E
:1021A0002275C900B219301902D21A325388EFD2FF
:1021B00018325388CF5389F0438901E4F58CF58AAE
:1021C000F5CE75CB0B75CADB75CD5D75CC66F5C9E3
:1021D00075CF8075A8A2C21AC21975C891227F0A4C
:1021E0007E001215281239105017900056E0C36473
:1021F00080948C5005E004F0800CE4900056F0418F
:10220000E8E4900056F0E54FB40A00400241EC903B
:102210002216F828287302223402223E02224302A8
:10222000226402224802226402224A0222A20222DC
:10223000A20222A2C2B0C281E4900057F022C2B032
:10224000D28122D2B0C28122801551ED4F7F8060B1
:10225000027F00900057EFF051F14F700241E8D239
:10226000B0D28122C281900057E0FF547FFEE54F3B
:102270007D00B403027D03C3ED51FD98500C0EEFB9
:102280005480900057F04EF0800E51ED4F7F8060EB
:10229000027F00900057EFF051ED4FC36001D392E1
:1022A000B022900057E0547FF0E54F64086005E5E8
:1022B0004FB409047F0680027F0A900057E0FED3E6
:1022C000EF51FD984004E4F54F22900057E0FF04E1
:1022D000F0EF75F002120424AFF0EF600BE54FB49D
:1022E0000903D28122D2B022C2B0C281229000570B
:1022F000E05480FF3395E022FCC3EF9DEC6480F84E
:10230000EE64802271CF92F7B19172F7921430008F
:102310000471D680047E057FDC90001DE0FCA3E004
:10232000FDC3121BCD50028004AC06AD07AE04AF56
:1023300005121794F181FDC3EF9DE5F051FD985012
:102340000C30140991DD4005EEF0A3EFF071CF5091
:1023500026200423900021E0600414F08058C391EB
:10236000DD500EA3E004F07006900019E004F08048
:102370003FD202B1BE8039B191502D20042A900085
:1023800021E0600414F0802E12179490000371DF96
:1023900091DC400EA3E024FFF0900019E034FFF040
:1023A0008004C202B1BE800820140B300408C204AD
:1023B0009000217406F03014079000207420F02261
:1023C000900020E0B4010714F0C216121C6422E54C
:1023D00048C36001D322AB4CAA4DA94E9000011214
:1023E00004E6FFAEF02230000471D680047E057F43
:1023F000DC8E278F2890003DE0146050146060143C
:10240000700281B92403600281C8B1A340028053E5
:10241000C3B19A91D1502771D6B1AD94805002E4E6
:10242000F090003FE004F0700690003EE004F0D32E
:10243000B19A91D1500281C8121518F081C890004C
:102440003D7401F090003C7404F0807C90003CE00E
:102450006005AE27AF282290003D7402F08069B17C
:10246000A34005E014F08060121794121FE6D39089
:10247000003FE09FE5F091D1403171DCB1AD948037
:102480005002E4F090003FE024FFF090003EE03482
:10249000FF12179390000371DFC390003FE09FEE9F
:1024A00091D15024EEF0A3EFF0801D90003D740315
:1024B000F090003C7428F0800F90003CE06004E451
:1024C000FEFF22E490003DF090003EE0FEA3E0FF1E
:1024D000226480F890003EE064809822D390001A35
:1024E000E09FEE6480F8900019E064809822121F4B
:1024F000D8900013F0E490004AF090001FF0121EF4
:10250000037B007A0079257F02D1878B4C8A4D8925
:102510004EE52560409000051204E6FF90001B1276
:102520001FDF30000471DC80047E057FDCD17E90EB
:10253000000371DFC391DD5005EEF0A3EFF012361A
:10254000A191DC4005EEF0A3EFF0754CFF754D094D
:10255000754E9980057F071217CBE4900014F0C2E6
:1025600005C20FC202C208C207C20390002174064E
:10257000F0123A2A123A06E490003D121793121F05
:10258000E690003E121FDFE490003CF0900040F027
:1025900022E54BB40202D322C32290003FE09528EB
:1025A000E52722900040E0D36480948022AC27ADE0
:1025B000281204B0EF14900040F0C3648022900011
:1025C0001F7404F0900019EEF0A3EFF0D204228DF6
:1025D000287E02B1915004D214800471CF9214204D
:1025E000120F7E0A301103301407E4900058F08077
:1025F000031235E6900058E0D39E4018EF60028049
:102600000630140630120302179BE4900058F0AF16
:10261000281216AD221216A4B40A02800871CF4007
:102620000AB1914006E4900018F022900018E0FFF3
:10263000541FFE7012EF20E60EB1917D8050027D96
:1026400020EF4D900018F0900018E054E0F0C3EE39
:10265000648094865007E020E6030E8002E4FE903A
:102660000018E04EF022201114201211E550700DD8
:1026700030000471D680047E057FDCD17E2290007C
:102680001DEEF0A3EFF022E412048CFE123A64B5C2
:102690000707740112048C80040EBE0EEFAF06EF24
:1026A00075F00EA42499F9740935F0FA7BFF222005
:1026B0000C06F1DDFFC20E22F1C2FF90003AE03EAF
:1026C000FE30E703E4FEFF900047E0FCA3E0FDC31B
:1026D0009FFFEC9EFEC3EF9486EE648094815014BD
:1026E000ED247AFEEC34FE90003AF0A3CEF0F1BA7D
:1026F0007E017F86900048E02438FD900047E0345A
:10270000FF51F8985002D20E221216A4B4020C9077
:10271000001BE0F525A3E0F526800B9000051204D0
:10272000E6F52685F02590000FE0FEA3E0FFD394A8
:10273000BEEE6480948A4014D3EF9526E52551FDC2
:102740009840028001D39211C2128004C211D212A9
:10275000121B41E54FD39406502690004AE06003D7
:10276000023964900002E06003022AC090000DE08C
:1027700070081216A4D394014003022DE8E4F54F2B
:10278000229000010204E68E2F8F30121794F1D7A9
:1027900070028024121794F181FBAAF0F1C290001C
:1027A0003AE03EC3EB9530FFEA952FFE90003AF0F9
:1027B000A3EFF0EE30E703E4F1E6E4900037F0A396
:1027C000F022900037E0FEA3E0FF7C007D0C1204B5
:1027D000B090003BE02F2290000802045F90004779
:1027E000E0FEA3E022E490003AF0A3F02290F12969
:1027F0007401F090F129E020E0F922E4FB7D037FF1
:10280000021218FF90F1287401F090F121E4F09089
:10281000F126F090F125F090F123F022201B020127
:10282000B8301D1D90F129E030E00201B890F1644C
:10283000E0301C0554FEF080034401F0C21BC21DB1
:102840002211CE11B9A3E0FB1202EC600C400A90F9
:1028500000411206BE42C80000E4FFFEFDFC11B9B3
:10286000A3E0FB1202EC500A9000411206BE0000E9
:102870000000E4FFFE7DFA7C4511B9A3E0FB1201E4
:1028800046E4FBFA798078BF12005511C531641215
:10289000024F11C51203A3AD07AC06ED4CC3600196
:1028A000D3921CECFFEF90F141F0ED90F140F0D2AB
:1028B0001D90F129E04401F022900041E0F8A3E0EE
:1028C000F9A3E0FA228F288E278D268C2522E4FF9B
:1028D000FE7DC87C4222AD07AC06EC12036AE4FB25
:1028E000FA79207841315A8C2751AF12024F315D6D
:1028F0008C277B4D7AB579B1783C12024F315D8CD3
:10290000277BB67AF3797D783F315A8C27C004C093
:1029100005C006C007E4FFFE7D7A7C44AB1CAA1B01
:10292000A91AA819120146B19BD007D006D005D02C
:102930000412024F315D8C273164315A8C2711CE3D
:10294000AB2AAA29A928A8271202EC600440020198
:10295000CEAF2AAE29AD28AC27221201468F2A8E8F
:10296000298D2822E4FBFA79C8784222900002E0FF
:10297000700B916811CE91B41217F451B7229000E8
:1029800047E0FAA3E0FBD39400EA64809480401C03
:102990001226AF8E258F261227DDFFC39526E5254B
:1029A0001222FD98500A8E258F2680048A258B26B8
:1029B00051A665267003EE65257002419DD3E5267C
:1029C0009400E5256480948050024186E5269FFFAF
:1029D000E5259EFED3EF9458EE648094824002D2A7
:1029E0001E201E024167900045E07002A3E0701DAA
:1029F000C3E5269458E525648094829000455004F0
:102A0000519E80507402F0A37458F080473005083E
:102A1000900046E0243280341216A424F860172473
:102A2000FB6013047020900046E024E8F09000451D
:102A3000E03403F0801E900046E02490F0900045C2
:102A4000E03401F0800E900046E02402F090004552
:102A5000E03400F0C3900046E09526E525120037EB
:102A6000984009C21E8003900045519E201F0BD242
:102A7000937F057E00121528D21F51A611D6900013
:102A8000411206B28015C2939000411206BE0000AA
:102A90000000C21FE4900045F0A3F0D21B22E52500
:102AA000F0A3E526F022900045E0FEA3E0FF22E43B
:102AB000FBFA797A784422900011EEF0A3EFF0222D
:102AC000900002E014B40B004002810B902AD2B1B6
:102AD000AF73022AF3022B03022B4D022B53022B5E
:102AE0006A022B70022B86022BD9022BF1022B8C4F
:102AF000022B9D900001E06002810B740FF0A37423
:102B000002F022D1238F4F900001E06002810B90F0
:102B10000011E0FEA3E0FFD394E7EE6480948340CD
:102B2000219117D3ED9404EC64809480400BE02451
:102B30000AF0900011E03400F0910C7D0A1204B00C
:102B400051B7910C7D641204B07D0380377D047F02
:102B5000028037910C7D641204B0900011ECF0FEFD
:102B6000A3EDF0FF91177D05801A7D067F04801A82
:102B700030100491ACF022910C7D0A1204B0AE0426
:102B8000AF057D0781297D087F018180900001E0EC
:102B90007079A3740BF0900001741FF02290000173
:102BA000E0FFC394195026EF54F86021C3E50A945E
:102BB0002D91225005754F018016C3E50A94379177
:102BC000225005754F048008754F028003E4F54FCD
:102BD000900001E07035A38014900001E0702C1289
:102BE00016A4700690000D7412F09000027409F0A3
:102BF00022C210E4900011F0A3F090000DE06002FA
:102C0000A1C9B1BAEF7004900002F022900011E067
:102C1000FEA3E0FF7C00227C007D0A0204B0E50AEE
:102C2000942EE5096480948022900001E07010EFFA
:102C30004E70057480F08002B1A4900002EDF02285
:102C4000E51D6023900002E0701D9168D210E50A36
:102C5000AE0930E707FF7CFF7DF68006AF0A7C00F7
:102C60007D0A12049E51B72290000274011216A32D
:102C7000600DE54F60069000017408F0E4F54F2206
:102C80008F278D28900001E030E70812161EE4908F
:102C90000001F0900001E0FF7E0030E102AE278EDF
:102CA0004FEF7007F54F91ACE528F02290000174CA
:102CB0000AF0A322AB18AA17A916A81522120048D9
:102CC0004006E490004CF02290004CE0C394045085
:102CD00004E004F02290004BE0540FF5257F337E92
:102CE000337D8B7C40AB14AA13A912A8111202ECFD
:102CF000600740057F031217CBE4FFFE7D807CBF99
:102D000091B4120055B19050097D02B17AE4F526D4
:102D10008039E4FFFE7D607C41B1905007B1787549
:102D200026028027E4FFFE7DA87C41B19060094027
:102D300007B1787526018013D3E52564809480401F
:102D400006E52514FF80027F008F25E526C454F098
:102D5000452590004BF0C3E525648094884018E039
:102D6000C4540F24FE60070470087F0480067F01AE
:102D700080027F021217CB227D01AF25B1818F2502
:102D800022C3EF648094885004EF2DFF227F082235
:102D9000AB10AA0FA90EA80D0202ECA804A905AA5F
:102DA00006AB0722EF25E025E014900001F0227524
:102DB000F003A4C58325F0C58322E54B14FFD3643B
:102DC0008094804001227F0022E55014600E146040
:102DD0000F1460102403700F754F0122754F0422E9
:102DE000754F0222754F0322300104C214802B124A
:102DF00016A4640D6004D2148020E550B40304D2FC
:102E0000148017900000E07003742BF0900000E035
:102E1000D3940340028001D3921430140280AAE4B8
:102E2000F54F22900001E0FFD39409403AEF24F8D7
:102E3000C31314FF301007E50A20E7020F0F20101C
:102E400013D3900012E094E7900011E06480948323
:102E500040020F0FEF3395E0FE74032FF5827400EC
:102E60003EF583E493FF227F0022900054E024FE8D
:102E7000606C147002E10614602324036002E119FF
:102E8000900001E0FED3940640037F0122EE600231
:102E9000E119900055F0900053F0A38079F11CFFE8
:102EA000642D6004EFB420179000547403F0EF9089
:102EB0000001B42D057424F0801C7414F08017F107
:102EC0001C540FFF70089000537432F08002B1A4BC
:102ED0009000547402F0900055E004F0803B9000A4
:102EE00053E07019900001E0FF700B740CF090003B
:102EF000547403F08023EF30E11F7F0122900053D0
:102F0000E014F07F0122900001E0700DF11C9000B0
:102F1000547003F080037404F07F0022900055E0A9
:102F200090000E9322E4F547F54AF549F548EF0481
:102F3000F54B227D407F02120FCF403B90005CE0BA
:102F4000FF25E0F030A603E004F090005CE0FCF424
:102F50006003EC7022121F7BE4F5B6BCFF03C38054
:102F600001D392227B01BCFF027B027D067F02120D
:102F70001FF67D40120FB1302208E54730E7037598
:102F800047807F822005027F85AC07302225E546F9
:102F9000B50420D3E54964809480400BAF49EF33FA
:102FA00095E0FEF1258009E4F549754B017548016E
:102FB000E4F546202213E547B4840EE4F547E548DE
:102FC0007004754A0122E4F5482220A6037F0122FD
:102FD000E5B65440FF22752501E4F526F527FB7D73
:102FE000067F021218FF7A0079257D40120C9E7D23
:102FF000407F02120FB17B027D06121FF643B90417
:10300000121F7B90005C74FFF0E4F546F547F5492C
:10301000F54AF54B22E54B6002D322E54AC3600135
:10302000D3229118400261D9D1B68F25900015E0C6
:10303000FFC394034006EFD394064003121FD81237
:1030400016A4F526900054E060024128E52614708D
:103050000221C214700221CE24FB700221EB24FD58
:1030600070024116240A6002412830015BE525B454
:10307000051B754F09C20171F8121B3A948B40066B
:103080009000147405F0C216121C644128122DBA67
:10309000BF0120121FEE121B3A948B5007E49000E0
:1030A00022F04128300702412890002274A0F0D27B
:1030B000074128300707E4900022F0C207111540AD
:1030C000024128754F074128200812910B500E71BC
:1030D000F9121B3A948B40741217C121BD300809B4
:1030E0001223CF4004C20821BDE52514B4080040D6
:1030F0000221BD9030FA122DAF730231120231BDA0
:1031000002311C02313002315102315B0231A30223
:1031100031BB900015E0FF121BD721BDD3900010EA
:10312000E094BE121B3A948A40047F088019801CE8
:10313000200919D3900010E09416121B3A948D4088
:103140000B9100D2057F0A1216AD8071754F078072
:103150006C200169754F08D201805912164660062D
:103160004004D2008007D3300001C3920020000742
:103170007F0412161E8003121F6C200024D39000BF
:103180001AE094DC900019E064809485400371EAB1
:10319000F0D390001EE094DCB1309485400371EAD6
:1031A000F08011D3300601C392067F023006027F01
:1031B0000112161EC216121C648002D1C4121659C6
:1031C0008066D1D34062910B505EB1EF805A3008D7
:1031D00013E490001FF01223CF400C1225914007FA
:1031E000C20880031223049137803D300D077F030E
:1031F000121BD78033E5256402702D900013E0B4D4
:1032000009047F038005900013E0FF121BD7900094
:10321000137403F08012200D0A900016E07002A3D0
:10322000E07005D20812179B1216A4B5260B900069
:1032300054E07005AF25121706B1372000111216A1
:10324000A4FF64066004EFB407057F03121BD730A8
:1032500005091216A4640A6002C205900014E07009
:1032600009900022E0600A30070771F174E6F0610E
:10327000AF900054E06010122E6AEF7E0060047F71
:103280009661AD7F0061ADD1EC500771F1741EF015
:1032900061AF1216A424FE7002615424FA70026118
:1032A0003B24FE604C14603324FE7002613B0460DA
:1032B00002618ED20FF12FEF24FE60082402700B02
:1032C000B1DE61AF71F174C8F061AFC20F300005BB
:1032D0001223D680047E057FDC61AD1223E671DA0D
:1032E000D3948AEE6480948240028001D3920F616D
:1032F000AF2000161223CF50067E057FDC801E1201
:1033000017949000031223DF80131223CF12179417
:10331000500590000180039000031223DF71DA1240
:103320001794121FE6900047E0B5F009A3E0B50737
:1033300004D20F807A9100C20F8074B145EF60050E
:103340001223D680047E007F0071DA4EC37001D351
:10335000920F805BC20FD1A1900019121BC7900081
:10336000474007EEF0A3EFF08005ECF0A3EDF090FE
:10337000001FE0603A3002101227DD7802CEA2E78B
:1033800013CE13D8F8FF80047E007F1E801F122307
:10339000D6D39401EE648094804010900048E0946D
:1033A000C271E394815004D20F8002C20F71DA20FF
:1033B0000010D3900048E094DC71E39485400371E1
:1033C000EAF0300014D3900048E094A671E3948EA4
:1033D0004007740EF0A374A6F022900047EEF0A30D
:1033E000EFF022900047E06480227405F0A374DCC3
:1033F00022900047E4F0A322D3900010E094222210
:103400009000167401F0A374E0F022E54B640160B3
:1034100002C322E4F54BD322201302D32290000DE5
:10342000E07006900003E06002C32211154002C262
:1034300013B137910BC32230110281D130120281B6
:10344000D1E4900058F0E5506002A12C12179412BC
:103450002781FFC390001EE09FE5F0B12D98506BCF
:10346000900059E0FF700404F08008EFC394095005
:1034700002A12C9000597401F09000051223DFD3B3
:1034800090001CE09FEE6480F890001BE064809840
:103490004007EEF0A3EFF0800E90001CE02432F025
:1034A00090001BE03400F01223D6D390001EE09F62
:1034B000EEB12D984006EEF0A3EFF02290001EE052
:1034C00024FAF090001DE03400F022E4900059F05E
:1034D00022E4900059F0B1E630120C900058E0D38D
:1034E0009404400302179B900058E0D3940A403C98
:1034F000D390001EE094F4B1309481400CA3E024FA
:1035000006F090001DE034FFF0D390001CE0942200
:1035100090001BE06480948B400CA3E024E7F090C3
:10352000001BE034FFF09000587401F0226480F832
:1035300090001DE0648022E54A6009E5496005E4E9
:10354000F54AF5492290005BE0B4070050639035DE
:1035500055F828287302356A02357502359102350F
:10356000970235A60235750235ACE490005AF07D1D
:103570000B7F01803A7F02B1B450037F012290009B
:103580005BE0B401067D077F0280247D237F0680F7
:103590001E7D237F0380187F06B1B450037F012274
:1035A0007D077F0480097D0B7F058003E4FDFFD14B
:1035B000AA7F0022AB07EB3395E0FEEF25E0FDEE9E
:1035C00033FC90005AE0FF3395E0FE1204B0EB1498
:1035D000D36480F8ED6480984002D322C322E49043
:1035E0000047F0A3F022900058E0700204F022E4BB
:1035F00090004AF0FF0216ADE51D6073A20D921512
:10360000752537752628D175920DA2099215752555
:1036100032752628D1759209A20A92157525417531
:103620002629D175920A300A077F061217CB800926
:1036300090004AE0B40602B1EF1217941227D77037
:1036400003C20C22A20C921575252E752623D17566
:103650009214301403D20C2220141990003AE07016
:1036600002A3E0700F900037E030E708C20C227F21
:10367000051217CB22AF25EF3395E0FED3D194404E
:1036800002D322AF26EF3395E0FEC3D1945002C39C
:1036900022A21522E50A9FEE6480F8E5096480986D
:1036A0002290001DE0FEA3E0FF2290005AE070058A
:1036B000EDF0A3EFF022E54B7004E54A70037F00C4
:1036C00022AF4922900054E0700804F09000017489
:1036D0000FF022E4FFEF90000893FE90004AE0FD17
:1036E000EEB50502C3220FBF03EBD322E5506403FE
:1036F0006004C214801A1216A414600E24F9600A21
:1037000024FD24FD5004240E7004C2148002D2143F
:10371000201407E490000EF0801390000EE0FF707C
:103720000404F08008EFD394744002D322C32290A3
:103730000050E0601724FE602214603C24027042B6
:10374000900051E0D3940040217F022290005274F7
:103750004BF09000507402F07F0122900052E01470
:10376000F0E0D3940040037F01229000517418F0E0
:103770009000507403F0800A900051E070049000B3
:1037800050F07F0022E4FE74462EF8E630E7245421
:103790007FFDEE700B7C053005027C02AF048002D9
:1037A0007F04EDC39F50010DE65480F674462EF859
:1037B000E64DF60EBE02D022439A3C43A11043A22E
:1037C0003043A3045380C35390EF53A0CF53B0FBB7
:1037D00090F00AE054C3F0A3E054C3F090F01AE074
:1037E00054EFF0A3E054EFF090F02AE054CFF0A3B0
:1037F000E054CFF090F03AE054FBF0A3E054FBF03B
:1038000022900004747FF0A374FEF0A37480F0A3F0
:103810007402F0E490000CF09000081206BE000064
:10382000000022900003E030E0057F0112161E9098
:10383000000DE07008900003E0600214F0228D2C6F
:10384000A907E9600CE50A24D1FBE50934FFFA80F9
:103850000AC37428950AFBE49509FAEA30E703E401
:10386000FAFB11FF4002801D11B774309BFD747587
:103870009A1222F898500AE52C60067E007F01809B
:10388000047E007F00EF4E6009EB25E0FBEA33FA8F
:103890008003E4FAFB0BBB00010AE96006AE02AF4D
:1038A000038007C3E49BFFE49AFE900038E02FF00A
:1038B000900037E03EF022900037E0FEA3E0FF7C6E
:1038C000FF7DFF12049EC32211FF4002801411B736
:1038D000EF94C0EE648094837E0050047F018002E8
:1038E0007F00EF4E70081227C211F71227BA22127A
:1038F000049E90003BE02FF090003AE03EF02290D2
:103900000037E0FEA3E0FFD39400EE6480948022B1
:10391000900002E06002C322A20E22900059E060F3
:1039200008C394095003E004F0900058E06008C315
:10393000940B5003E004F02290004AE0FF700590E1
:103940000049F022900049E004F031B1240FFFE477
:103950003EFEE0315A4002E4F022C39FEE6480F85C
:1039600074809822900049E0FFC39405500BEFC388
:1039700094035039EF04F54F2290004AE0FF31B133
:103980002405FFE43EFE900049E0FD315A501EED53
:1039900024FBFFEC34FFFE7D031204B07C007D02AB
:1039A0001204B0ED4C7004754F02228000E4F54F14
:1039B000227E007C007D0612049EEF22900020E013
:1039C00054FE6003E014F090001FE0600714F0E084
:1039D0007002C202900022E0600214F0900016E033
:1039E0007002A3E0600E900017E024FFF090001634
:1039F000E034FFF0900014E0600214F02290003CEC
:103A0000E0600214F0229000507401F0E490005243
:103A1000F09000517418F022900051E0600214F010
:103A20002290005AE0600214F022E490005BF090D3
:103A3000005AF022900002E07006900054E060030B
:103A40007F01221216A454FE7F0060027F0122ED46
:103A5000F4F58275830085832A85822B85832C85E6
:103A6000822DED22EE75F00EA42499F582E434093E
:103A7000F583E49322F4F58275830085832E858295
:103A80002F85833022A3E0FBE5314BFD22A3E0FB31
:103A9000E52F4BFD22E0FBE52D5BFD22E0FBE52D54
:103AA0004BFD22F583E493FE740193FF22E0FBE5D6
:103AB000335BFD22A3E0FBE5334B22A3E0FBEF4B9E
:103AC000FD2290000FEEF0A3EFF022E490002BF027
:0C3AD000A3F0A322120446900015F0227F
:00000001FF
