:1000000002074402040104020402030227F741002C
:100010000000C115C11841004B00410052004100D1
:0A0020005100001F080D00020FF947
:10002B000227EC32352030392033302D323020315D
:0F003B003600E490003AF0A3F022900008C1B222
:10004B00022FF502040FE86480F8E933E8336011FE
:10005B000460F0ED33EC337009E8FCE9FDEAFEEBEC
:10006B00FF220460DED3EB9FEA9EE99DE8C2E78C9A
:10007B00F0C2F795F0400CE8CCF8E9CDF9EACEFAEE
:10008B00EBCFFB1203DA85D0F05804700320D5B305
:10009B00E80470075002B2D502041992D5EC046043
:1000AB00F7E4CCC0E0C398F8603B94186008400DAF
:1000BB00D0E0FB0203F1E4FBFAC9FC8028E830E452
:1000CB0006E4C9FBE4CAFCE830E305E4C9CACBFC8F
:1000DB00E854076010F8C3E913F9EA13FAEB13FBC2
:1000EB00EC13FCD8F130F52FC3E49CFCEF9BFFEE37
:1000FB009AFEED99FDD0E0FBEF4E4D4C701222DBDA
:10010B0003020416EC2CFCEF33FFEE33FEED33FD54
:10011B00ED30E7EB0203F1EF2BFFEE3AFEED39FD8D
:10012B00D0E0FB50130BBB0003020419ED13FDEEE3
:10013B0013FEEF13FFEC13FC0203F1EC4D6011E81F
:10014B00497017ED33EC3304600DE4FCFFFEFD2228
:10015B00E933E8330470F802040F1203DA58046031
:10016B0009E4CC24815006285009020419284003C5
:10017B00020416C0E0EB4A7044B98006D0E0FB02E3
:10018B000405EF4E701CBD8008EBFFEAFEE9FD8015
:10019B00EBE98DF0A4FEE5F002022FE9CDF9EAFEC2
:1001AB00EBFFEF89F0A4FCE5F0CE89F0A42EFFE481
:1001BB0035F0CD89F0A42DFEE435F08067EF4E705D
:1001CB0005BD80D780C3EF8BF0A4ACF0EE8BF0A411
:1001DB002CFCE435F0F8EF8AF0A42CE5F038FCE4C5
:1001EB0033CB8DF0A42CFCE5F03BF8EE8AF0A42C7D
:1001FB00FCE5F038F8E433CF89F0A42CFCE5F038BB
:10020B00CF3400CE89F0A42FFFE5F03EFEE433C9D6
:10021B008DF0A42EFEE5F039CD8AF0A42FFFE5F08A
:10022B003EFEE43DFD33D0E0FB50070BBB000F025D
:10023B000419EC2CFCEF33FFEE33FEED33FD020320
:10024B00F1020419EC5D046005E859047003020423
:10025B000F1203DA580460F6EC4860F2EC7004FD00
:10026B00FEFF22C860DB2481C85009C3986002508E
:10027B00060204169850CAF582E9294B4A7005AB61
:10028B008202040575F0007C1A7880C3EF9BEE9A0E
:10029B00ED99400DC3EF9BFFEE9AFEED99FDE84201
:1002AB00F0DC23ACF0D0E0FFD0E0FED0E0FDAB8281
:1002BB0020E7101BEB60BAEC2CFCEF33FFEE33FEA8
:1002CB00ED33FD0203F1E803F830E705C0F075F0FC
:1002DB0000EF2FFFEE33FEED33FD40B830E7C28069
:1002EB00AA74F8CC6480CCC86480C8F58204604FD3
:1002FB00C3EB9FF5F0EA9E42F0E99D42F0E89C4586
:10030B00F0603C501DE5825FFFE582D313CB5BCBE6
:10031B00F42B5582FB50280ABA002409B900200897
:10032B00801DE5825BFBE582D313CF5FCFF4C31354
:10033B002F5582FF50090EBE00050DBD00010CC3E9
:10034B00EB9FF5F0EA9E42F0E99D42F0E89C45F008
:10035B006007CC4820E701B3EC2275F020800E75C6
:10036B00F010800575F0087D007E007F003392D57C
:10037B0030D50312065AEC334010EF33FFEE33FE49
:10038B00ED33FDEC33FCD5F0ED22E5F0247EA2D568
:10039B0013CC92E7CDCEFF22EDD2E7CD33EC3392E7
:1003AB00D524814006E4FFFEFDFC22FCE4CFCECD3C
:1003BB00CC24E0501174FF80EDC3CC13CCCD13CD06
:1003CB00CE13CECF13CF0470F030D5DE02065AE930
:1003DB00D2E7C933E833F892D5EDD2E7CD33EC331E
:1003EB00FC5002B2D522EC30E7100FBF000C0EBE52
:1003FB0000080DBD00040BEB6014A2D5EB13FCED54
:10040B0092E7FD2274FFFCFDFEFF22E480F8A2D5EB
:10041B0074FF13FC7D80E480EFC2D530F707B2D5B3
:10042B0063F0FF05F030E70CB2D5F4048463F0FF02
:10043B0005F080018430D502F40422BB01068982C9
:10044B008A83E0225002E722BBFE02E32289828AE2
:10045B0083E49322BB010CE58229F582E5833AF50F
:10046B0083E0225006E92582F8E622BBFE06E92549
:10047B0082F8E222E58229F582E5833AF583E4935B
:10048B0022BB010689828A83F0225002F722BBFE2F
:10049B0001F322EF8DF0A4A8F0CF8CF0A428CE8D21
:1004AB00F0A42EFE22C2D5EC30E709B2D5E4C39DF1
:1004BB00FDE49CFCEE30E715B2D5E4C39FFFE49E50
:1004CB00FE1206EFC3E49DFDE49CFC80031206EFD5
:1004DB0030D507C3E49FFFE49EFE22BB0110E582EB
:1004EB0029F582E5833AF583E0F5F0A3E022500984
:1004FB00E92582F886F008E622BBFE0AE92582F898
:10050B00E2F5F008E222E5832AF583E993F5F0A3FF
:10051B00E99322BB010A89828A83F0E5F0A3F022DA
:10052B005006F709A7F01922BBFE06F3E5F009F315
:10053B001922E88FF0A4CC8BF0A42CFCE98EF0A44C
:10054B002CFC8AF0EDA42CFCEA8EF0A4CDA8F08B49
:10055B00F0A42DCC3825F0FDE98FF0A42CCD35F08F
:10056B00FCEB8EF0A4FEA9F0EB8FF0A4CFC5F02E20
:10057B00CD39FEE43CFCEAA42DCE35F0FDE43CFC89
:10058B002275F008758200EF2FFFEE33FECD33CDD1
:10059B00CC33CCC58233C5829BED9AEC99E582981E
:1005AB00400CF582EE9BFEED9AFDEC99FC0FD5F01D
:1005BB00D6E4CEFBE4CDFAE4CCF9A88222B800C194
:1005CB00B90059BA002DEC8BF084CFCECDFCE5F001
:1005DB00CBF97818EF2FFFEE33FEED33FDEC33FC48
:1005EB00EB33FB10D703994004EB99FB0FD8E5E4F1
:1005FB00F9FA227818EF2FFFEE33FEED33FDEC33D3
:10060B00FCC933C910D7059BE99A4007EC9BFCE961
:10061B009AF90FD8E0E4C9FAE4CCFB2275F010EF9D
:10062B002FFFEE33FEED33FDCC33CCC833C810D7E0
:10063B00079BEC9AE899400AED9BFDEC9AFCE89934
:10064B00F80FD5F0DAE4CDFBE4CCFAE4C8F922C319
:10065B00E49FFFE49EFEE49DFDE49CFC22EB9FF5F2
:10066B00F0EA9E42F0E99D42F0EC6480C864809809
:10067B0045F022EB9FF5F0EA9E42F0E99D42F0E84F
:10068B009C45F022E8600FECC313FCED13FDEE1359
:10069B00FEEF13FFD8F122E493FC740193FD740277
:1006AB0093FE740393FF22ECF0A3EDF0A3EEF0A303
:1006BB00EFF022A8828583F0D083D0821206D51268
:1006CB0006D51206D51206D5E473E493A3C583C5EC
:1006DB00F0C583C8C582C8F0A3C583C5F0C583C860
:1006EB00C582C822BC000BBE0029EF8DF084FFAD84
:1006FB00F022E4CCF875F008EF2FFFEE33FEEC336D
:10070B00FCEE9DEC984005FCEE9DFE0FD5F0E9E468
:10071B00CEFD22EDF8F5F0EE8420D21CFEADF07587
:10072B00F008EF2FFFED33FD4007985006D5F0F2A0
:10073B0022C398FD0FD5F0EA2278FFE4F6D8FD909E
:10074B0000007F007E04E4F0A3DFFCDEFA7581502D
:10075B00020799020A38E493A3F8E493A34003F643
:10076B008001F208DFF48029E493A3F85407240CEA
:10077B00C8C333C4540F4420C8834004F4568001CB
:10078B0046F6DFE4800B0102040810204080900045
:10079B000EE47E019360BCA3FF543F30E509541F68
:1007AB00FEE493A360010ECF54C025E060A840B8CF
:1007BB00E493A3FAE493A3F8E493A3C8C582C8CA4D
:1007CB00C583CAF0A3C8C582C8CAC583CADFE9DE20
:1007DB00E780BEC2D5E830E70FB2D5E4C39BFBE49C
:1007EB009AFAE499F9E498F8EC30E717B2D51208C5
:1007FB00141205C8E4C39BFBE49AFAE499F9E49854
:10080B00F880031205C830D50DE4C39FFFE49EFEAC
:10081B00E49DFDE49CFC220012002B0010DBD600B3
:10082B000FCC1E000ECF6C000DE44B000D096500C4
:10083B000C3D80000B7F7C000ACE50000A2907007C
:10084B00098EC30008FEB50008781F0007FA520096
:10085B000784AE0007169D0006AF9700064F1C00DD
:10086B0005F4B800059FFE0005508B00050602003D
:10087B0004C00D00047E5D000440A9000406AC001A
:10088B0003D02700039CE100036CA100033F37005A
:10089B000314720002EC280002C62F0002A26300B0
:1008AB0002809F000260C3000242B10002264C008E
:1008BB00020B7B0001F2230001DA2E0001C387003B
:1008CB0001AE19000199D2000186A00001747200DB
:1008DB0001633A000152EA00014372000134C8007F
:1008EB000126DF000119AC00010D2500010141F5C6
:1008FB00F5EB3AE107D755CE1DC558BD00B50EAD8A
:10090B007FA64C9F7098E792AC8CBB871181AA7C19
:10091B0082779772E46E676A1E6606621C5E5F5A88
:10092B00CB575F541950F84DF84B1A485A45B843FA
:10093B003340C83E773C3E3A1D3812361D343B32AD
:10094B006D30B22F082D6F2BE62A6C290127A426B8
:10095B0055251323DD22B22193207F1F751E7500B1
:10096B00000000000000000000000000000000007C
:10097B000100010000000001000000000000000069
:10098B000000000000020BB801900C800001010276
:10099B0000000003025800000B22010101030204B6
:1009AB00000404B000000BB80101010301050305AD
:1009BB0005DC00000C1C01010104010604060A8C75
:1009CB0000000C8001010105010305070EA60000C4
:1009DB000D160001000700000608032000000B2283
:1009EB0000010008020B0C0900C800000B220000DC
:1009FB0001090203000A0EA600C80D160001010929
:100A0B000200000B0C1C00A00BB80001000B020C29
:100A1B00080C0C1C00000BB80001000C02080B0D9D
:100A2B00022600000B220000000D000000C2101275
:100A3B0027DF1227A4F19A1223CB1221A21234DC46
:100A4B00D2121215D1123074C221120027122D713D
:100A5B00122030123365121899122C4712171130CD
:100A6B001BE8201018122A761236D71233FF51A624
:100A7B001231001220C4123940D210801A123033B6
:100A8B0012141012370D1237911237D21239371246
:100A9B00262B123949C210C21B80AF200C0BC20B84
:100AAB00121F8E12003EC20E22300F028165121FE2
:100ABB00F240028165752902752AEE300B08752903
:100ACB0001752AF48006752902752AEED3F1E650DA
:100ADB000261CED3E50A9434F1EA4002D20BE50A67
:100AEB0024D2F528E50934FFF52790003974181244
:100AFB0017B8FF64076004EFB40A1AD3900046E0FE
:100B0B0094229172948B400DAE27AF287C007D14FC
:100B1B0012331061C1D3E5289402E52764809480D9
:100B2B00500261C1120446FF64076004EFB40A0966
:100B3B00F1F1FF7C037DE88007F1F1FF7C057D146B
:100B4B001204B08E258F26E52530E705E4F525F553
:100B5B00260526E52670020525916698500512326A
:100B6B00EA8027E52854FC45276014AE25AF26E51F
:100B7B00282402FDE43527FC12049E8E258F26AC1B
:100B8B0027AD28AE25AF26123310900048E0247A0B
:100B9B00FF900047E034FEFED390003BE09FEE64F5
:100BAB0080F890003AE06480984005EEF0A3EFF0F7
:100BBB00900039743CF09166987D0050027D017F66
:100BCB00018162C3F1E640028165C3742E950AF57B
:100BDB0028E49509F527D3E5289404E52764809448
:100BEB00804002801BE52A2438FFE52934FFFED321
:100BFB00900046E09FEE916F984005E4F52B800343
:100C0B00752B01900039E0600414F0803CE52B60FB
:100C1B00051232EA8021E52854FE4527600FC39068
:100C2B00003BE09528F090003AE09527F090003AD1
:100C3B00E030E70312003D300B0FD3900046E094F9
:100C4B00EE917294824002C20B90003AE030E703BF
:100C5B0012003DAD2BE4FF12326222C3900046E03E
:100C6B00952AE5296480F8900045E0648022FF9185
:100C7B00827B007D027F038F29120446FF146015CF
:100C8B0014602814603D14603A2404705B1239A878
:100C9B001239DF80291239A8F5827401F52E85826D
:100CAB002FE582F4F58275300080131239A8F4F524
:100CBB0082752E0085822FEDF5827401F5308582C9
:100CCB00318025ED1239DF858231EDF5827401F526
:100CDB002A85822BEFB40407EDFF7401FE8005ED2E
:100CEB00F4FF7E008E2C8F2D90000112045F700795
:100CFB00EDFF7401FE8005EDF4FF7E008E328F3325
:100D0B0090000212045F7007EDFF7401FE8005ED89
:100D1B00F4FF7E00E529147002A1B0147002C12A01
:100D2B00147002C1A424036002E128E52AAB9A30B7
:100D3B00E006E52B4BFD8004E52B5BFD8D9AE52C46
:100D4B0030E00790F009F183800590F009F17C9079
:100D5B00F009EDF0E52E30E004F192800590F00AF9
:100D6B00F17590F00AEDF0E53030E004F18A800582
:100D7B0090F00BF16E90F00BEDF0EE30E004F1D74C
:100D8B00800890F00CE0FBEF5BFD90F00CEDF0E5D4
:100D9B003230E004F1DE800590F00DF1D0AF05901C
:100DAB00F00DEDF022E52AABA130E006E52B4BFD73
:100DBB008004E52B5BFD8DA1E52C30E00790F0194D
:100DCB00F183800590F019F17C90F019EDF0E52E90
:100DDB0030E004F192800590F01AF17590F01AED65
:100DEB00F0E53030E004F18A800590F01BF16E9055
:100DFB00F01BEDF0EE30E004F1D7800890F01CE032
:100E0B00FBEF5BFD90F01CEDF0E53230E004F1DE22
:100E1B00800590F01DF1D0AF0590F01DEDF022E5AF
:100E2B002AABA230E006E52B4BFD8004E52B5BFDE6
:100E3B008DA2E52C30E00790F029F183800590F02E
:100E4B0029F17C90F029EDF0E52E30E004F1928051
:100E5B000590F02AF17590F02AEDF0E53030E004C2
:100E6B00F18A800590F02BF16E90F02BEDF0EE30C7
:100E7B00E004F1D7800890F02CE0FBEF5BFD90F0E5
:100E8B002CEDF0E53230E004F1DE800590F02DF131
:100E9B00D0AF0590F02DEDF022E52AABA330E006A4
:100EAB00E52B4BFD8004E52B5BFD8DA3E52C30E0A2
:100EBB000790F039F183800590F039F17C90F0398F
:100ECB00EDF0E52E30E004F192800590F03AF175EB
:100EDB0090F03AEDF0E53030E004F18A800590F0C7
:100EEB003BF16E90F03BEDF0EE30E008A3E0FDEF50
:100EFB004DFF800890F03CE0FDEF5DFF90F03CEF84
:100F0B00F0E53230E009A3E0FDE5334DFF800990B9
:100F1B00F03DE0FDE5335DFF90F03DEFF022E4F5B1
:100F2B0026F527F528FB7A0079267D0191797B0040
:100F3B007D047F0291827B017D027F02122264E499
:100F4B0012225D75DF4075DE60E4F5E9F5D1F5D36E
:100F5B0075D50F75D4FF90F69274A0F01224074349
:100F6B00DE8022E0FBE5315BFD22E0FBE52F5BFD44
:100F7B0022E0FBE52D5BFD22E0FBE52D4BFD22A3E3
:100F8B00E0FBE5314BFD22A3E0FBE52F4BFD22F10E
:100F9B00291221C3752603E4F527752801C2B0C2B7
:100FAB0081FBFD7F03122264E40DFF1222647A00A1
:100FBB0079267F0391827B007D02E4FF9182E4120C
:100FCB002185F54F22E0FBE5335BFD22A3E0FBEF30
:100FDB004BFD22A3E0FBE5334BFD22E50A942EE506
:100FEB00096480948022900045E0FEA3E022E5088E
:100FFB00B40303E4F508E508146038147002018AA1
:10100B0014700201C72403600201C4D21311E6E479
:10101B00F52AAF2AEF3395E0FE74232FF582740087
:10102B003EF583E493FD11DBEDF0052AE52AB404CC
:10103B00E101BFE4F52A11D4E0FFC3648094804042
:10104B000FD3EF64809496400EEF6480949F50070B
:10105B00052AE52AB404DFC3E52A64809484501A78
:10106B0011D4E0F529640D6004E5297004C2131155
:10107B00E6AF2971207508028042750803803D7523
:10108B002E00752F00753029122BE4716EEF4E6018
:10109B002B85270B85280CAD29AF28AE2711FBE438
:1010AB00F52A11D4E0B5290511DB74FEF0052AE50C
:1010BB002AB404EE7508018003E4F508302109E534
:1010CB000864036003020FF922AF2AEF3395E0FEA9
:1010DB0074232FF58274003EF5832253DE7F007F4D
:1010EB00002013027FA090F692EFF00043DE8022E7
:1010FB008E2B8F2C8D2D90F692E030E708E4FFFEBF
:10110B00FD7C408002511431FA5103C004C005C06C
:10111B0006C007E4FBFA79807845AF35AE34AD33C2
:10112B00AC3212024FD003D002D001D000120146D4
:10113B008F398E388D378C36E52D605C24F8606FD7
:10114B0024FB601F24EE600221F9510312275E7FFE
:10115B009A7E997D997C4512024F8F1C8E1B8D1A9E
:10116B008C192275312D7530A6752F33752E3E5186
:10117B001D8F188E178D168C152000028011E4FB25
:10118B00FAF97840AF18AE17AD16AC1512024F8FA7
:10119B00148E138D128C112275318C75302E752F88
:1011AB00BA752E3D511D8F108E0F8D0E8C0D225149
:1011BB000B5114120051C004C005C006C007E4FF58
:1011CB00FE7DEB7C43510B120146D003D002D001C4
:1011DB00D00012024F31FA12270412014631FA12D3
:1011EB0003A37B007A00791D51308E098F0A228F61
:1011FB00358E348D338C3222AC2BAD2CEC02036A42
:10120B00AB39AA38A937A83622AF1CAE1BAD1AAC26
:10121B001922AB31AA30A92FA82EAF39AE38AD3772
:10122B00AC3602024F8B3A8A3B893C8F408E3F8D06
:10123B003E8C3D7F2B7E007D127C007117D31206F6
:10124B007E400B710EE412048C7EFF7FED22E47F57
:10125B00757E1E7115C312067E500A710EE41204C0
:10126B008CFE7F6422710E740112048CE47FF57E78
:10127B00F57115D312067E402EE4F541E54125E0CC
:10128B0025E02422F582E43408F5831206A27117B7
:10129B00C312067E400AE54124EDFFE434FFFE2233
:1012AB000541E541B436D5E4F541E54125E024FAA5
:1012BB00F582E43408F583E493FE740193FFE48F25
:1012CB00458E44F543F542E545F545E544F544E4E3
:1012DB00F543F542AF40AE3FAD3EAC3DAB45AA4406
:1012EB00A943A842D312067E5009E5412423FFE40B
:1012FB0033FE220541E541B43DB0710EE412048C7E
:10130B00FEFF22AB3AAA3BA93C22FDFCAB40AA3F15
:10131B00A93EA83D22AB077AA090002EE07043C3F4
:10132B00EB64809480403BD3EB648094964007EB56
:10133B006480949F402C9000271206BE0000000092
:10134B001225A4EBF0A37401F0EB30E40543DF802E
:10135B00800353DF7F53DEF0EB540F42DEDAFE43A4
:10136B00DF02228B2B8A2C892DE5DF30E1028043B3
:10137B0090002CE004F0700690002BE004F090003D
:10138B0027F1ADFBAFDDEFFEADDCEDB107EB2FFFD2
:10139B00EA3EFEE93DFDE83CFC9000271206B2C395
:1013AB0090002CE0940A90002BE06480948050070E
:1013BB0043DF02E4FEFF229000279105FFE47B0A46
:1013CB00FAF9F81207DE9000271206B2900027A355
:1013DB00A3E0FFA3E0AB2BAA2CA92DCF8FF0120516
:1013EB001E90002DE0AB2EAA2FA93012048CE49096
:1013FB00002EF0FE7F0122900008E0FCA3E0FDA38D
:10140B00E0FEA3E02290000CE0C394285042122689
:10141B0040F10890000CE004F091022528FFEE3516
:10142B0027FEED3526FDEC3525FC120045B100B14C
:10143B0035C31206685005900004B12D900006B11B
:10144B0003B135D3120668407D900006B12D80762E
:10145B009102FFC004C005C006C007900006E0FE65
:10146B00A3E0FBAA06EA3395E0F9F8B100EF2BFBFA
:10147B00EE3AFAED39F9EC38F8D007D006D005D0B2
:10148B0004C3EF9BFFEE9AFEED99FDEC98FC120066
:10149B00459102FFC006C007A3E024FEFFE434FF22
:1014AB00AB07FA3395E0F9F8D007D0061207DE1236
:1014BB000045900008A3A3E0FFA3E090000FCFF03E
:1014CB00A3EFF012324090000EE0FFB478057401E8
:1014DB00F08009EF600690000EE004F0900001E050
:1014EB00600214F0900000E0600214F090000DE038
:1014FB00600214F022900004E0FEA3E0FFEE3395AF
:10150B00E0FDFC22EF14600E14600F146010240336
:10151B00700FED42AC22ED42AD22ED42AE22ED4218
:10152B00AF22E527F0A3E528F022AB28AA27A926AE
:10153B00A825227F0A7E008E298F2AE4F52FE52A23
:10154B0045296078052FAE29AF2AB108E47BA07A34
:10155B000FF9F812053DB1C8C007AF2FAB07E4FA7E
:10156B00F9F8D0071205C8B1C8E47FFF7EFFFDFC78
:10157B00AB2EAA2DA92CA82BD312067E50C6C37452
:10158B00FF952EF52E74FF952DF52DE4952CF52C4E
:10159B00E4952BF52BAF2EAE2DAD2CAC2B78081282
:1015AB00068F8F8CE52EFF8F8AC219438810E58832
:1015BB0020E5033019F85388CFD52FD9228F2E8EE3
:1015CB002D8D2C8C2B2275260A1232407F9A7E99F8
:1015DB007D097C41D165600940077F031233EE80A2
:1015EB0010D15D600C400A200007D200C2131228F4
:1015FB000EE4900002F012263D12259BD170D526E9
:10160B00F5301225F1B970213000167F04D1357FEA
:10161B00C87E00B1427F04D135752630B13ED52648
:10162B00FBD21890000D7412F022EF24FE600E24F2
:10163B00FE60102403701AC2B0D281800AD2B0C2ED
:10164B00818004D2B0D2817F147E00B142C2B0C27D
:10165B0081227F337E337D8B7C40AB18AA17A91672
:10166B00A8150202ECF1B96407600875270E7528FE
:10167B0042800675270D7528DEE55014601F146037
:10168B00391460502403705CC3900010E09528E57A
:10169B00276480F8F1C998504B75500122E5282436
:1016AB00FAD1F04003E4F550E5282438FFE5273460
:1016BB00FFFEC3EDD1FE502C8027E5282432D1F05C
:1016CB004003755001C3ED9486EC6480948B5014E9
:1016DB0075500322D3900010E094E4F1C9948C4030
:1016EB000375500222FFE43527FE90000FE0FCA3A8
:1016FB00E0FDD39FEE6480F8EC648098228F288EF7
:10170B00278D268C2522201C02E1A9301E1D90F16D
:10171B0029E030E002E1A990F164E0301D0554FEB0
:10172B00F080034401F0C21CC21E22122666F1AAED
:10173B00FB1202EC600C400A9000411206BE42C83C
:10174B000000E4FFFEFDFCF1AAFB1202EC500A9034
:10175B0000411206BE00000000E4FFFE7DFA7C454E
:10176B00F1AAFB120146E4FBFA798078BF1200550F
:10177B00F1081226FC12024FF1081203A3AD07ACBD
:10178B0006ED4CC36001D3921DECFFEF90F141F0DD
:10179B00ED90F140F0D21E90F129E04401F022903F
:1017AB000041E0F8A3E0F9A3E0FAA3E022F0AB4C90
:1017BB00AA4DA94E020446D3900010E0942290004B
:1017CB000FE0648022D3900010E094EAF1C9948B6F
:1017DB004002800B1239F9F1C9948A40057F03024C
:1017EB001D59F1B97004754F0722F1B960211460CE
:1017FB001E8000300308C203E4FFB159800D111C99
:10180B0090000712045F600312387BE4FFB159228A
:10181B00F0AB4CAA4DA94E228F27111C9000091238
:10182B00045F60031238261217B954FE600AD19474
:10183B00E527B401031217F5900018E030E72254A6
:10184B007FF020000F111C90000C12045FB40604F3
:10185B007F03800B111C90000C12045FFF6002B120
:10186B0059900018E030E50F54DF111B90000D125A
:10187B00045FFF6002B159111C90000B12045F60F2
:10188B000C5402FF90000A12045FFDF10422122592
:10189B00C6400281631230668F25900015E0FFC3AE
:1018AB0094034006EFD3940640069000157403F0A2
:1018BB001217B9F526900051E0600241B5E52614E8
:1018CB007002413F147002414D24FB7002416824A9
:1018DB00FD700241A324FD70024193240D6002416F
:1018EB00B5300159E525B40519754F09C201121719
:1018FB00C2948B40069000147405F0C21312280E8C
:10190B0041B5F1F5BF012012258B1217C9948B50ED
:10191B0007E4900022F041B530070241B590002258
:10192B0074A0F0D20741B5300707E4900022F0C253
:10193B00071225B9400241B5754F0741B520081272
:10194B001225E5500D1217C3948B4073D1D6D208D4
:10195B00413B300808B1AF4004C208413BE52514B8
:10196B00B408004002413B90197B122FE1C58373F1
:10197B00021993021A3B02199D0219AD0219CF02EB
:10198B0019D9021A20021A38900015E0FF1217D04D
:10199B00413B1239F91217C9948A40047F08801B06
:1019AB00801D20091AD3900010E094161217C994C9
:1019BB008D400C1239EFF0D2057F0AB15980717549
:1019CB004F07806C200169754F08D20180581216A1
:1019DB005D60064004D2008007D3300001C3920043
:1019EB002000077F04121635800312261C200023CB
:1019FB00D390001AE094DC900019E0648094854049
:101A0B0002F1A4D390001EE094DC1236D0948540F2
:101A1B0002F1A48011D3300601C392067F02300677
:101A2B00027F01121635C21312280E80031238835F
:101A3B00D19480761236F440711225E5506CF1E0AA
:101A4B008068300811E490001FF0B1AF400AD1FB61
:101A5B004006C2088002B1B61235D7804D300D0753
:101A6B007F031217D08043E5256402703D9000136D
:101A7B00E0B409047F038005900013E0FF1217D038
:101A8B009000137403F08022F1F2401EE4FFFE7D00
:101A9B00201216635014800F200D0A900016E07070
:101AAB0002A3E07005D2081217F51217B9B5260A72
:101ABB00900051E07004AF25112312260E20001167
:101ACB001217B9FF64066004EFB407057F03121702
:101ADB00D03005091217B9640A6002C205900014D0
:101AEB00E07009900022E0600A300707F19D74E670
:101AFB00F0813A900051E0601012313DEF7E0060B2
:101B0B00047F9681377F0081371230BD5007F19DDE
:101B1B00741EF0813A1217B924FE700261DF24FAA9
:101B2B00700261C524FE604D14603424FE700261A6
:101B3B00C50460028119D20F123952EF24FE6009DD
:101B4B002402700C122593813AF19D74C8F0813AEE
:101B5B00C20F300004916480047E057FDC813791D5
:101B6B0074D1F3F0D3948AEE6480948240028001A6
:101B7B00D3920F813A200013B1AF50067E057FDC64
:101B8B008019111C900003916D8010B1AF111C5086
:101B9B00059000018003900003916DD1F3F0111CAF
:101BAB00F1B8900047E0B5F009A3E0B50704D20FF8
:101BBB00807D1239EFF0C20F807512389EEF6004F2
:101BCB00916480047E007F00D1F3F04EC37001D38B
:101BDB00920F805BC20F12356B9000191216F890A2
:101BEB0000474007EEF0A3EFF08005ECF0A3EDF01B
:101BFB0090001FE0603930020FF1D87802CEA2E7D7
:101C0B0013CE13D8F8FF80047E007F1E801E9164D4
:101C1B00D39401EE648094804010900048E094C20D
:101C2B00F19694815004D20F8002C20FD1F3F020B1
:101C3B00000FD3900048E094DCF19694854002F1BC
:101C4B00A4300014D3900048E094A6F196948E40F3
:101C5B0007740EF0A374A6F022AB4CAA4DA94E90BC
:101C6B0000011204E6FFAEF0223000049164800400
:101C7B007E057FDC8E278F2890003DE014604C148E
:101C8B00605C147002A14124036002A150F1E84092
:101C9B0002804FC3D181502591641239BD9480507D
:101CAB0002E4F090003FE004F0700690003EE00488
:101CBB00F0D3D1815002A15012152DA15090003DAF
:101CCB007401F090003C7404F0807A90003CE0606A
:101CDB0005AE27AF282290003D7402F08067F1E833
:101CEB004005E014F0805E111CF1B8D390003FE08A
:101CFB009FE5F0D1894031916A1239BD9480500231
:101D0B00E4F090003FE024FFF090003EE034FF1140
:101D1B001B900003916DC390003FE09FEED1895063
:101D2B0024EEF0A3EFF0801D90003D7403F09000C3
:101D3B003C7428F0800F90003CE06004E4FEFF222E
:101D4B00E490003DF090003EE0FEA3E0FF228F29DF
:101D5B001217B96529604CF1ACF52A7B007A007932
:101D6B002B1235998B2C8A2D892EE52B6035E52985
:101D7B0024F5600F1460101460042405700C1235E8
:101D8B007D8007F1C08003123587852C4C852D4D46
:101D9B00852E4EE529D394024009E52A6005F1D83A
:101DAB00FFF15B22E548C36001D322B1AF92F7D1BB
:101DBB00FB72F79211300004916480047E057FDC86
:101DCB0090001DE0FCA3E0FDC31216FE5002800440
:101DDB00AC06AD07AE04AF05111CF1B2FDC3EF9D10
:101DEB00E5F0122B8B500C301109F14A4005EEF047
:101DFB00A3EFF0B1AF5027200424900021E0600442
:101E0B0014F08059C3F14A500EA3E004F070069011
:101E1B000019E004F08040D2021239CE8039D1FB98
:101E2B00502D20042A900021E0600414F0802E1124
:101E3B001C900003916DF149400EA3E024FFF0903C
:101E4B000019E034FFF08005C2021239CE80082061
:101E5B00110B300408C2049000217405F0301107F7
:101E6B009000207420F022900020E0B4010714F0C1
:101E7B00C21312280E2290003FE09528E5276480BC
:101E8B00F890003EE064809822F1F5EF24FE601696
:101E9B001460161460161460282404702D1217B9E0
:101EAB0070287F0980220226550227151217B97058
:101EBB00191217C2948B4005D1D6D20822754F0741
:101ECB00221217B970047F0DB159227F02B159202C
:101EDB001615201712E550700E3000049164800423
:101EEB007E057FDC12357422900047EEF0A3EF22C3
:101EFB00E54BB40202D322C3228D287E02D1FB50C4
:101F0B0004D2118004B1AF921120170F7E0A301644
:101F1B0003301107E4900058F080031235CE900087
:101F2B0058E0D39E4017EF60028006301106301741
:101F3B00030217F5E4900058F0AF28B15922D39063
:101F4B00001AE09FEE6480F8900019E064809822FC
:101F5B008E2F8F30111CF1AC70028024111CF1B24A
:101F6B00FBAAF012333190003AE03EC3EB9530FF01
:101F7B00EA952FFE90003AF0A3EFF0EE30E704E481
:101F8B0012003EE4900037F0A3F022900047E0648B
:101F9B008022900047E4F0A3227405F0A374DCF0D8
:101FAB002290000802045F9000010204E6900003F7
:101FBB001204E6FF22E490003D111BF1B890003EA5
:101FCB00122FA6E490003CF0900040F022900047C6
:101FDB00E0FEA3E022E490004AF0FFA159900040FC
:101FEB00E0D36480948022A22022E54B14FFD364BB
:101FFB008094804001227F0022EF14601114601541
:10200B001460192403701CE5AC5D6017D322E5AD99
:10201B005D6010D322E5AE5D6009D322E5AF5D6054
:10202B0002D322C3227D407F021104403990005C11
:10203B00E0FF25E0F030A603E004F090005CE0FC4C
:10204B00F46003EC7020318EE4F5B6BCFF03C38063
:10205B0001D392227B01BCFF027B027D067F02B182
:10206B00227D4012150F302208E54730E7037547F4
:10207B00807F822005027F85AC07302225E546B59F
:10208B000420D3E54964809480400BAF49EF33952E
:10209B00E0FED1008009E4F549754B01754801E478
:1020AB00F546202213E547B4840EE4F547E5487066
:1020BB0004754A0122E4F54822F167EF6002318E84
:1020CB00D3E51F9400E51E94004009E51F151F7012
:1020DB0002151E223145438704438702000000008E
:1020EB000000B1ADEF6022F1A4B10F31287F017E6A
:1020FB00001215421130301B0AC21BB211301103F2
:10210B00123033B1B950E68021E5256004152580E6
:10211B000571AD75250BE51F451E60BA227D407F0D
:10212B0002F18290005C74AAF022120F9A31A21273
:10213B000027C2121215D1C22122E4F5C853A8DF21
:10214B00513D51CF317EB18B1217C9948B40233047
:10215B000620752601E4F527752801B1841217B9FD
:10216B0031BCB401067D017F0380047D02E4FF12C4
:10217B000C8222C2B0C281E4F54F900057F0900060
:10218B0056F0221217B9B40107751E00751FF02205
:10219B00751E00751F28225133C29331BC7D087FF9
:1021AB0001120C82B193900045F0A3F0C220C21F24
:1021BB00227B007A007926225133C2A331BC7D08E1
:1021CB007F02120C8290F120E4F0A304F090F12333
:1021DB00F090F12A74FFF090F122E4F090F12704D3
:1021EB00F0A3F090F160E4F090F165F090F16404ED
:1021FB00F090F131741FF090F130743FF090F14199
:10220B00E4F090F140F09000411206BE0000000097
:10221B00C21EC21C90F166E4F090F12604F0B1F2FC
:10222B007B127D037F02803175260375270175288C
:10223B000122E4FB7D037F02516490F1287401F0CD
:10224B0090F121E4F090F126F090F125F090F1233C
:10225B00F022FDFF51640D7F03EB64026065EB64BC
:10226B00036060EB6419605BEBD3941C5055EF1467
:10227B00601514602314603124037047EDD394056B
:10228B005041ED2400802BEDD394075036EDC394D1
:10229B00034030ED2410801AEDD394065025EDC386
:1022AB009401401FED24208009EDD394065014EDCA
:1022BB002430F52AE434F0F529EB541F852A828566
:1022CB002983F022E4F5DE90F692F09107E4FB51BE
:1022DB005D752603E4F527F5287A007926120C792B
:1022EB00C2127D017F0351F8C212E41DFFEF14608F
:1022FB003614605F147002618A2403600261ACEDD6
:10230B00D39405400261AC30120EA805740108800D
:10231B0002C333D8FC428022A8057401088002C393
:10232B0033D8FCF4528022EDD394075074EDC39450
:10233B0003406E30120EA8057401088002C333D817
:10234B00FC429022A8057401088002C333D8FCF428
:10235B00529022EDD394065048EDC3940140423085
:10236B00120EA8057401088002C333D8FC42A022C8
:10237B00A8057401088002C333D8FCF452A022EDE7
:10238B00D39406501C30120EA8057401088002C3AA
:10239B0033D8FC42B022B1078002C333D8FCF452CD
:1023AB00B022120F29D13DB19BC39454EE6480949B
:1023BB008B5005B17E120F9F51CFE4F51EF51F22F6
:1023CB00752501E4F526F527FB7D067F0251647A1E
:1023DB000079257D40120C827D407F0212150F7B08
:1023EB00027D06B12243B904318E90005C74FFF07C
:1023FB00E4F546F547F549F54AF54B227F04900085
:10240B002374FEF0A3DFFCE4F5089000271206BE50
:10241B0000000000B1A4F0A3F0D221227D067F02C0
:10242B009166EF64014E702FC222E546547FFFE4A4
:10243B00F546E5487004E54B6007E4F54BF548803D
:10244B0018EFC394055012C3E54964809488500279
:10245B0005497547808002B10F2128EF14602314C2
:10246B00603F14605B24037074EDD39405400280CD
:10247B006CED248091FD088002C333D8FC55ACFC75
:10248B00805FEDD394075006EDC394035002804D4B
:10249B00ED248891FD088002C333D8FC55ADFC8038
:1024AB0040EDD394065006EDC394015002802EEDFF
:1024BB00249091FD088002C333D8FC55AEFC8021DB
:1024CB00EDD3940640028015ED2498FBE434F0FA2A
:1024DB00B1078002C333D8FC55AFFC8004E4FEFF88
:1024EB0022EC7003FEFF228B828A83E05403FF7E73
:1024FB000022FBE434F0FAA805740122AF05A8070B
:10250B0074010822D222E54730E703754780E54680
:10251B0020E70375468022EBD394035055EF1460EC
:10252B001514602314603124037047EDD3940550C8
:10253B0041ED2480802BEDD394075036EDC39403EB
:10254B004030ED2488801AEDD394065025EDC394CA
:10255B0001401FED24908009EDD394065014ED2417
:10256B0098F529E434F0F528EB5403852982852866
:10257B0083F022E4F5BDF5BC2275BCFF75BDBF220F
:10258B00C3900010E0945422E4900047F0A3F02293
:10259B0090000FEEF0A3EFF022E490002BF0A3F0ED
:1025AB00A32220A6037F0122E5B65440FF22E54B70
:1025BB006002D322E54AC36001D322201802D32242
:1025CB0090000DE07006900003E06002C322B1B9E9
:1025DB004002C218D10EB1E5C322E54B6401600283
:1025EB00C322E4F54BD32290F1297401F090F12929
:1025FB00E020E0F922E4F547F54AF549F548EF0408
:10260B00F54B22E54A6009E5496005E4F54AF549D1
:10261B0022900003E07008318E9000037404F022C6
:10262B0020000E12165D4009D200D11CC2131228D5
:10263B000E22120027E4FFFE7D7A7C44AB14AA1312
:10264B00A912A8111201460203A3900002E0700A1E
:10265B00F13DD166F155D14FF10C22E4FFFE7DC85F
:10266B007C4222AD07AC06EC12036AE4FBFA79203C
:10267B007841D1F28C27F10412024FD1F58C277BD4
:10268B004D7AB579B1783C12024FD1F58C277BB6D8
:10269B007AF3797D783FD1F28C27C004C005C00650
:1026AB00C007E4FFFE7D7A7C44AB1CAA1BA91AA8C9
:1026BB0019120146F15ED007D006D005D0041202E4
:1026CB004FD1F58C27D1FCD1F28C27D166AB2AAA3E
:1026DB0029A928A8271202EC60044002C166AF2A80
:1026EB00AE29AD28AC27221201468F2A8E298D28C0
:1026FB0022E4FBFA79C8784222E4FBFA797A78442F
:10270B0022900011EEF0A3EFF022E51D6023900064
:10271B0002E0701DF13DD215E50AAE0930E707FF67
:10272B007CFF7DF68006AF0A7C007D0A12049EF1C9
:10273B000C2290000274011217B8600DE54F600671
:10274B009000017408F0E4F54F22AB18AA17A916F4
:10275B00A81522A804A905AA06AB0722900002E03F
:10276B007006900051E060037F01221217B954FEEE
:10277B007F0060027F0122EF14600F146011146060
:10278B001324037013EDF452AC22EDF452AD22ED91
:10279B00F452AE22EDF452AF225388CF5389F0435B
:1027AB008901E4F58CF58AF5CE75CB0B75CADB7513
:1027BB00CD5D75CC66F5C975CF8075A8A2C21BC25D
:1027CB001A75C89122C2AF007596AA759655759762
:1027DB008080FE22C2AF007596AA75965553977FDF
:1027EB002275C900B21A301A02D21B325388EFD2AB
:1027FB001932301407C2AF0075FBAA2275FB5500C6
:10280B00D2AF22E4FFD2141227FD3001010F3006A4
:10281B0003430702300003430704900035EFF090A9
:10282B000019E0FFA3E0900033CFF0A3EFF07B01A2
:10283B007A0079337D037193900036EFF020130EFD
:10284B0090004FE0FF900036E0B507028072201336
:10285B000FC390004EE094FE90004DE094004017A3
:10286B0071E47D007C027F1D11D0E4FC7F1D11D033
:10287B00E490004DF0A3F0E4F52790004DE0FEA3AB
:10288B00E07802C333CE33CED8F97C002527FDEC9C
:10289B003EFC74332527F9E43400FA7B017F1911D0
:1028AB00D00527E527C3940440D090004EE004F0F8
:1028BB00700690004DE004F0900036E090004FF071
:1028CB00C2140227FD8F2CE52CB41905120446F512
:1028DB00FEEDF5FCECFFEFF5FD00852CFF00000095
:1028EB00000000E5FF20E0FBE52CB41105E5FE122E
:1028FB00048C228B268A278928E4F52AF52BD214FF
:10290B001227FDE4F529AE2AE52B7802C333CE332B
:10291B00CED8F93182C3940440ECAB26AA27A92860
:10292B007D037193AB26AA27A92890000312045F9D
:10293B00B50713052BE52B7002052AC394FEE52A78
:10294B006480948040BDD3E52B9400E52A64809489
:10295B00804008E52B152B7002152AE4F529AE2AC9
:10296B00E52B7802C333CE33CED8F93182C394042E
:10297B0040ECAE2AAF2B227C002529FDEC3EFCABB4
:10298B00267E00E5282529F9EE3527FA7F1111D08F
:10299B000529E529227B017A00792F11FE90004D44
:1029AB00EEF0A3EFF07B017A00792F7D037193900A
:1029BB000032E06F704E900031E0C330E101D392F2
:1029CB0006900031E0C330E201D39200900031E079
:1029DB00C330E001D3920190002FE0FFA3E0900001
:1029EB0019CFF0A3EFF0900032E090004FF0900081
:1029FB004EE004F0700690004DE004F071C4400E00
:102A0B00511E800A5145D201D213110E515BC214D3
:102A1B000227FD2001235145C213110EC2141227A8
:102A2B00FD752664754F0612153E517671C4500222
:102A3B001526E52670F11227D02271C7C201D206E6
:102A4B0012002712165D60054003D20022C200223D
:102A5B007526FFC2141227FD754F031526E5266058
:102A6B000712153E517680F30227D0F1EA501790EA
:102A7B000056E0C36480948C5005E004F0800CE4B5
:102A8B00900056F06176E4900056F0E54FB40A00E2
:102A9B004002617A902AA6F8282873022AC4022AD7
:102AAB00CE022AD3022AF4022AD8022AF4022ADA04
:102ABB00022B31022B31022B31C2B0C281E49000C8
:102ACB0057F022C2B0D28122D2B0C28122801571BE
:102ADB007B4F7F8060027F00900057EFF0717F4F3C
:102AEB0070026176D2B0D28122C281900057E0FF92
:102AFB00547FFEE54F7D00B403027D03C3ED718B64
:102B0B00500C0EEF5480900057F04EF0800E717BFE
:102B1B004F7F8060027F00900057EFF0717B4FC3B7
:102B2B006001D392B022900057E0547FF0E54F64E0
:102B3B00086005E54FB409047F0680027F0A900008
:102B4B0057E0FED3EF718B4004E4F54F2290005712
:102B5B00E0FF04F0EF75F002120424AFF0EF600B0E
:102B6B00E54FB40903D28122D2B022C2B0C2812276
:102B7B00900057E05480FF3395E022FCC3EF9DECAF
:102B8B006480F8EE648098228B2C8A2D892E7FFF2F
:102B9B00AB2C052EE52EAA2D7002052D14F912046F
:102BAB004662077E08EF30E70725E06407FF8004E5
:102BBB00EF25E0FFDEEFDDD822A2A62271E47F0233
:102BCB00123599E5276008121FB8900019E1A690FD
:102BDB000019E4F0A374C8F0227B007A0079272255
:102BEB00200C07121FD8FFC20E22123331FF9000A8
:102BFB003AE03EFE30E703E4FEFF900047E0FCA323
:102C0B00E0FDC39FFFEC9EFEC3EF9486EE648094C1
:102C1B00815015ED247AFEEC34FE90003AF0A3CEF1
:102C2B00F0121F8E7E017F86900048E02438FD90C5
:102C3B000047E034FF71865002D20E22900047E02D
:102C4B00FAA3E0FBD39400EA64809480401971EB03
:102C5B008E258F26121FD8FFC39526E525718B5025
:102C6B000A8E258F2680048A258B26120FF1FF658D
:102C7B00267003EE65257002A168D3E5269400E566
:102C8B0025648094805002A151E5269FFFE5259E87
:102C9B00FED3EF9458EE648094824002D21F201F23
:102CAB0002A12F900045E07002A3E0701DC3E52642
:102CBB009458E525648094829000455004B1698056
:102CCB00507402F0A37458F080473005089000460A
:102CDB00E0243280341217B924F8601724FB6013F8
:102CEB00047020900046E024E8F0900045E03403A7
:102CFB00F0801E900046E02490F0900045E03401F7
:102D0B00F0800E900046E02402F0900045E0340085
:102D1B00F0C3900046E09526E525120C6F9840090C
:102D2B00C21F8003900045B16920200BD2937F0511
:102D3B007E00121542D220120FF1FF12266E900068
:102D4B00411206B28015C2939000411206BE0000DC
:102D5B000000C220E4900045F0A3F0D21C22E52530
:102D6B00F0A3E526F0221217B9B4020C90001BE079
:102D7B00F525A3E0F526800B9000051204E6F52659
:102D8B0085F02590000FE0FEA3E0FFD394BEEE6428
:102D9B0080948A4013D3EF9526E525718B400280F2
:102DAB0001D39216C2178004C216D217121670E501
:102DBB004FD39406502490004AE0600302373990B9
:102DCB000002E06002801490000DE070081217B949
:102DDB00D394014002E14CE4F54F22900002E01441
:102DEB00B40B004002E139902DFAF1E1C583730277
:102DFB002E1B022E2B022E77022E7D022E94022EDC
:102E0B009A022EB1022F06022F1E022EB7022EC8D7
:102E1B00900001E06002E139740FF0A37402F0221C
:102E2B001231F98F4F900001E06002E139900011EF
:102E3B00E0FEA3E0FFD394E7EE648094834022F19D
:102E4B0045D3ED9404EC64809480400BE0240AF0AD
:102E5B00900011E03400F0F13A7D0A1204B0122711
:102E6B000CF13A7D641204B07D0380377D047F0240
:102E7B008038F13A7D641204B0900011ECF0FEA39F
:102E8B00EDF0FFF1457D05801A7D067F04801B3038
:102E9B001504F1ADF022F13A7D0A1204B0AE04AF85
:102EAB00057D0702311B7D087F01E1B5900001E034
:102EBB00707CA3740BF0900001741FF02290000142
:102ECB00E0FFC394195028EF54F86023C3E50A942C
:102EDB002D120FEA5005754F018017C3E50A943781
:102EEB00120FEA5005754F048008754F028003E4FA
:102EFB00F54F900001E07036A38014900001E07054
:102F0B002D1217B9700690000D7412F09000027418
:102F1B0009F022C215E4900011F0A3F090000DE02F
:102F2B0060028058121FF5EF7004900002F022909F
:102F3B000011E0FEA3E0FF7C00227C007D0A02046E
:102F4B00B0300104C211802B1217B9640D6004D28A
:102F5B00118020E550B40304D2118017900000E0DB
:102F6B007003742BF0900000E0D3940340028001B7
:102F7B00D392113011028004E4F54F22E550146016
:102F8B000E14600F1460102403700F754F0122751F
:102F9B004F0422754F0222754F0322E5F0F0A3EF89
:102FAB00F022900001740AF0A3228F278D28900045
:102FBB0001E030E708121635E4900001F0900001B3
:102FCB00E0FF7E0030E102AE278E4FEF7007F54F2A
:102FDB00F1ADE528F02275F003A4C58325F022900E
:102FEB000002E06002C322A20E22C0E0C0F0C08348
:102FFB00C082C0D075D000C000C001C002C003C0E9
:10300B0004C005C006C00712242775B600D007D030
:10301B0006D005D004D003D002D001D000D0D0D040
:10302B0082D083D0F0D0E032E4FE74462EF8E63046
:10303B00E724547FFDEE700B7C053005027C02AF5C
:10304B000480027F04EDC39F50010DE65480F6749B
:10305B00462EF8E64DF60EBE02D022E54B7004E587
:10306B004A70037F0022AF4922439A3C43A110438D
:10307B00A23043A3045380C35390EF53A0CF53B05C
:10308B00FB90F00AE054C3F0A3E054C3F090F01AA5
:10309B00E054EFF0A3E054EFF090F02AE054CFF0BF
:1030AB00A3E054CFF090F03AE054FBF0A3E054FBD4
:1030BB00F022E55064036004C211801A1217B91490
:1030CB00600E24F9600A24FD24FD5004240E7004C4
:1030DB00C2118002D211201107E490000EF0801370
:1030EB0090000EE0FF700404F08008EFD39474405E
:1030FB0002D322C322900003E030E0057F011216B9
:10310B003590000DE07008900003E0600214F0228F
:10311B00900001E07011EF4E70057480F080033168
:10312B0033F0900002EDF022EF25E025E014900043
:10313B000122900051E024FE606D14700221DA141C
:10314B0060232403600221ED900001E0FED394067E
:10315B0040037F0122EE600221ED900052F09000BF
:10316B0050F0A3807A31F0FF642D6004EFB4201788
:10317B009000517403F0EF900001B42D057424F00E
:10318B00801D7414F0801831F0540FFF70089000FC
:10319B00507432F080033133F09000517402F09090
:1031AB000052E004F0803B900050E0701990000159
:1031BB00E0FF700B740CF09000517403F08023EF60
:1031CB0030E11F7F0122900050E014F07F0122902C
:1031DB000001E0700D31F09000517003F08003742A
:1031EB0004F07F0022900052E090002E932290007A
:1031FB0001E0FFD39409403AEF24F8C31314FF30D6
:10320B001507E50A20E7020F0F201513D3900012C4
:10321B00E094E7900011E06480948340020F0FEF7D
:10322B003395E0FE74032FF58274003EF583E4932F
:10323B00FF227F0022900004747FF0A374FEF0A3A2
:10324B007480F0A37402F0E490000CF0900008126C
:10325B0006BE00000000228D2CA907E9600CE50AD0
:10326B0024D1FBE50934FFFA800AC37428950AFBC5
:10327B00E49509FAEA30E703E4FAFB712040028097
:10328B001B51D9E49BFD747D9A122B86500AE52CB9
:10329B0060067E007F0180047E007F00EF4E600998
:1032AB00EB25E0FBEA33FA8003E4FAFB0BBB0001EE
:1032BB000AE96006AE02AF038007C3E49BFFE49A02
:1032CB00FE900038E02FF0900037E03EF0229000A7
:1032DB0037E0FEA3E0FF7CFF7DFF12049EC322714B
:1032EB00204002801451D9EF94C0EE648094837E09
:1032FB000050047F0180027F00EF4E700771317127
:10330B0018121F8E2212049E90003BE02FF09000AB
:10331B003AE03EF022900037E0FEA3E0FFD39400AA
:10332B00EE6480948022900037E0FEA3E0FF7C00E7
:10333B007D101204B090003BE02F22AF25EF3395A8
:10334B00E0FED371E14002D322AF26EF3395E0FECE
:10335B00C371E15002C322A21222E51D6073A20DBC
:10336B0092127525377526287146920DA209921275
:10337B0075253275262871469209A20A9212752577
:10338B00417526297146920A300A067F0671EE8036
:10339B000A90004AE0B40603121FE012181C121F19
:1033AB00AC7003C20C22A20C921275252E7526232B
:1033BB0071469211301103D20C2220111890003A51
:1033CB00E07002A3E0700E900037E030E707C20C0C
:1033DB00227F0571EE22E50A9FEE6480F8E5096411
:1033EB0080982290004AEF1217B8640160057F01A4
:1033FB00121D5922121FF24006E490004CF022904D
:10340B00004CE0C394045004E004F02290004BE025
:10341B00540FF5257F337E337D8B7C40AB14AA1381
:10342B00A912A8111202EC600640047F0371EEE4AE
:10343B00FFFE7D807CBF12275512005591D150099C
:10344B007D0291BBE4F5268039E4FFFE7D607C4173
:10345B0091D1500791B97526028027E4FFFE7DA814
:10346B007C4191D16009400791B97526018013D336
:10347B00E525648094804006E52514FF80027F00DB
:10348B008F25E526C454F0452590004BF0C3E52568
:10349B00648094884017E0C4540F24FE60070470C6
:1034AB00087F0480067F0180027F0271EE227D017E
:1034BB00AF2591C28F2522C3EF648094885004EF0F
:1034CB002DFF227F0822AB10AA0FA90EA80D020216
:1034DB00EC9000157403F0900013F0E490004AF0A8
:1034EB0090001FF01229A07B007A0079257F02B192
:1034FB00998B4C8A4D894EE525604390000512044B
:10350B00E6FF90001B122FA6300005121C6A8004E8
:10351B007E057FDCB174900003121C6DC3121F4A31
:10352B005005EEF0A3EFF0B16B121F494005EEF022
:10353B00A3EFF0754CFF754D09754E7480047F0732
:10354B0071EEE4900014F0C205C20FC202C208C2B1
:10355B0007C2039000217405F0B17DB187021FC033
:10356B0090001DE0FEA3E0FF2290001DEEF0A3EF04
:10357B00F022E490005BF090005AF022900053741C
:10358B0001F0E4900055F09000547418F022E4120E
:10359B00048CFEEE75F00EA42474F582E43409F568
:1035AB0083E493B50707740112048C80040EBE0EDE
:1035BB00E2AF06EF75F00EA42474F9740935F0FA36
:1035CB007BFF22900058E0700204F022301602C1FB
:1035DB0071301702C171E4900058F0E5506002C1E0
:1035EB00CC12181C121FB2FFC390001EE09FE5F017
:1035FB00D1CD98506B900059E0FF700404F0800817
:10360B00EFC394095002C1CC9000597401F09000A3
:10361B0005121C6DD390001CE09FEE6480F89000A7
:10362B001BE06480984007EEF0A3EFF0800E900053
:10363B001CE02432F090001BE03400F0121C64D329
:10364B0090001EE09FEED1CD984006EEF0A3EFF078
:10365B002290001EE024FAF090001DE03400F022CE
:10366B00E4900059F022E4900059F0B1CE30170CE1
:10367B00900058E0D3940440030217F5900058E0F3
:10368B00D3940A403CD390001EE094F4D1D09481A3
:10369B00400CA3E02406F090001DE034FFF0D39023
:1036AB00001CE0942290001BE06480948B400CA3E0
:1036BB00E024E7F090001BE034FFF0900058740119
:1036CB00F0226480F890001DE0648022900059E0A5
:1036DB006008C394095003E004F0900058E06008C0
:1036EB00C3940B5003E004F022E4FFEF9000089327
:1036FB00FE90004AE0FDEEB50502C3220FBF03EBBF
:10370B00D32290004AE0FF7005900049F022900010
:10371B0049E004F0F130EF240FFFE43EFEE0F187C7
:10372B004002E4F0227E007C007D0602049E9000A5
:10373B0049E0FFC39405500BEFC39403503AEF04D9
:10374B00F54F2290004AE0FFF130EF2405FFE43EF5
:10375B00FE900049E0FDF187501EED24FBFFEC3499
:10376B00FFFE7D031204B07C007D021204B0ED4C11
:10377B007004754F02228000E4F54F22C39FEE6464
:10378B0080F874809822900020E054FE6003E014CF
:10379B00F090001FE0600714F0E07002C20290008E
:1037AB0022E0600214F0900016E07002A3E0600EBD
:1037BB00900017E024FFF0900016E034FFF090002B
:1037CB0014E0600214F0221217B9B40A02800A1234
:1037DB001DAF400B121EFB4006E4900018F0229028
:1037EB000018E0FF541FFE7013EF20E60F121EFBB4
:1037FB007D8050027D20EF4D900018F0900018E076
:10380B0054E0F0C3EE648094865007E020E6030E8C
:10381B008002E4FE900018E04EF022EF6402704F3D
:10382B0020014C20000F7F051217D01217B9640529
:10383B00703DD20322D3900010E0947A1217C994F2
:10384B008D40272009241217B9FFD394014005900E
:10385B000013EFF0900015E0FFD394024007EF94B4
:10386B00075002117B7F07021D597F061217D022CA
:10387B00120446900015F022900051E0700804F0FD
:10388B00900001740FF02290005AE07005EDF0A348
:10389B00EFF02290005BE0B4070050639038AEF875
:1038AB002828730238C30238CE0238EA0238F002F5
:1038BB0038FF0238CE023905E490005AF07D0B7FB9
:1038CB0001803A7F02310D50037F012290005BE0B3
:1038DB00B401067D077F0280247D237F06801E7D39
:1038EB00237F0380187F06310D50037F01227D0754
:1038FB007F0480097D0B7F058003E4FDFF11927F20
:10390B000022AB07EB3395E0FEEF25E0FDEE33FC39
:10391B0090005AE0FF3395E0FE1204B0EB14D36431
:10392B0080F8ED6480984002D322C32290005AE0C5
:10393B00600214F02290003CE0600214F022900030
:10394B0054E0600214F022900053E0601724FE60F4
:10395B002214603C24027042900054E0D394004047
:10396B00217F02229000557446F09000537402F0B0
:10397B007F0122900055E014F0E0D3940040037FC8
:10398B0001229000547418F09000537403F0800AD5
:10399B00900054E07004900053F07F0022EDF4F59A
:1039AB008275830085832A85822B85832C85822DC6
:1039BB00ED22AC27AD281204B0EF14900040F0C3F9
:1039CB0064802290001F7404F0900019EEF0A3EFB6
:1039DB00F0D20422F4F58275830085832E85822F25
:1039EB00858330229000167401F0A374E022D390EB
:0639FB000010E094BE2262
:00000001FF
