:100000000207440204010402040203022810C1137F
:10001000C1164100440041004F0041004E00001F46
:10002000080D00E4900038F0A3F0220228053235D4
:100030002030392032392D313420353800E0FBE5CD
:10004000315BFD22E0FBE52F5BFD2202282202044A
:100050000FE86480F8E933E83360110460F0ED33B1
:10006000EC337009E8FCE9FDEAFEEBFF220460DEF8
:10007000D3EB9FEA9EE99DE8C2E78CF0C2F795F0CA
:10008000400CE8CCF8E9CDF9EACEFAEBCFFB12034D
:10009000DA85D0F05804700320D5B3E80470075017
:1000A00002B2D502041992D5EC0460F7E4CCC0E0AA
:1000B000C398F8603B94186008400DD0E0FB020341
:1000C000F1E4FBFAC9FC8028E830E406E4C9FBE46B
:1000D000CAFCE830E305E4C9CACBFCE85407601069
:1000E000F8C3E913F9EA13FAEB13FBEC13FCD8F1AC
:1000F00030F52FC3E49CFCEF9BFFEE9AFEED99FDDB
:10010000D0E0FBEF4E4D4C701222DB03020416ECE4
:100110002CFCEF33FFEE33FEED33FDED30E7EB0269
:1001200003F1EF2BFFEE3AFEED39FDD0E0FB50136B
:100130000BBB0003020419ED13FDEE13FEEF13FFDA
:10014000EC13FC0203F1EC4D6011E8497017ED333C
:10015000EC3304600DE4FCFFFEFD22E933E83304D8
:1001600070F802040F1203DA58046009E4CC248109
:100170005006285009020419284003020416C0E062
:10018000EB4A7044B98006D0E0FB020405EF4E70E4
:100190001CBD8008EBFFEAFEE9FD80EBE98DF0A4D1
:1001A000FEE5F002022FE9CDF9EAFEEBFFEF89F060
:1001B000A4FCE5F0CE89F0A42EFFE435F0CD89F063
:1001C000A42DFEE435F08067EF4E7005BD80D7802A
:1001D000C3EF8BF0A4ACF0EE8BF0A42CFCE435F074
:1001E000F8EF8AF0A42CE5F038FCE433CB8DF0A4D2
:1001F0002CFCE5F03BF8EE8AF0A42CFCE5F038F896
:10020000E433CF89F0A42CFCE5F038CF3400CE895C
:10021000F0A42FFFE5F03EFEE433C98DF0A42EFEDE
:10022000E5F039CD8AF0A42FFFE5F03EFEE43DFD78
:1002300033D0E0FB50070BBB000F020419EC2CFC81
:10024000EF33FFEE33FEED33FD0203F1020419EC50
:100250005D046005E85904700302040F1203DA58C4
:100260000460F6EC4860F2EC7004FDFEFF22C8600A
:10027000DB2481C85009C398600250060204169816
:1002800050CAF582E9294B4A7005AB820204057514
:10029000F0007C1A7880C3EF9BEE9AED99400DC375
:1002A000EF9BFFEE9AFEED99FDE842F0DC23ACF007
:1002B000D0E0FFD0E0FED0E0FDAB8220E7101BEBEA
:1002C00060BAEC2CFCEF33FFEE33FEED33FD02039E
:1002D000F1E803F830E705C0F075F000EF2FFFEE0E
:1002E00033FEED33FD40B830E7C280AA74F8CC6429
:1002F00080CCC86480C8F58204604FC3EB9FF5F0E2
:10030000EA9E42F0E99D42F0E89C45F0603C501DB9
:10031000E5825FFFE582D313CB5BCBF42B5582FBE9
:1003200050280ABA002409B9002008801DE5825B24
:10033000FBE582D313CF5FCFF4C3132F5582FF5059
:10034000090EBE00050DBD00010CC3EB9FF5F0EAE0
:100350009E42F0E99D42F0E89C45F06007CC4820C1
:10036000E701B3EC2275F020800E75F01080057562
:10037000F0087D007E007F003392D530D503120651
:100380005AEC334010EF33FFEE33FEED33FDEC3328
:10039000FCD5F0ED22E5F0247EA2D513CC92E7CD7A
:1003A000CEFF22EDD2E7CD33EC3392D52481400647
:1003B000E4FFFEFDFC22FCE4CFCECDCC24E05011C6
:1003C00074FF80EDC3CC13CCCD13CDCE13CECF13A1
:1003D000CF0470F030D5DE02065AE9D2E7C933E81F
:1003E00033F892D5EDD2E7CD33EC33FC5002B2D5E1
:1003F00022EC30E7100FBF000C0EBE00080DBD0050
:10040000040BEB6014A2D5EB13FCED92E7FD227414
:10041000FFFCFDFEFF22E480F8A2D574FF13FC7DF3
:1004200080E480EFC2D530F707B2D563F0FF05F066
:1004300030E70CB2D5F4048463F0FF05F08001844A
:1004400030D502F40422BB010689828A83E022505F
:1004500002E722BBFE02E32289828A83E49322BB65
:10046000010CE58229F582E5833AF583E022500606
:10047000E92582F8E622BBFE06E92582F8E222E5BC
:100480008229F582E5833AF583E49322BB0106894C
:10049000828A83F0225002F722BBFE01F322EF8D05
:1004A000F0A4A8F0CF8CF0A428CE8DF0A42EFE22CC
:1004B000C2D5EC30E709B2D5E4C39DFDE49CFCEE67
:1004C00030E715B2D5E4C39FFFE49EFE1206EFC3EA
:1004D000E49DFDE49CFC80031206EF30D507C3E4E5
:1004E0009FFFE49EFE22BB0110E58229F582E58391
:1004F0003AF583E0F5F0A3E0225009E92582F88679
:10050000F008E622BBFE0AE92582F8E2F5F008E2EF
:1005100022E5832AF583E993F5F0A3E99322BB0151
:100520000A89828A83F0E5F0A3F0225006F709A732
:10053000F01922BBFE06F3E5F009F31922E88FF06B
:10054000A4CC8BF0A42CFCE98EF0A42CFC8AF0ED5A
:10055000A42CFCEA8EF0A4CDA8F08BF0A42DCC380E
:1005600025F0FDE98FF0A42CCD35F0FCEB8EF0A446
:10057000FEA9F0EB8FF0A4CFC5F02ECD39FEE43C00
:10058000FCEAA42DCE35F0FDE43CFC2275F00875A4
:100590008200EF2FFFEE33FECD33CDCC33CCC582BE
:1005A00033C5829BED9AEC99E58298400CF582EE7A
:1005B0009BFEED9AFDEC99FC0FD5F0D6E4CEFBE462
:1005C000CDFAE4CCF9A88222B800C1B90059BA002A
:1005D0002DEC8BF084CFCECDFCE5F0CBF97818EF85
:1005E0002FFFEE33FEED33FDEC33FCEB33FB10D786
:1005F00003994004EB99FB0FD8E5E4F9FA22781847
:10060000EF2FFFEE33FEED33FDEC33FCC933C910A1
:10061000D7059BE99A4007EC9BFCE99AF90FD8E0D3
:10062000E4C9FAE4CCFB2275F010EF2FFFEE33FEA5
:10063000ED33FDCC33CCC833C810D7079BEC9AE818
:1006400099400AED9BFDEC9AFCE899F80FD5F0DA99
:10065000E4CDFBE4CCFAE4C8F922C3E49FFFE49EB6
:10066000FEE49DFDE49CFC22EB9FF5F0EA9E42F047
:10067000E99D42F0EC6480C864809845F022EB9FCD
:10068000F5F0EA9E42F0E99D42F0E89C45F022E850
:10069000600FECC313FCED13FDEE13FEEF13FFD858
:1006A000F122E493FC740193FD740293FE740393AE
:1006B000FF22ECF0A3EDF0A3EEF0A3EFF022A8826E
:1006C0008583F0D083D0821206D51206D51206D5C6
:1006D0001206D5E473E493A3C583C5F0C583C8C5EA
:1006E00082C8F0A3C583C5F0C583C8C582C822BC33
:1006F000000BBE0029EF8DF084FFADF022E4CCF8B2
:1007000075F008EF2FFFEE33FEEC33FCEE9DEC9816
:100710004005FCEE9DFE0FD5F0E9E4CEFD22EDF89C
:10072000F5F0EE8420D21CFEADF075F008EF2FFF3F
:10073000ED33FD4007985006D5F0F222C398FD0F27
:10074000D5F0EA2278FFE4F6D8FD9000007F007E25
:1007500004E4F0A3DFFCDEFA758150020799020A77
:100760002AE493A3F8E493A34003F68001F208DFA0
:10077000F48029E493A3F85407240CC8C333C45469
:100780000F4420C8834004F456800146F6DFE4801D
:100790000B010204081020408090000EE47E0193BB
:1007A00060BCA3FF543F30E509541FFEE493A360EF
:1007B000010ECF54C025E060A840B8E493A3FAE44A
:1007C00093A3F8E493A3C8C582C8CAC583CAF0A39B
:1007D000C8C582C8CAC583CADFE9DEE780BEC2D504
:1007E000E830E70FB2D5E4C39BFBE49AFAE499F949
:1007F000E498F8EC30E717B2D51208141205C8E4F3
:10080000C39BFBE49AFAE499F9E498F88003120593
:10081000C830D50DE4C39FFFE49EFEE49DFDE49C3B
:10082000FC220012002B0010DBD6000FCC1E000EA5
:10083000CF6C000DE44B000D0965000C3D80000BF2
:100840007F7C000ACE50000A290700098EC30008E9
:10085000FEB50008781F0007FA52000784AE0007B3
:10086000169D0006AF9700064F1C0005F4B8000562
:100870009FFE0005508B000506020004C00D000419
:100880007E5D000440A9000406AC0003D0270003ED
:100890009CE100036CA100033F37000314720002C7
:1008A000EC280002C62F0002A2630002809F000213
:1008B00060C3000242B10002264C00020B7B000123
:1008C000F2230001DA2E0001C3870001AE190001F6
:1008D00099D2000186A0000174720001633A000100
:1008E00052EA00014372000134C8000126DF000112
:1008F00019AC00010D2500010141F5F5EB3AE107C6
:10090000D755CE1DC558BD00B50EAD7FA64C9F7006
:1009100098E792AC8CBB871181AA7C82779772E4AE
:100920006E676A1E6606621C5E5F5ACB575F54197B
:1009300050F84DF84B1A485A45B8433340C83E77F3
:100940003C3E3A1D3812361D343B326D30B22F0812
:100950002D6F2BE62A6C290127A42655251323DDAC
:1009600022B22193207F1F751E7500000000000039
:100970000000000000000000000000010001000075
:100980000000010000000000000000000000000066
:10099000020BB802260C80000101020000000302D5
:1009A0005800000B22010101030204000404B000FE
:1009B000000BB80101010301050305070800000C45
:1009C0001C010101040106040609C400000C800199
:1009D00001010501030507100400000D16000100C8
:1009E0000700000608032000000B22000100080297
:1009F0000B0C0900C800000B2200000109020300D3
:100A00000A100400C80D16000101090200000B0BBA
:100A1000B800A00BB80001000B020C080C0BB800CA
:100A2000000BB80001000C02080BC20E1227CC12FA
:100A300027D9F18A1220BD12217A1229F5D210127B
:100A4000121A122FE9C21F1217F912270D1222448F
:100A5000122A901212AF123032121D2F3019E820D4
:100A60000E1812259B1234D4122B2951981231C220
:100A700012111D123720D20E801A1228A7121C1331
:100A800012350A1235C3122CAC1237171222F71284
:100A900037E2C20EC21980AF20030BC202122E3AF7
:100AA000120024C20522300602815A122CFE400296
:100AB000815A752902752AEE300208752901752AB6
:100AC000F48006752902752AEED31233795002613B
:100AD000C2D3E50A943412337D4002D202E50A24DF
:100AE000D2F528E50934FFF527900037741812165F
:100AF00002FF64076004EFB40A1AD390003FE09449
:100B0000229167948B400DAE27AF287C007D141294
:100B10002FB861B5D3E5289402E52764809480500E
:100B20000261B5120446FF64076004EFB40A0912BB
:100B300031517C037DE880071231517C057D141210
:100B400004B08E258F26E52530E705E4F525F5264A
:100B50000526E52670020525915B985005122E4268
:100B60008027E52854FC45276014AE25AF26E528EC
:100B70002402FDE43527FC12049E8E258F26AC2727
:100B8000AD28AE25AF26122FB8900041E0247AFFA1
:100B9000900040E034FEFED3900039E09FEE648088
:100BA000F8900038E06480984005EEF0A3EFF090F4
:100BB0000037743CF0915B987D0050027D017F010D
:100BC0008157C31233794002815AC3742E950AF5B6
:100BD00028E49509F527D3E5289404E52764809453
:100BE000804002801BE52A2438FFE52934FFFED32C
:100BF00090003FE09FEE9164984005E4F52B800360
:100C0000752B01900037E0600414F0803CE52B6008
:100C100005122E428021E52854FE4527600FC3901F
:100C20000039E09528F0900038E09527F0900038E2
:100C3000E030E70312002330020FD390003FE0942E
:100C4000EE916794824002C202900038E030E703E0
:100C5000120023AD2BE4FF122E7422C390003FE05C
:100C6000952AE5296480F890003EE0648022FF9197
:100C7000777B007D027F038F29120446FF146015E5
:100C800014602814603D14603A2404705B123841EB
:100C90001238568029123841F5827401F52E85826A
:100CA0002FE582F4F5827530008013123841F4F597
:100CB00082752E0085822FEDF5827401F5308582D4
:100CC000318025ED123856858231EDF5827401F5BB
:100CD0002A85822BEFB40407EDFF7401FE8005ED39
:100CE000F4FF7E008E2C8F2D90000112045F7007A0
:100CF000EDFF7401FE8005EDF4FF7E008E328F3330
:100D000090000212045F7007EDFF7401FE8005ED94
:100D1000F4FF7E00E529147002A1AF147002C13304
:100D2000147002C1B724036002E141E52AAB9A3096
:100D3000E006E52B4BFD8004E52B5BFD8D9AE52C51
:100D400030E00890F00912387D800690F0091238E2
:100D50007690F009EDF0E52E30E00512386E800651
:100D600090F00A12004490F00AEDF0E53030E00512
:100D7000123866800690F00B12003D90F00BEDF0FB
:100D8000EE30E00512389C800890F00CE0FBEF5B41
:100D9000FD90F00CEDF0E53230E006123895FD8064
:100DA0000690F00D12388EAF0590F00DEDF022E5B3
:100DB0002AABA130E006E52B4BFD8004E52B5BFD63
:100DC0008DA1E52C30E00890F01912387D80069056
:100DD000F01912387690F019EDF0E52E30E005129A
:100DE000386E800690F01A12004490F01AEDF0E58B
:100DF0003030E005123866800690F01B12003D90FE
:100E0000F01BEDF0EE30E00512389C800890F01CED
:100E1000E0FBEF5BFD90F01CEDF0E53230E00612F8
:100E20003895FD800690F01D12388EAF0590F01DAC
:100E3000EDF022E52AABA230E006E52B4BFD800465
:100E4000E52B5BFD8DA2E52C30E00890F0291238EF
:100E50007D800690F02912387690F029EDF0E52E8D
:100E600030E00512386E800690F02A12004490F0AF
:100E70002AEDF0E53030E005123866800690F02B60
:100E800012003D90F02BEDF0EE30E00512389C8022
:100E90000890F02CE0FBEF5BFD90F02CEDF0E532DC
:100EA00030E006123895FD800690F02D12388EAF96
:100EB0000590F02DEDF022E52AABA330E006E52BFE
:100EC0004BFD8004E52B5BFD8DA3E52C30E0089005
:100ED000F03912387D800690F03912387690F0396A
:100EE000EDF0E52E30E00512386E800690F03A12F3
:100EF000004490F03AEDF0E53030E00512386680BD
:100F00000690F03B12003D90F03BEDF0EE30E00833
:100F1000A3E0FDEF4DFF800890F03CE0FDEF5DFFAA
:100F200090F03CEFF0E53230E009A3E0FDE5334D11
:100F3000FF800990F03DE0FDE5335DFF90F03DEF6F
:100F4000F022E4F526F527F528FB7A0079267D01C5
:100F5000916E7B007D047F0291777B017D027F0291
:100F6000122052E4121FA512205275DF4075DE6078
:100F7000E4F5E9F5D1F5D375D50F75D4FF90F69268
:100F800074A0F0121FAE43DE8022F1421220FA75E7
:100F90002603E4F527752801C2B0C281FBFD7F035B
:100FA000122052E40DFF1220527A0079267F03911D
:100FB000777B007D02E4FF9177E41221F2F54F2266
:100FC000EF14600E14600F1460102403700FED42D4
:100FD000AC22ED42AD22ED42AE22ED42AF22EF1443
:100FE00060111460151460192403701CE5AC5D6079
:100FF00017D322E5AD5D6010D322E5AE5D6009D365
:1010000022E5AF5D6002D322C322EF14600F1460AB
:101010001114601324037013EDF452AC22EDF4525A
:10102000AD22EDF452AE22EDF452AF227D407F02AC
:10103000110A90005974AAF0227D067F021179EFFF
:1010400064014E702FC220E546547FFFE4F546E56B
:10105000487004E54B6007E4F54BF5488019EFC391
:1010600094055013C3E5496480948850020549757E
:10107000478080031228DA80B3EF14602214603DA9
:1010800014605824037076EDD394054002806EED11
:10109000248031128002C333D8FC55ACFC8062ED51
:1010A000D394075006EDC3940350028050ED24887A
:1010B00031128002C333D8FC55ADFC8044EDD3948B
:1010C000065006EDC3940150028032ED2490311297
:1010D0008002C333D8FC55AEFC8026EDD394064085
:1010E00002801AED2498FBE434F0FAAF05A80774E7
:1010F00001088002C333D8FC55AFFC8004E4FEFF36
:1011000022EC7003FEFF228B828A83E05403FF7E71
:101110000022FBE434F0FAA80574010822123657C5
:10112000EF6003122230D3E51F9400E51E940040C7
:1011300009E51F151F7002151E221221DC438704CA
:10114000438702000000000000122816EF602612FC
:1011500027D91228DA112C7F017E00318A1222440D
:1011600030190AC219B20F300F031228A7122860D3
:1011700050E502216AE525600415258006121E9EB1
:1011800075250BE51F451E60B4228E298F2AE4F5D4
:101190002FE52A45296079052FAE29AF2A121C0CAC
:1011A000E47BA07A0FF9F812053D5111C007AF2F6B
:1011B000AB07E4FAF9F8D0071205C85111E47FFF34
:1011C0007EFFFDFCAB2EAA2DA92CA82BD312067EE8
:1011D00050C5C374FF952EF52E74FF952DF52DE4A3
:1011E000952CF52CE4952BF52BAF2EAE2DAD2CAC1C
:1011F0002B780812068F8F8CE52EFF8F8AC217433B
:101200008810E58820E5033017F85388CFD52FD90B
:10121000228F2E8E2D8D2C8C2B2275260A1234B205
:101220007F9A7E997D097C41122566600940077F7F
:1012300003122A7F801112255E600C400A200707E6
:10124000D207C211122307E4900001F0F1F9121E37
:1012500089121FED122C29D526F2301029D10370E6
:101260002530071A7F0451877FC87E00318A7F04AA
:1012700051877526307F0A7E00318AD526F7D2162F
:1012800090000C7412F022EF24FE600E24FE601019
:101290002403701AC2B0D281800AD2B0C281800405
:1012A000D2B0D2817F147E00318AC2B0C2812212B4
:1012B000286D4002C1011228ED8F25900014E0FF37
:1012C000C394034006EFD3940640069000147403C1
:1012D000F0D103F52690004EE060028180E52614EF
:1012E0007002811A147002812924FB700281462445
:1012F000FD7002816F240A6002818030082CE52590
:10130000B4051B754F09C208D3F1E1F161948B401C
:10131000069000137405F0C2111223078180122871
:101320006040028180754F078180200D1312288C48
:10133000500EF1E1F161948B406DF1BDD20D81163B
:10134000300D08D10C4004C20D8116E52514B408F7
:10135000004002811690135E12339CC58373021302
:101360007602141602137F02138B0213AC0213B61B
:101370000213FC021413900014E0FFF11A8116F11D
:101380005A948A40047F08801A801C200019D39048
:10139000000FE09416F161948D400C123884F0D265
:1013A0000B7F0AD18F806F754F07806A20086775A1
:1013B0004F08D208805612255E60064004D207808E
:1013C00007D3300701C392072007067F04518780A7
:1013D000031222E8200723D3900019E0940890001C
:1013E00018E0648094874002F1DAD390001DE09405
:1013F00008122DFF94874002F1DA8010D3300C01DF
:10140000C3920C7F02300C027F015187C21112235C
:10141000078003123648D1E480661234F14061122D
:10142000288C505C122F8A8057300D12E490001ED9
:10143000F0D10C400C1228FB4007C20D800312298A
:1014400004122D07803A3004067F03F11A8031E53B
:10145000256402702B900012E0B409047F0380051C
:10146000900012E0FFF11A9000127403F080112036
:10147000040A900015E07002A3E07004D20DF13B65
:10148000D103B5260A90004EE07004AF25D11B129F
:10149000289920070FD103FF64066004EFB4070406
:1014A0007F03F11A300B08D103640A6002C20B906B
:1014B0000013E06002805790004EE060101233AFDE
:1014C000EF7E0060047F64A1D47F00A1D412319B21
:1014D000500B900040E4F0A3741EF0A1EBD1032464
:1014E000FE7002A19C24FA7002A18324FE604F14B6
:1014F0006036146002A1DAD2061237EBEF24FE60E8
:101500000D24027014E4900040F0A3F0A1EB9000D1
:1015100040E4F0A374C8F0A1EBC206300704F1ADBB
:1015200080047E077F08A1D4123729F1E8D3948A7A
:10153000EE6480948240028001D39206A1EB2007E2
:1015400013D10C50067E077F088019D11490000338
:10155000F1B68010D10CD114500590000180039099
:101560000003F1B6F1E8D11412279A900040E0B5DB
:10157000F009A3E0B50704D2068070123884F0C2E7
:1015800006806812367EEF6004F1AD80047E007F35
:1015900000F1E84EC37001D39206804FC206122FAD
:1015A0009C900018122C199000404007EEF0A3EF19
:1015B000F08005ECF0A3EDF090001EE0602D300906
:1015C0000FF1F17802CEA2E713CE13D8F8FF800412
:1015D0007E007F1E900040EE800DC206D114122DB9
:1015E00001FF900040E5F0F0A3EFF0200713D39047
:1015F0000041E09408900040E0648094874002F14C
:10160000DA22F0AB4CAA4DA94E020446E548C3606D
:1016100001D322F0AB4CAA4DA94E228F27D11490B2
:10162000000912045F60031235FCD10354FE600907
:10163000D1E4E527B40102F13B900017E030E72246
:10164000547FF020070FD11490000C12045FB406F1
:10165000047F03800BD11490000C12045FFF600222
:10166000D18F900017E030E50F54DFD11390000DBB
:1016700012045FFF6002D18FD11490000B12045F3F
:10168000600C5402FF90000A12045FFDF168228F83
:1016900029D1036529604C122EF4F52A7B007A00CB
:1016A000792B12358E8B2C8A2D892EE52B6034E513
:1016B0002924F5600C14600E2404700D122FAE80E6
:1016C000081227868003122FC8852C4C852D4D8546
:1016D0002E4EE529D39402400AE52A6006F1F1FF77
:1016E000122E0622122FDAEF24FE6012146012145A
:1016F000601224037023D103701F7F098091021EA2
:1017000076023172D1037011D3F1E1F161948B4013
:1017100005F1BDD20D22754F0722D390000FE09442
:10172000EAF161948B40028008F15A948A40047F68
:1017300003C18FD1037004754F0722D103601A14BF
:1017400060178000D11490000712045F6007120434
:1017500046900014F0E4FFD18F22D390000FE09464
:10176000BE90000EE06480228D287E021228FB507D
:1017700004D20F8004D10C920F20150F7E0A301472
:1017800003300F07E4900055F08003122F81900082
:1017900055E0D39E4016EF60028006300F053015ED
:1017A000028098E4900055F0AF28D18F22AB4CAA6C
:1017B0004DA94E9000011204E6FFAEF0227F02D147
:1017C0008F201415201512E550700E300704F1AD6E
:1017D00080047E077F08122FA5227407F0A304F06F
:1017E0002290000FE0942222900040EEF0A3EFF050
:1017F00022900040E0FEA3E022E508B40303E4F5F4
:1018000008E50814603A147002019014700201D0C7
:101810002403600201CDD21111EDE4F52AAF2AEFC5
:101820003395E0FE741F2FF58274003EF583E49338
:10183000FD11E4F583EDF0052AE52AB404DF01C8C3
:10184000E4F52A11DDF583E0FFC364809480400F46
:10185000D3EF64809496400EEF6480949F50070508
:101860002AE52AB404DDC3E52A64809484501C115F
:10187000DDF583E0F529640D6004E5297004C211EB
:1018800011EDAF2971277508028045750803804066
:10189000752E00752F00753029F1DD7174EF4E60E3
:1018A0002F85270B85280CAD29AF28AE273102E400
:1018B000F52A11DDF583E0B5290711E4F58374FEFF
:1018C000F0052AE52AB404EA7508018003E4F50866
:1018D000301F09E508640360030217F922AF2AEFFD
:1018E0003395E0FE74212FF58274003E2253DE7F93
:1018F000007F002011027FA090F692EFF00043DEFF
:1019000080228E2B8F2C8D2D90F692E030E708E40C
:10191000FFFEFD7C408002511E5104510DC004C0E9
:1019200005C006C007E4FBFA79807845AF35AE34D0
:10193000AD33AC3212024FD003D002D001D000122E
:1019400001468F398E388D378C36E52D605B24F853
:10195000606E24FB601E24EE60024103510DD16DC8
:101960007F9A7E997D997C4512024F8F1C8E1B8D2C
:101970001A8C192275312D7530A6752F33752E3EB0
:1019800051278F188E178D168C152007028011E4B1
:10199000FBFAF97840AF18AE17AD16AC1512024F2E
:1019A0008F148E138D128C112275318C75302E751B
:1019B0002FBA752E3D51278F108E0F8D0E8C0D2254
:1019C0005115511E120051C004C005C006C007E4E5
:1019D000FFFE7DEB7C435115120146D003D002D0AF
:1019E00001D00012024F5104E4FBFA797A784412D4
:1019F000014651041203A37B007A00791D513A8EEF
:101A0000098F0A228F358E348D338C3222AC2BAD68
:101A10002CEC02036AAB39AA38A937A83622AF1CCE
:101A2000AE1BAD1AAC1922AB31AA30A92FA82EAF2C
:101A300039AE38AD37AC3602024F8B3A8A3B893C1F
:101A40008F408E3F8D3E8C3D7F2B7E007D127C0033
:101A50007114D312067E4007711D7EFF7FED22E4D4
:101A60007F757E1EFDFC7114C312067E5006711D2B
:101A7000FE7F6422AB3AAA3BA93C740112048CE4B9
:101A80007FF57EF5FDFC7114D312067E402EE4F541
:101A900041E54125E025E02422F582E43408F58380
:101AA0001206A27114C312067E400AE54124EDFF1E
:101AB000E434FFFE220541E541B436D5E4F541E5C5
:101AC0004125E024FAF582E43408F583E493FE74BA
:101AD0000193FFE48F458E44F543F542E545F54516
:101AE000E544F544E4F543F542AF40AE3FAD3EACCE
:101AF0003DAB45AA44A943A842D312067E5009E54E
:101B0000412423FFE433FE220541E541B43DB07199
:101B10001DFEFF22AB40AA3FA93EA83D22AB3AAA38
:101B20003BA93CE402048CAB077AA090002CE07047
:101B300042C3EB64809480403AD3EB648094964037
:101B400007EB6480949F402B9000251206BE000096
:101B50000000F1CEEBF0A37401F0EB30E40543DFBD
:101B600080800353DF7F53DEF0EB540F42DEDAFE5A
:101B700043DF02228B2B8A2C892DE5DF30E10280A6
:101B80004290002AE004F07006900029E004F090F2
:101B90000025B1CBAFDDEFFEADDCED910BEB2FFF00
:101BA000EA3EFEE93DFDE83CFC9000251206B2C38A
:101BB00090002AE0940A900029E064809480500705
:101BC00043DF02E4FEFF22900025B10CFFE47B0A14
:101BD000FAF9F81207DE9000251206B2900025A34C
:101BE000A3E0FFA3E0AB2BAA2CA92DCF8FF0120509
:101BF0001E90002BE0AB2EAA2FA93012048CE4908B
:101C0000002CF0FE7F0122E0FEA3E0FFEE3395E022
:101C1000FDFC2290000BE0C39428504FD189B126DF
:101C200090000BE004F0B1092528FFEE3527FEED0A
:101C30003526FDEC3525FCB1179000039107B11D49
:101C4000C3120668500A900003E527F0A3E528F0C8
:101C50009000059107B11DD3120668500281E290F1
:101C60000005E527F0A3E528F08077B109FFC0045F
:101C7000C005C006C007900005E0FEA3E0FBAA0671
:101C8000EA3395E0F9F89000039107EF2BFBEE3A69
:101C9000FAED39F9EC38F8D007D006D005D004C3F6
:101CA000EF9BFFEE9AFEED99FDEC98FCB117B109A0
:101CB000FFC006C007A3E024FEFFE434FFAB07FA31
:101CC0003395E0F9F8D007D0061207DEB11790007F
:101CD00007A3A3E0FFA3E090000ECFF0A3EFF01264
:101CE00034B290000DE0FFB478057401F08009EF84
:101CF000600690000DE004F0900000E0600214F037
:101D000090000CE0600214F022900007E0FCA3E0D9
:101D1000FDA3E0FEA3E0229000070206B2AB28AAD2
:101D200027A926A825228F288E278D268C252220BC
:101D30001A02A1C7301C1D90F129E030E002A1C7B2
:101D400090F164E0301B0554FEF080034401F0C2C2
:101D50001AC21C22B1D7B1C81202EC600C400A9022
:101D6000003A1206BE42C80000E4FFFEFDFCB1C806
:101D70001202EC500A90003A1206BE00000000E485
:101D8000FFFE7DFA7C45B1C8120146E4FBFA79807A
:101D900078BF120055B126E4FBFA79C878421202E6
:101DA0004FB1261203A3AD07AC06ED4CC36001D3BF
:101DB000921BECFFEF90F141F0ED90F140F0D21C5E
:101DC00090F129E04401F02290003AE0F8A3E0F914
:101DD000A3E0FAA3E0FB22E4FFFE7DC87C4222AD33
:101DE00007AC06EC12036AE4FBFA79207841D16172
:101DF000E4FBFA797A784412024FD1647B4D7AB5CC
:101E000079B1783C12024FD1647B667A6679867824
:101E10003FD161C004C005C006C007E4FFFE7D7A63
:101E20007C44AB1CAA1BA91AA819120146D16DD07B
:101E300007D006D005D00412024FD164E4FBFA7932
:101E4000C87842D161B1D7AB2AAA29A928A82712FC
:101E500002EC60044002A1D7AF2AAE29AD28AC271E
:101E6000221201468F2A8E298D288C2722A804A9A8
:101E700005AA06AB0722900001E0700C12315AB19E
:101E8000D7122F93D198F1E422E4FFFE7D7A7C44AF
:101E9000AB14AA13A912A8111201460203A3120F30
:101EA000421217F9D189F1EDC39454EE6480948BFA
:101EB0005005F1D7120F8FD1BFE4F51EF51F22E4B4
:101EC000F5DE90F692F0F1AEE4FBF1A5122052752A
:101ED0002603E4F527F5287A007926120C6EC21045
:101EE0007D017F03D1EBC210E41DFFEF14603614B7
:101EF000605F147002E17D24036002E1A4EDD394DD
:101F0000054002E1A430100EA8057401088002C348
:101F100033D8FC428022A8057401088002C333D85C
:101F2000FCF4528022EDD394075079EDC394034022
:101F30007330100EA8057401088002C333D8FC4228
:101F40009022A8057401088002C333D8FCF4529093
:101F500022EDD39406504DEDC39401404730100E4E
:101F6000A8057401088002C333D8FC42A022A8054A
:101F70007401088002C333D8FCF452A022EDD3943C
:101F800006502130100EA8057401088002C333D812
:101F9000FC42B022AF05A8077401088002C333D801
:101FA000FCF452B022FDFF1220520D7F03227F0469
:101FB00090002174FEF0A3DFFCE4F50890002512E8
:101FC00006BE00000000F1CEF0A3F0D21F22E49084
:101FD0000029F0A3F0A322E4F5BDF5BC227B007A32
:101FE00000792722900010EEF0A3EFF02290000E6F
:101FF000EEF0A3EFF022EBD394035055EF146015ED
:1020000014602314603124037047EDD394055041CC
:10201000ED2480802BEDD394075036EDC39403401C
:1020200030ED2488801AEDD394065025EDC3940139
:10203000401FED24908009EDD394065014ED2498B0
:10204000F529E434F0F528EB5403852982852883AB
:10205000F022EB64026065EB64036060EB6419607E
:102060005BEBD3941C5055EF14601514602314607F
:102070003124037047EDD394055041ED2400802BAB
:10208000EDD394075036EDC394034030ED24108017
:102090001AEDD394065025EDC39401401FED242082
:1020A0008009EDD394065014ED2430F52AE434F081
:1020B000F529EB541F852A82852983F02275250195
:1020C000E4F526F527FB7D067F0211527A0079257B
:1020D0007D40120C777D407F02120FC07B027D068F
:1020E000121FF643B904513090005974FFF0E4F523
:1020F00046F547F549F54AF54B2231A0C2A331997F
:102100007D087F02120C7790F120E4F0A304F09098
:10211000F123F090F12A74FFF090F122E4F090F1B5
:102120002704F0A3F090F160E4F090F165F090F1F5
:102130006404F090F131741FF090F130743FF0902E
:10214000F141E4F090F140F090003A1206BE000038
:102150000000C21CC21A90F166E4F090F12604F06F
:1021600051227B127D037F020152120F8A317A12B3
:1021700017F9C21012121AC21F2231A0C29331994C
:102180007D087F01120C77E4900040F0A3F09000EE
:102190003EF0A3F0C21EC21D227B007A00792622E7
:1021A00075260375270175280122C390000FE0945E
:1021B00054121761948B4023300C20752601E4F5EE
:1021C00027752801511B1216033199B401067D01B0
:1021D0007F0380047D02E4FF120C7722E4F5C853EC
:1021E000A8DF31FB121EBF31EB80BFC2B0C281E459
:1021F000F54F900054F0900053F022E4FB7D037FF4
:1022000002115290F1287401F090F121E4F090F164
:1022100026F090F125F090F123F02275BCFF75BDFA
:10222000BF2290F1297401F090F129E020E0F92219
:10223000121603B40107751E00751FF022751E00EB
:10224000751F28227D407F02120FDE403A90005910
:10225000E0FF25E0F030A603E004F0900059E0FC38
:10226000F46003EC70215130E4F5B6BCFF03C38089
:1022700001D392207B01BCFF027B027D067F02120C
:102280001FF67D40120FC0302008E54730E7037588
:1022900047807F82200B027F85AC07302025E546F2
:1022A000B50420D3E54964809480400BAF49EF33F7
:1022B00095E0FE51DA8009E4F549754B0175480156
:1022C000E4F546202013E547B4840EE4F547E548DD
:1022D0007004754A0122E4F54822E4F547F54AF511
:1022E00049F548EF04F54B22900002E070085130A8
:1022F0009000027404F02220070CB15E4008D2075F
:1023000051E8C211710722E4FFD21271C6300801F0
:102310000F300C03430702300703430704900033D8
:10232000EFF0900018E0FFA3E0900031CFF0A3EFB2
:10233000F07B017A0079317D03D1BC900034EFF05D
:1023400020110E90004CE0FF900034E0B5070280B1
:102350007320110FC390004BE094FE90004AE0946C
:10236000004018121FDD7D007C027F1D71D7E4FC48
:102370007F1D71D7E490004AF0A3F0E4F5279000A8
:102380004AE0FEA3E07802C333CE33CED8F97C0016
:102390002527FDEC3EFC74312527F9E43400FA7B57
:1023A000017F1971D70527E527C3940440D0900019
:1023B0004BE004F0700690004AE004F0900034E036
:1023C00090004CF0C212301207C2AF0075FBAA2277
:1023D00075FB5500D2AF228F2CE52CB419051204E1
:1023E00046F5FEEDF5FCECFFEFF5FD00852CFF005A
:1023F0000000000000E5FF20E0FBE52CB41105E53E
:10240000FE12048C228B268A278928E4F52AF52BD4
:10241000D21271C6E4F529AE2AE52B7802C333CE79
:1024200033CED8F9918240EFAB26AA27A9287D03A5
:10243000D1BCAB26AA27A92890000312045FB507D8
:1024400013052BE52B7002052AC394FEE52A648050
:10245000948040C0D3E52B9400E52A6480948040AA
:1024600008E52B152B7002152AE4F529AE2AE52B79
:102470007802C333CE33CED8F9918240EFAE2AAF83
:102480002B227C002529FDEC3EFCAB267E00E528B6
:102490002529F9EE3527FA7F1171D70529E529C3DA
:1024A0009404227B017A00792D910590004AEEF088
:1024B000A3EFF07B017A00792D7D03D1BC90003031
:1024C000E06F704E90002FE0C330E101D3920C908A
:1024D000002FE0C330E201D3920790002FE0C33019
:1024E000E001D3920890002DE0FFA3E0900018CF08
:1024F000F0A3EFF0900030E090004CF090004BE043
:1025000004F0700690004AE004F0D1ED400EB120D6
:10251000800AB149D208D2117107B171C21261C6E5
:10252000200825B149C2117107C21271C67526640F
:10253000754F067F0A7E0012118AB19BD1ED5002C1
:102540001526E52670EDB18C22D1F0C208D20C120E
:1025500017F9B15E60054003D20722C207227F331C
:102560007E337D8B7C40AB18AA17A916A8150202F2
:10257000EC7526FFC21271C6754F031526E526605D
:102580000B7F0A7E0012118AB19B80EFC2AF0075EB
:1025900096AA75965575978080FE22F1A2501790E5
:1025A0000053E0C36480948C5005E004F0800CE498
:1025B000900053F0C1A3E4900053F0E54FB40A003B
:1025C0004002C1A79025CBF82828730225E90225EF
:1025D000F30225F802261B0225FD02261B0225FF19
:1025E00002265E02265E02265EC2B0C281E4900030
:1025F00054F022C2B0D28122D2B0C2812280179080
:102600000054E0D1A87F8060027F00900054EFF07A
:10261000D1A87002C1A3D2B0D28122C2819000544D
:10262000E0FF547FFEE54F7D00B403027D03C3ED60
:10263000D1B4500C0EEF5480900054F04EF0801145
:10264000900054E0D1A87F8060027F00900054EF9A
:10265000F0900054E0D1A8C36001D392B022900062
:1026600054E0547FF0E54F64086005E54FB4090479
:102670007F0680027F0A900054E0FED3EFD1B44081
:1026800004E4F54F22900054E0FF04F0EF75F002EF
:10269000120424AFF0EF600BE54FB40903D281229E
:1026A000D2B022C2B0C281225480FF3395E04F22C3
:1026B0009526E5256480F8EE648098228B2C8A2D7F
:1026C000892E7FFFAB2C052EE52EAA2D7002052D3D
:1026D00014F912044662077E08EF30E70725E0642C
:1026E00007FF8004EF25E0FFDEEFDDD822A2A6225F
:1026F000121FDD7F0212358EE5276007F19A9000E8
:1027000018807C900018E4F0A374C8F0221216031D
:10271000B4020C90001AE0F525A3E0F526800B909A
:1027200000051204E6F52685F02590000EE0FEA3D4
:10273000E0FFD394BEEE6480948A400FD3EFD1B013
:1027400040028001D39214C2158004C214D2151223
:102750002C29E54FD394065025900043E0600302F6
:102760003536900001E0600302320E90000CE070FC
:1027700008121603D3940140028032E4F54F22E59B
:10278000F0F0A3EFF022E4900047121613F19A90B4
:102790000048F17FE4900046F0229000031204E626
:1027A000FF22900001E06002C322A20522E550143E
:1027B000600E14600F1460102403700F754F012217
:1027C000754F0422754F0222754F0322C2AF007568
:1027D00096AA75965553977F225388CF5389F04315
:1027E0008901E4F58CF58AF5CE75CB0B75CADB75DE
:1027F000CD5D75CC66F5C975CF8075A8A2C219C22A
:102800001875C8912275C900B218301802D2193251
:102810005388EFD2173220A6037F0122E5B6544039
:10282000FF22C0E0C0F0C083C082C0D075D000C01D
:1028300000C001C002C003C004C005C006C007122A
:10284000103975B600D007D006D005D004D003D01B
:1028500002D001D000D0D0D082D083D0F0D0E032EE
:10286000E54B6002D322E54AC36001D32220160261
:10287000D32290000CE07006900002E06002C322B8
:1028800011604002C2161199118CC322E54B6401FC
:102890006002C322E4F54BD322E54A6009E54960B2
:1028A00005E4F54AF54922E4FE74462EF8E630E7E1
:1028B00024547FFDEE700B7C05300B027C02AF04CC
:1028C00080027F04EDC39F50010DE65480F67446EC
:1028D0002EF8E64DF60EBE02D022D220E54730E7B4
:1028E00003754780E54620E70375468022E54B7077
:1028F00004E54A70037F0022AF4922E54BB402028F
:10290000D322C32212160C92F711FB72F7920F30EA
:1029100007051217AD80047E077F0890001CE0FCBD
:10292000A3E0FDC3911F50028004AC06AD07AE04C6
:10293000AF05121614B101FDC3EF9DE5F01226B4E8
:10294000500C300F0931D34005EEF0A3EFF0121612
:102950000C5026200A23900020E0600414F08059D7
:10296000C331D3500EA3E004F07006900018E004C9
:10297000F08040D20931E4803A11FB502E200A2B1E
:10298000900020E0600414F0802F121614900003D1
:102990001217B631D2400EA3E024FFF0900018E0E9
:1029A00034FFF08004C20931E48008200F0B300AA4
:1029B00008C20A9000207405F0300F0790001F74C1
:1029C00020F02290001FE0B4010714F0C21112237E
:1029D0000722D3900019E09FEE6480F8900018E081
:1029E0006480982290001E7404F0900018EEF0A30A
:1029F000EFF0D20A229000147403F0900012F0E479
:102A0000900043F090001EF01224A37B007A00791E
:102A1000257F0212358E8B4C8A4D894EE52560410B
:102A20009000051204E6FF90001A12277F30070578
:102A30001217B380047E077F08F1A59000031217D8
:102A4000B6C331D35005EEF0A3EFF0F19C31D24084
:102A500005EEF0A3EFF0754CFF754D09754E7480CF
:102A6000047F07517FE4900013F0C20BC206C20935
:102A7000C20D9000207405F0F1AEF1C802278690D7
:102A80000043EF121602640160057F0112168F22C7
:102A9000E51D6071A2049210752537752628710A0C
:102AA0009204A2009210752532752628710A9200B0
:102AB000A2019210752541752629710A92013001F3
:102AC000067F06517F8009900043E0B40602F18A38
:102AD000121614D1F47003C20322A20392107525BA
:102AE0002E752623710A920F300F03D20322200F76
:102AF00018900038E07002A3E0700E900035E030CE
:102B0000E707C203227F05517F22AF25EF3395E00F
:102B1000FED391044002D322AF26EF3395E0FEC3EB
:102B200091045002C322A2102291FE4006E49000BC
:102B300045F022900045E0C394045004E004F022E4
:102B4000900044E0540FF5257F337E337D8B7C402D
:102B5000AB14AA13A912A8111202EC600640047F5C
:102B600003517FE4FFFE7D807CBFF193120055711D
:102B7000F950097D0271E3E4F5268039E4FFFE7D1A
:102B8000307C4171F9500771E17526028027E4FF1E
:102B9000FE7D887C4171F96009400771E17526016D
:102BA0008013D3E525648094804006E52514FF80DA
:102BB000027F008F25E526C454F04525900044F09F
:102BC000C3E525648094884017E0C4540F24FE6058
:102BD000070470087F0480067F0180027F02517F16
:102BE000227D01AF2571EA8F2522C3EF648094888E
:102BF0005004EF2DFF227F0822AB10AA0FA90EA8C8
:102C00000D0202ECE50A9FEE6480F8E50964809805
:102C100022FFE43527FE90000EE0FCA3E0FDD39FE9
:102C2000EE6480F8EC648098221216036407600852
:102C300075270E752842800675270D7528DEE5502C
:102C400014602014603A1460512403705EC3900035
:102C50000FE09528E5276480F812176198504C75AD
:102C6000500122E52824FA91114003E4F550E528AB
:102C70002438FFE52734FFFEC3ED911F502D802837
:102C8000E528243291114003755001C3ED9486EC80
:102C90006480948B501575500322D390000FE094FC
:102CA000E4121761948C400375500222121603B48B
:102CB0000A02800912160C400A11FB4006E490003B
:102CC00017F022900017E0FF541FFE7012EF20E66D
:102CD0000E11FB7D8050027D20EF4D900017F0908B
:102CE0000017E054E0F0C3EE648094865007E020C3
:102CF000E6030E8002E4FE900017E04EF022A21ED2
:102D0000229000010204E6301402A1A0301502A1B5
:102D1000A0E4900055F0E5506002A1FB121614B13A
:102D200001FFC390001DE09FE5F0B1FC98506B904F
:102D30000056E0FF700404F08008EFC394095002CD
:102D4000A1FB9000567401F09000051217B6D390C5
:102D5000001BE09FEE6480F890001AE064809840C9
:102D600007EEF0A3EFF0800E90001BE02432F0900D
:102D7000001AE03400F01217ADD390001DE09FEE72
:102D8000B1FC984006EEF0A3EFF02290001DE02485
:102D9000FAF090001CE03400F022E4900056F0229B
:102DA000E4900056F0F18130150C900055E0D3947A
:102DB00004400302173B900055E0D3940A403CD3F3
:102DC00090001DE094F4B1FF9481400CA3E0240630
:102DD000F090001CE034FFF0D390001BE0942290B0
:102DE000001AE06480948B400CA3E024E7F090008C
:102DF0001AE034FFF09000557401F0226480F890DE
:102E0000001CE06480228E2F8F30121614D1F470D3
:102E1000028024121614B101FBAAF0F10C900038C4
:102E2000E03EC3EB9530FFEA952FFE900038F0A30B
:102E3000EFF0EE30E704E4120024E4900035F0A354
:102E4000F022D16BD1FA40028016D16BF103EF94DE
:102E5000C0EE648094837E0050047F0180027F0076
:102E6000EF4E7006F10CF1C0D13A22900035E0FE31
:102E7000A3E0FF228D2CA907E9600CE50A24D1FB11
:102E8000E50934FFFA800AC37428950AFBE4950922
:102E9000FAEA30E703E4FAFBD16BD1FA4002802270
:102EA000D16BF103E49BFD747D9AFCC3EF9DEC12A2
:102EB00026B4500AE52C60067E007F0180047E0067
:102EC0007F00EF4E6009EB25E0FBEA33FA8003E474
:102ED000FAFB0BBB00010AE96006AE02AF038007F4
:102EE000C3E49BFFE49AFE900036E02FF09000359B
:102EF000E03EF02290000802045FD39400EE64806C
:102F00009480227CFF7DFF12049EC322900035E056
:102F1000FEA3E0FF7C007D101204B0900039E02F8A
:102F2000222003071217F1FFC20522F10CFF9000C7
:102F300038E03EFE30E703E4FEFF900040E0FCA3F3
:102F4000E0FDC39FFFEC9EFEC3EF9486EE64809489
:102F5000815014ED247AFEEC34FE900038F0A3CEBC
:102F6000F0D13A7E017F86900041E02438FD900048
:102F700040E034FFFCC3EF9DEC1226B45002D205B2
:102F800022900055E0700204F022E4900043F0FF2C
:102F900002168FAB18AA17A916A8152290001CE0DC
:102FA000FEA3E0FF2290001CEEF0A3EFF022E490DD
:102FB0000058F0900057F02212049E900039E02F44
:102FC000F0900038E03EF0229000507401F0E49060
:102FD0000052F09000517418F022E54B14FFD364B6
:102FE0008094804001227F0022439A3C43A11043F9
:102FF000A23043A3045380C35390EF53A0CF53B0E8
:10300000FB90F00AE054C3F0A3E054C3F090F01A30
:10301000E054EFF0A3E054EFF090F02AE054CFF04A
:10302000A3E054CFF090F03AE054FBF0A3E054FB5F
:10303000F022900040E0FAA3E0FBD39400EA648021
:1030400094804017122F218E258F261217F1FFC36F
:103050001226B0500A8E258F2680048A258B2631B1
:103060005165267003EE652570022150D3E5269444
:1030700000E5256480948050022139E5269FFFE514
:10308000259EFED3EF9458EE648094824002D21DB8
:10309000201D02211490003EE07002A3E07022C3C4
:1030A000E5269458E5256480948290003E5009E519
:1030B00025F0A3E526F080497402F0A37458F0804F
:1030C00040121603FFB40C1090003FE024E8F0908B
:1030D000003EE03403F08029EFB4081090003FE098
:1030E0002490F090003EE03401F0801590003FE025
:1030F000300B04243280022402F090003EE03400C1
:10310000F0C390003FE09526E525120C6498400E30
:10311000C21D800390003EE525F0A3E526F0201EA9
:103120000BD2937F057E0012118AD21E3151121DDF
:10313000DF90003A1206B28015C29390003A120650
:10314000BE00000000C21EE490003EF0A3F0D21AC0
:103150002290003EE0FEA3E0FF22900001740112E5
:103160001602600DE54F60069000007408F0E4F56B
:103170004F22E51D6024900001E0701E315AD213E9
:10318000E50AAE0930E707FF7CFF7DF68006AF0A4F
:103190007C007D0A12049E121FE422E550B403064F
:1031A000121603B40807E490000DF0801390000D90
:1031B000E0FF700404F08008EFD394744002D3223F
:1031C000C322900002E030E0057F011212879000D8
:1031D0000CE07008900002E0600214F0228F278D4E
:1031E00028900000E030E708121287E4900000F019
:1031F000900000E0FF7E0030E102AE278E4FEF70BE
:103200000CF54F900000740AF0A3E528F02290001E
:1032100001E014B40B004002616D903222719CC534
:1032200083730232430232530232A30232A90232C2
:10323000C50232CB0232E60233390233510232EC9C
:103240000232FD900000E06002616D740FF0A37423
:1032500002F022916B8F4F900000E06002616D9050
:103260000010E0FEA3E0FFD394E7EE648094834077
:10327000277C007D0A1204B0D3ED9404EC648094A2
:1032800080400BE0240AF0900010E03400F0716EF2
:103290007D0A1204B0121FE4716E7D641204B07DC9
:1032A0000380417D047F028041716E7D641204B011
:1032B000900010ECF0FEA3EDF0FF7C007D0A1204FC
:1032C000B07D05801F7D067F04801F3013099000AC
:1032D00000740AF0A3F022716E7D0A1204B0AE04ED
:1032E000AF057D0761847D087F0121DD900000E04E
:1032F000707BA3740BF0900000741FF0229000000C
:10330000E0FFC394195026EF54F86021C3E50A94F6
:103310002D717D5005754F018016C3E50A943771F4
:103320007D5005754F048008754F028003E4F54F0A
:10333000900000E07037A38014900000E0702E121F
:103340001603700690000C7412F09000017409F0DE
:1033500022C213E4900010F0A3F090000CE0600390
:103360000227AD122FDAEF7004900001F0229000D6
:1033700010E0FEA3E0FF7C0022E50A942EE509643C
:1033800080948022900000E07011EF4E70057480F0
:10339000F0800371A5F0900001EDF02275F003A418
:1033A000C58325F022EF25E025E01490000022904F
:1033B000004EE024FE606D147002814C14602324E2
:1033C000036002815F900000E0FED3940640037F1B
:1033D0000122EE6002815F90004FF090004DF0A35B
:1033E000807A9162FF642D6004EFB4201790004E44
:1033F0007403F0EF900000B42D057424F0801D7468
:1034000014F080189162540FFF700890004D7432D0
:10341000F0800371A5F090004E7402F090004FE030
:1034200004F0803B90004DE07019900000E0FF70C8
:103430000B740CF090004E7403F08023EF30E11F0A
:103440007F012290004DE014F07F0122900000E007
:10345000700D916290004E7003F080037404F07F51
:10346000002290004FE090002E9322900000E0FF99
:10347000D39409403AEF24F8C31314FF301307E53F
:103480000A20E7020F0F201313D3900011E094E7F6
:10349000900010E06480948340020F0FEF3395E0BA
:1034A000FE74032FF58274003EF583E493FF227FC0
:1034B0000022900003747FF0A374FEF0A37480F0E8
:1034C000A37402F0E490000BF09000071206BE0017
:1034D00000000022900056E06008C394095003E009
:1034E00004F0900055E06008C3940B5003E004F032
:1034F00022E4FFEF90000893FE900043E0FDEEB55C
:103500000502C3220FBF03EBD322900043E0FF70FC
:1035100005900042F022900042E004F0B12DEF242B
:103520000FFFE43EFEE0B1844002E4F0227E007C26
:10353000007D0602049E900042E0FFC39405500BFC
:10354000EFC39403503AEF04F54F22900043E0FF9D
:10355000B12DEF2405FFE43EFE900042E0FDB18472
:10356000501EED24FBFFEC34FFFE7D031204B07C03
:10357000007D021204B0ED4C7004754F02228000F1
:10358000E4F54F22C39FEE6480F874809822E41221
:10359000048CFEEE75F00EA42474F582E43409F573
:1035A00083E493B50707740112048C80040EBE0DEA
:1035B000E2AF06EF75F00EA42474F9740935F0FA41
:1035C0007BFF2290001FE054FE6003E014F09000A7
:1035D0001EE0600714F0E07002C209900015E07070
:1035E00002A3E0600E900016E024FFF0900015E0CA
:1035F00034FFF0900013E0600214F022EF640270D8
:10360000462007047F05803CD390000FE0947A1297
:103610001761948D402C200029121603FFD39401CA
:103620004005900012EFF0900014E0FFD3940240A8
:103630000CEF94075007120446900014F07F070225
:10364000168F7F0612171A2290004EE0700804F0C1
:10365000900000740FF022900001E0700690004E80
:10366000E060037F012212160354FE7F0060027F98
:103670000122900057E07005EDF0A3EFF0229000DA
:1036800058E0B40700506390368EF828287302364D
:10369000A30236AE0236CA0236D00236DF0236AE9A
:1036A0000236E5E4900057F07D0B7F01803A7F02FF
:1036B000D1ED50037F0122900058E0B401067D0750
:1036C0007F0280247D237F06801E7D237F03801858
:1036D0007F06D1ED50037F01227D077F0480097DA5
:1036E0000B7F058003E4FDFFD1727F0022AB07EB67
:1036F0003395E0FEEF25E0FDEE33FC900057E0FF50
:103700003395E0FE1204B0EB14D36480F8ED6480CE
:10371000984002D322C322900057E0600214F022A6
:10372000900046E0600214F0223007051217AD80C9
:10373000047E077F08900047E014603214603E1456
:10374000607624036002E1C7C3F1D15013A3E00403
:10375000F07006900048E004F0F1D0406AEE80443A
:103760009000477401F09000467404F08059900076
:1037700046E06001229000477402F0804A1216145D
:103780009000031217B6F1D04020A3E024FFF09080
:103790000048E034FFF0C3A3F1D4502B12279A90D5
:1037A0000048E5F0F0A3EFF0801D9000477403F0AF
:1037B0009000467428F0800F900046E06004E4FE1C
:1037C000FF22E4900047F0900048E0FEA3E0FF22D3
:1037D000D3900049E09FEE6480F8900048E0648058
:1037E0009822900051E0600214F022900050E060B6
:1037F0001724FE602214603C24027042900051E0C5
:10380000D3940040217F02229000527446F0900031
:10381000507402F07F0122900052E014F0E0D39443
:103820000040037F01229000517418F09000507402
:1038300003F0800A900051E07004900050F07F0087
:1038400022EDF4F58275830085832A85822B85839A
:103850002C85822DED22F4F58275830085832E85DB
:10386000822F85833022A3E0FBE5314BFD22A3E0CC
:10387000FBE52F4BFD22E0FBE52D5BFD22E0FBE5A8
:103880002D4BFD229000157401F0A374E022E0FBA3
:10389000E5335BFD22A3E0FBE5334B22A3E0FBEF26
:0338A0004BFD22BB
:00000001FF
